{
  "abi": [
    {
      "inputs": [
        {
          "internalType": "contract IERC721",
          "name": "_nftCollection",
          "type": "address"
        },
        {
          "internalType": "contract IERC20",
          "name": "_rewardsToken",
          "type": "address"
        }
      ],
      "stateMutability": "nonpayable",
      "type": "constructor"
    },
    {
      "anonymous": false,
      "inputs": [
        {
          "indexed": true,
          "internalType": "address",
          "name": "previousOwner",
          "type": "address"
        },
        {
          "indexed": true,
          "internalType": "address",
          "name": "newOwner",
          "type": "address"
        }
      ],
      "name": "OwnershipTransferred",
      "type": "event"
    },
    {
      "inputs": [
        {
          "internalType": "address",
          "name": "_staker",
          "type": "address"
        }
      ],
      "name": "availableRewards",
      "outputs": [
        {
          "internalType": "uint256",
          "name": "",
          "type": "uint256"
        }
      ],
      "stateMutability": "view",
      "type": "function"
    },
    {
      "inputs": [],
      "name": "claimRewards",
      "outputs": [],
      "stateMutability": "nonpayable",
      "type": "function"
    },
    {
      "inputs": [],
      "name": "emergencyWithdrawAll",
      "outputs": [],
      "stateMutability": "payable",
      "type": "function"
    },
    {
      "inputs": [
        {
          "internalType": "address",
          "name": "_user",
          "type": "address"
        }
      ],
      "name": "getStakedTokens",
      "outputs": [
        {
          "components": [
            {
              "internalType": "address",
              "name": "staker",
              "type": "address"
            },
            {
              "internalType": "uint256",
              "name": "tokenId",
              "type": "uint256"
            }
          ],
          "internalType": "struct ERC721Staking.StakedToken[]",
          "name": "",
          "type": "tuple[]"
        }
      ],
      "stateMutability": "view",
      "type": "function"
    },
    {
      "inputs": [],
      "name": "nftCollection",
      "outputs": [
        {
          "internalType": "contract IERC721",
          "name": "",
          "type": "address"
        }
      ],
      "stateMutability": "view",
      "type": "function"
    },
    {
      "inputs": [],
      "name": "owner",
      "outputs": [
        {
          "internalType": "address",
          "name": "",
          "type": "address"
        }
      ],
      "stateMutability": "view",
      "type": "function"
    },
    {
      "inputs": [],
      "name": "renounceOwnership",
      "outputs": [],
      "stateMutability": "nonpayable",
      "type": "function"
    },
    {
      "inputs": [],
      "name": "rewardsToken",
      "outputs": [
        {
          "internalType": "contract IERC20",
          "name": "",
          "type": "address"
        }
      ],
      "stateMutability": "view",
      "type": "function"
    },
    {
      "inputs": [
        {
          "internalType": "uint256",
          "name": "amount",
          "type": "uint256"
        }
      ],
      "name": "setrewardsPerHour",
      "outputs": [],
      "stateMutability": "nonpayable",
      "type": "function"
    },
    {
      "inputs": [
        {
          "internalType": "uint256",
          "name": "_tokenId",
          "type": "uint256"
        }
      ],
      "name": "stake",
      "outputs": [],
      "stateMutability": "nonpayable",
      "type": "function"
    },
    {
      "inputs": [
        {
          "internalType": "uint256",
          "name": "",
          "type": "uint256"
        }
      ],
      "name": "stakerAddress",
      "outputs": [
        {
          "internalType": "address",
          "name": "",
          "type": "address"
        }
      ],
      "stateMutability": "view",
      "type": "function"
    },
    {
      "inputs": [
        {
          "internalType": "address",
          "name": "",
          "type": "address"
        }
      ],
      "name": "stakers",
      "outputs": [
        {
          "internalType": "uint256",
          "name": "amountStaked",
          "type": "uint256"
        },
        {
          "internalType": "uint256",
          "name": "timeOfLastUpdate",
          "type": "uint256"
        },
        {
          "internalType": "uint256",
          "name": "unclaimedRewards",
          "type": "uint256"
        }
      ],
      "stateMutability": "view",
      "type": "function"
    },
    {
      "inputs": [],
      "name": "storenative",
      "outputs": [],
      "stateMutability": "payable",
      "type": "function"
    },
    {
      "inputs": [
        {
          "internalType": "address",
          "name": "newOwner",
          "type": "address"
        }
      ],
      "name": "transferOwnership",
      "outputs": [],
      "stateMutability": "nonpayable",
      "type": "function"
    },
    {
      "inputs": [
        {
          "internalType": "uint256",
          "name": "_tokenId",
          "type": "uint256"
        }
      ],
      "name": "withdraw",
      "outputs": [],
      "stateMutability": "nonpayable",
      "type": "function"
    },
    {
      "inputs": [
        {
          "internalType": "uint256",
          "name": "amount",
          "type": "uint256"
        }
      ],
      "name": "withdrawadmin",
      "outputs": [],
      "stateMutability": "payable",
      "type": "function"
    }
  ],
  "devdoc": {
    "kind": "dev",
    "methods": {
      "owner()": {
        "details": "Returns the address of the current owner."
      },
      "renounceOwnership()": {
        "details": "Leaves the contract without owner. It will not be possible to call `onlyOwner` functions anymore. Can only be called by the current owner. NOTE: Renouncing ownership will leave the contract without an owner, thereby removing any functionality that is only available to the owner."
      },
      "transferOwnership(address)": {
        "details": "Transfers ownership of the contract to a new account (`newOwner`). Can only be called by the current owner."
      }
    },
    "version": 1
  },
  "evm": {
    "assembly": "    /* \"StakingContract.sol\":367:8366  contract ERC721Staking is ReentrancyGuard, Ownable {... */\n  mstore(0x40, 0xc0)\n    /* \"StakingContract.sol\":1528:1534  100000 */\n  0x0186a0\n    /* \"StakingContract.sol\":1495:1534  uint256 private rewardsPerHour = 100000 */\n  0x03\n  sstore\n    /* \"StakingContract.sol\":698:867  constructor(IERC721 _nftCollection, IERC20 _rewardsToken ) {... */\n  callvalue\n  dup1\n  iszero\n  tag_1\n  jumpi\n  0x00\n  dup1\n  revert\ntag_1:\n  pop\n  mload(0x40)\n  sub(codesize, bytecodeSize)\n  dup1\n  bytecodeSize\n  dup4\n  codecopy\n  dup2\n  add\n  0x40\n  dup2\n  swap1\n  mstore\n  tag_2\n  swap2\n  tag_3\n  jump\t// in\ntag_2:\n    /* \"@openzeppelin/contracts/security/ReentrancyGuard.sol\":1716:1717   */\n  0x01\n    /* \"@openzeppelin/contracts/security/ReentrancyGuard.sol\":1821:1828   */\n  0x00\n    /* \"@openzeppelin/contracts/security/ReentrancyGuard.sol\":1821:1843   */\n  sstore\n    /* \"@openzeppelin/contracts/access/Ownable.sol\":936:968   */\n  tag_9\n    /* \"@openzeppelin/contracts/utils/Context.sol\":719:729   */\n  caller\n    /* \"@openzeppelin/contracts/access/Ownable.sol\":936:954   */\n  tag_12\n    /* \"@openzeppelin/contracts/access/Ownable.sol\":936:968   */\n  jump\t// in\ntag_9:\n  sub(shl(0xa0, 0x01), 0x01)\n    /* \"StakingContract.sol\":768:798  nftCollection = _nftCollection */\n  swap2\n  dup3\n  and\n  0xa0\n  mstore\n    /* \"StakingContract.sol\":809:837  rewardsToken = _rewardsToken */\n  and\n  0x80\n  mstore\n    /* \"StakingContract.sol\":855:859  1000 */\n  0x03e8\n    /* \"StakingContract.sol\":848:852  imna */\n  0x02\n    /* \"StakingContract.sol\":848:859  imna = 1000 */\n  sstore\n    /* \"StakingContract.sol\":367:8366  contract ERC721Staking is ReentrancyGuard, Ownable {... */\n  jump(tag_18)\n    /* \"@openzeppelin/contracts/access/Ownable.sol\":2433:2620   */\ntag_12:\n    /* \"@openzeppelin/contracts/access/Ownable.sol\":2525:2531   */\n  0x01\n  dup1\n  sload\n  sub(shl(0xa0, 0x01), 0x01)\n    /* \"@openzeppelin/contracts/access/Ownable.sol\":2541:2558   */\n  dup4\n  dup2\n  and\n  not(sub(shl(0xa0, 0x01), 0x01))\n  dup4\n  and\n  dup2\n  or\n  swap1\n  swap4\n  sstore\n    /* \"@openzeppelin/contracts/access/Ownable.sol\":2573:2613   */\n  mload(0x40)\n    /* \"@openzeppelin/contracts/access/Ownable.sol\":2525:2531   */\n  swap2\n  and\n  swap2\n    /* \"@openzeppelin/contracts/access/Ownable.sol\":2541:2558   */\n  swap1\n    /* \"@openzeppelin/contracts/access/Ownable.sol\":2525:2531   */\n  dup3\n  swap1\n    /* \"@openzeppelin/contracts/access/Ownable.sol\":2573:2613   */\n  0x8be0079c531659141344cd1fd0a4f28419497f9722a3daafe3b4186f6b6457e0\n  swap1\n    /* \"@openzeppelin/contracts/access/Ownable.sol\":2506:2522   */\n  0x00\n  swap1\n    /* \"@openzeppelin/contracts/access/Ownable.sol\":2573:2613   */\n  log3\n    /* \"@openzeppelin/contracts/access/Ownable.sol\":2496:2620   */\n  pop\n    /* \"@openzeppelin/contracts/access/Ownable.sol\":2433:2620   */\n  pop\n  jump\t// out\n    /* \"#utility.yul\":14:154   */\ntag_17:\n  sub(shl(0xa0, 0x01), 0x01)\n    /* \"#utility.yul\":98:129   */\n  dup2\n  and\n    /* \"#utility.yul\":88:130   */\n  dup2\n  eq\n    /* \"#utility.yul\":78:148   */\n  tag_20\n  jumpi\n    /* \"#utility.yul\":144:145   */\n  0x00\n    /* \"#utility.yul\":141:142   */\n  dup1\n    /* \"#utility.yul\":134:146   */\n  revert\n    /* \"#utility.yul\":78:148   */\ntag_20:\n    /* \"#utility.yul\":14:154   */\n  pop\n  jump\t// out\n    /* \"#utility.yul\":159:592   */\ntag_3:\n    /* \"#utility.yul\":268:274   */\n  0x00\n    /* \"#utility.yul\":276:282   */\n  dup1\n    /* \"#utility.yul\":329:331   */\n  0x40\n    /* \"#utility.yul\":317:326   */\n  dup4\n    /* \"#utility.yul\":308:315   */\n  dup6\n    /* \"#utility.yul\":304:327   */\n  sub\n    /* \"#utility.yul\":300:332   */\n  slt\n    /* \"#utility.yul\":297:349   */\n  iszero\n  tag_22\n  jumpi\n    /* \"#utility.yul\":345:346   */\n  0x00\n    /* \"#utility.yul\":342:343   */\n  dup1\n    /* \"#utility.yul\":335:347   */\n  revert\n    /* \"#utility.yul\":297:349   */\ntag_22:\n    /* \"#utility.yul\":377:386   */\n  dup3\n    /* \"#utility.yul\":371:387   */\n  mload\n    /* \"#utility.yul\":396:436   */\n  tag_23\n    /* \"#utility.yul\":430:435   */\n  dup2\n    /* \"#utility.yul\":396:436   */\n  tag_17\n  jump\t// in\ntag_23:\n    /* \"#utility.yul\":505:507   */\n  0x20\n    /* \"#utility.yul\":490:508   */\n  dup5\n  add\n    /* \"#utility.yul\":484:509   */\n  mload\n    /* \"#utility.yul\":455:460   */\n  swap1\n  swap3\n  pop\n    /* \"#utility.yul\":518:560   */\n  tag_24\n    /* \"#utility.yul\":484:509   */\n  dup2\n    /* \"#utility.yul\":518:560   */\n  tag_17\n  jump\t// in\ntag_24:\n    /* \"#utility.yul\":579:586   */\n  dup1\n    /* \"#utility.yul\":569:586   */\n  swap2\n  pop\n  pop\n    /* \"#utility.yul\":159:592   */\n  swap3\n  pop\n  swap3\n  swap1\n  pop\n  jump\t// out\ntag_18:\n    /* \"StakingContract.sol\":367:8366  contract ERC721Staking is ReentrancyGuard, Ownable {... */\n  mload(0x80)\n  mload(0xa0)\n  codecopy(0x00, dataOffset(sub_0), dataSize(sub_0))\n  0x00\n  assignImmutable(\"0x731dc163f73d31d8c68f9917ce4ff967753939f70432973c04fd2c2a48148607\")\n  0x00\n  assignImmutable(\"0x8e8fab5f003314da8d1873ea7720e8d9f47650136d916064d1edb8a11d682624\")\n  return(0x00, dataSize(sub_0))\nstop\n\nsub_0: assembly {\n        /* \"StakingContract.sol\":367:8366  contract ERC721Staking is ReentrancyGuard, Ownable {... */\n      mstore(0x40, 0x80)\n      jumpi(tag_1, lt(calldatasize, 0x04))\n      shr(0xe0, calldataload(0x00))\n      dup1\n      0x9168ae72\n      gt\n      tag_18\n      jumpi\n      dup1\n      0xd1af0c7d\n      gt\n      tag_19\n      jumpi\n      dup1\n      0xd1af0c7d\n      eq\n      tag_14\n      jumpi\n      dup1\n      0xdd191719\n      eq\n      tag_15\n      jumpi\n      dup1\n      0xf2fde38b\n      eq\n      tag_16\n      jumpi\n      dup1\n      0xf854a27f\n      eq\n      tag_17\n      jumpi\n      0x00\n      dup1\n      revert\n    tag_19:\n      dup1\n      0x9168ae72\n      eq\n      tag_10\n      jumpi\n      dup1\n      0x94067045\n      eq\n      tag_11\n      jumpi\n      dup1\n      0xa694fc3a\n      eq\n      tag_12\n      jumpi\n      dup1\n      0xb768d7f5\n      eq\n      tag_13\n      jumpi\n      0x00\n      dup1\n      revert\n    tag_18:\n      dup1\n      0x63c28db1\n      gt\n      tag_20\n      jumpi\n      dup1\n      0x63c28db1\n      eq\n      tag_6\n      jumpi\n      dup1\n      0x6588103b\n      eq\n      tag_7\n      jumpi\n      dup1\n      0x715018a6\n      eq\n      tag_8\n      jumpi\n      dup1\n      0x8da5cb5b\n      eq\n      tag_9\n      jumpi\n      0x00\n      dup1\n      revert\n    tag_20:\n      dup1\n      0x1829b46c\n      eq\n      tag_2\n      jumpi\n      dup1\n      0x2e1a7d4d\n      eq\n      tag_3\n      jumpi\n      dup1\n      0x372500ab\n      eq\n      tag_4\n      jumpi\n      dup1\n      0x5036e63b\n      eq\n      tag_5\n      jumpi\n    tag_1:\n      0x00\n      dup1\n      revert\n        /* \"StakingContract.sol\":7848:8039  function withdrawadmin(uint256 amount) external payable onlyOwner {... */\n    tag_2:\n      tag_21\n      tag_22\n      calldatasize\n      0x04\n      tag_23\n      jump\t// in\n    tag_22:\n      tag_24\n      jump\t// in\n    tag_21:\n      stop\n        /* \"StakingContract.sol\":3575:5309  function withdraw(uint256 _tokenId) external nonReentrant {... */\n    tag_3:\n      callvalue\n      dup1\n      iszero\n      tag_25\n      jumpi\n      0x00\n      dup1\n      revert\n    tag_25:\n      pop\n      tag_21\n      tag_27\n      calldatasize\n      0x04\n      tag_23\n      jump\t// in\n    tag_27:\n      tag_28\n      jump\t// in\n        /* \"StakingContract.sol\":5492:5982  function claimRewards() external {... */\n    tag_4:\n      callvalue\n      dup1\n      iszero\n      tag_29\n      jumpi\n      0x00\n      dup1\n      revert\n    tag_29:\n      pop\n      tag_21\n      tag_31\n      jump\t// in\n        /* \"StakingContract.sol\":7742:7840  function storenative() public payable {... */\n    tag_5:\n      tag_21\n        /* \"StakingContract.sol\":7829:7832  100 */\n      0x64\n        /* \"StakingContract.sol\":7822:7826  imna */\n      0x02\n        /* \"StakingContract.sol\":7822:7832  imna = 100 */\n      sstore\n        /* \"StakingContract.sol\":7742:7840  function storenative() public payable {... */\n      jump\n        /* \"StakingContract.sol\":6259:7186  function getStakedTokens(address _user)... */\n    tag_6:\n      callvalue\n      dup1\n      iszero\n      tag_34\n      jumpi\n      0x00\n      dup1\n      revert\n    tag_34:\n      pop\n      tag_35\n      tag_36\n      calldatasize\n      0x04\n      tag_37\n      jump\t// in\n    tag_36:\n      tag_38\n      jump\t// in\n    tag_35:\n      mload(0x40)\n      tag_39\n      swap2\n      swap1\n      tag_40\n      jump\t// in\n    tag_39:\n      mload(0x40)\n      dup1\n      swap2\n      sub\n      swap1\n      return\n        /* \"StakingContract.sol\":543:581  IERC721 public immutable nftCollection */\n    tag_7:\n      callvalue\n      dup1\n      iszero\n      tag_41\n      jumpi\n      0x00\n      dup1\n      revert\n    tag_41:\n      pop\n      tag_42\n      immutable(\"0x731dc163f73d31d8c68f9917ce4ff967753939f70432973c04fd2c2a48148607\")\n      dup2\n      jump\n    tag_42:\n      mload(0x40)\n      sub(shl(0xa0, 0x01), 0x01)\n        /* \"#utility.yul\":1636:1691   */\n      swap1\n      swap2\n      and\n        /* \"#utility.yul\":1618:1692   */\n      dup2\n      mstore\n        /* \"#utility.yul\":1606:1608   */\n      0x20\n        /* \"#utility.yul\":1591:1609   */\n      add\n        /* \"StakingContract.sol\":543:581  IERC721 public immutable nftCollection */\n      tag_39\n        /* \"#utility.yul\":1456:1698   */\n      jump\n        /* \"@openzeppelin/contracts/access/Ownable.sol\":1831:1932   */\n    tag_8:\n      callvalue\n      dup1\n      iszero\n      tag_46\n      jumpi\n      0x00\n      dup1\n      revert\n    tag_46:\n      pop\n      tag_21\n      tag_48\n      jump\t// in\n        /* \"@openzeppelin/contracts/access/Ownable.sol\":1201:1286   */\n    tag_9:\n      callvalue\n      dup1\n      iszero\n      tag_49\n      jumpi\n      0x00\n      dup1\n      revert\n    tag_49:\n      pop\n        /* \"@openzeppelin/contracts/access/Ownable.sol\":1273:1279   */\n      and(sub(shl(0xa0, 0x01), 0x01), sload(0x01))\n        /* \"@openzeppelin/contracts/access/Ownable.sol\":1201:1286   */\n      jump(tag_42)\n        /* \"StakingContract.sol\":1590:1631  mapping(address => Staker) public stakers */\n    tag_10:\n      callvalue\n      dup1\n      iszero\n      tag_54\n      jumpi\n      0x00\n      dup1\n      revert\n    tag_54:\n      pop\n      tag_55\n      tag_56\n      calldatasize\n      0x04\n      tag_37\n      jump\t// in\n    tag_56:\n      mstore(0x20, 0x04)\n      0x00\n      swap1\n      dup2\n      mstore\n      0x40\n      swap1\n      keccak256\n      dup1\n      sload\n      0x02\n      dup3\n      add\n      sload\n      0x03\n      swap1\n      swap3\n      add\n      sload\n      swap1\n      swap2\n      swap1\n      dup4\n      jump\n    tag_55:\n      0x40\n      dup1\n      mload\n        /* \"#utility.yul\":2136:2161   */\n      swap4\n      dup5\n      mstore\n        /* \"#utility.yul\":2192:2194   */\n      0x20\n        /* \"#utility.yul\":2177:2195   */\n      dup5\n      add\n        /* \"#utility.yul\":2170:2204   */\n      swap3\n      swap1\n      swap3\n      mstore\n        /* \"#utility.yul\":2220:2238   */\n      swap1\n      dup3\n      add\n        /* \"#utility.yul\":2213:2247   */\n      mstore\n        /* \"#utility.yul\":2124:2126   */\n      0x60\n        /* \"#utility.yul\":2109:2127   */\n      add\n        /* \"StakingContract.sol\":1590:1631  mapping(address => Staker) public stakers */\n      tag_39\n        /* \"#utility.yul\":1934:2253   */\n      jump\n        /* \"StakingContract.sol\":1753:1801  mapping(uint256 => address) public stakerAddress */\n    tag_11:\n      callvalue\n      dup1\n      iszero\n      tag_60\n      jumpi\n      0x00\n      dup1\n      revert\n    tag_60:\n      pop\n      tag_42\n      tag_62\n      calldatasize\n      0x04\n      tag_23\n      jump\t// in\n    tag_62:\n      mstore(0x20, 0x05)\n      0x00\n      swap1\n      dup2\n      mstore\n      0x40\n      swap1\n      keccak256\n      sload\n      sub(shl(0xa0, 0x01), 0x01)\n      and\n      dup2\n      jump\n        /* \"StakingContract.sol\":2075:3326  function stake(uint256 _tokenId) external nonReentrant {... */\n    tag_12:\n      callvalue\n      dup1\n      iszero\n      tag_65\n      jumpi\n      0x00\n      dup1\n      revert\n    tag_65:\n      pop\n      tag_21\n      tag_67\n      calldatasize\n      0x04\n      tag_23\n      jump\t// in\n    tag_67:\n      tag_68\n      jump\t// in\n        /* \"StakingContract.sol\":8047:8156  function setrewardsPerHour(uint256 amount) public onlyOwner... */\n    tag_13:\n      callvalue\n      dup1\n      iszero\n      tag_69\n      jumpi\n      0x00\n      dup1\n      revert\n    tag_69:\n      pop\n      tag_21\n      tag_71\n      calldatasize\n      0x04\n      tag_23\n      jump\t// in\n    tag_71:\n      tag_72\n      jump\t// in\n        /* \"StakingContract.sol\":500:536  IERC20 public immutable rewardsToken */\n    tag_14:\n      callvalue\n      dup1\n      iszero\n      tag_73\n      jumpi\n      0x00\n      dup1\n      revert\n    tag_73:\n      pop\n      tag_42\n      immutable(\"0x8e8fab5f003314da8d1873ea7720e8d9f47650136d916064d1edb8a11d682624\")\n      dup2\n      jump\n        /* \"StakingContract.sol\":8164:8363  function emergencyWithdrawAll() external payable onlyOwner {... */\n    tag_15:\n      tag_21\n      tag_79\n      jump\t// in\n        /* \"@openzeppelin/contracts/access/Ownable.sol\":2081:2279   */\n    tag_16:\n      callvalue\n      dup1\n      iszero\n      tag_80\n      jumpi\n      0x00\n      dup1\n      revert\n    tag_80:\n      pop\n      tag_21\n      tag_82\n      calldatasize\n      0x04\n      tag_37\n      jump\t// in\n    tag_82:\n      tag_83\n      jump\t// in\n        /* \"StakingContract.sol\":6042:6251  function availableRewards(address _staker) public view returns (uint256) {... */\n    tag_17:\n      callvalue\n      dup1\n      iszero\n      tag_84\n      jumpi\n      0x00\n      dup1\n      revert\n    tag_84:\n      pop\n      tag_85\n      tag_86\n      calldatasize\n      0x04\n      tag_37\n      jump\t// in\n    tag_86:\n      tag_87\n      jump\t// in\n    tag_85:\n      mload(0x40)\n        /* \"#utility.yul\":2649:2674   */\n      swap1\n      dup2\n      mstore\n        /* \"#utility.yul\":2637:2639   */\n      0x20\n        /* \"#utility.yul\":2622:2640   */\n      add\n        /* \"StakingContract.sol\":6042:6251  function availableRewards(address _staker) public view returns (uint256) {... */\n      tag_39\n        /* \"#utility.yul\":2503:2680   */\n      jump\n        /* \"StakingContract.sol\":7848:8039  function withdrawadmin(uint256 amount) external payable onlyOwner {... */\n    tag_24:\n        /* \"@openzeppelin/contracts/access/Ownable.sol\":1094:1107   */\n      tag_91\n        /* \"@openzeppelin/contracts/access/Ownable.sol\":1094:1105   */\n      tag_92\n        /* \"@openzeppelin/contracts/access/Ownable.sol\":1094:1107   */\n      jump\t// in\n    tag_91:\n        /* \"StakingContract.sol\":7926:7938  bool success */\n      0x00\n        /* \"StakingContract.sol\":7952:7959  owner() */\n      tag_94\n        /* \"@openzeppelin/contracts/access/Ownable.sol\":1273:1279   */\n      and(sub(shl(0xa0, 0x01), 0x01), sload(0x01))\n      swap1\n        /* \"@openzeppelin/contracts/access/Ownable.sol\":1201:1286   */\n      jump\n        /* \"StakingContract.sol\":7952:7959  owner() */\n    tag_94:\n      sub(shl(0xa0, 0x01), 0x01)\n        /* \"StakingContract.sol\":7944:7965  payable(owner()).call */\n      and\n        /* \"StakingContract.sol\":7973:7979  amount */\n      dup3\n        /* \"StakingContract.sol\":7944:7984  payable(owner()).call{value: amount}(\"\") */\n      mload(0x40)\n      0x00\n      mload(0x40)\n      dup1\n      dup4\n      sub\n      dup2\n      dup6\n      dup8\n      gas\n      call\n      swap3\n      pop\n      pop\n      pop\n      returndatasize\n      dup1\n      0x00\n      dup2\n      eq\n      tag_99\n      jumpi\n      mload(0x40)\n      swap2\n      pop\n      and(add(returndatasize, 0x3f), not(0x1f))\n      dup3\n      add\n      0x40\n      mstore\n      returndatasize\n      dup3\n      mstore\n      returndatasize\n      0x00\n      0x20\n      dup5\n      add\n      returndatacopy\n      jump(tag_98)\n    tag_99:\n      0x60\n      swap2\n      pop\n    tag_98:\n      pop\n        /* \"StakingContract.sol\":7925:7984  (bool success, ) = payable(owner()).call{value: amount}(\"\") */\n      pop\n      swap1\n      pop\n        /* \"StakingContract.sol\":8003:8010  success */\n      dup1\n        /* \"StakingContract.sol\":7995:8031  require(success, \"Transfer failed!\") */\n      tag_100\n      jumpi\n      mload(0x40)\n      shl(0xe5, 0x461bcd)\n      dup2\n      mstore\n        /* \"#utility.yul\":3097:3099   */\n      0x20\n        /* \"StakingContract.sol\":7995:8031  require(success, \"Transfer failed!\") */\n      0x04\n      dup3\n      add\n        /* \"#utility.yul\":3079:3100   */\n      mstore\n        /* \"#utility.yul\":3136:3138   */\n      0x10\n        /* \"#utility.yul\":3116:3134   */\n      0x24\n      dup3\n      add\n        /* \"#utility.yul\":3109:3139   */\n      mstore\n      shl(0x80, 0x5472616e73666572206661696c656421)\n        /* \"#utility.yul\":3155:3173   */\n      0x44\n      dup3\n      add\n        /* \"#utility.yul\":3148:3194   */\n      mstore\n        /* \"#utility.yul\":3211:3229   */\n      0x64\n      add\n        /* \"StakingContract.sol\":7995:8031  require(success, \"Transfer failed!\") */\n    tag_101:\n      mload(0x40)\n      dup1\n      swap2\n      sub\n      swap1\n      revert\n    tag_100:\n        /* \"StakingContract.sol\":7914:8039  {... */\n      pop\n        /* \"StakingContract.sol\":7848:8039  function withdrawadmin(uint256 amount) external payable onlyOwner {... */\n      pop\n      jump\t// out\n        /* \"StakingContract.sol\":3575:5309  function withdraw(uint256 _tokenId) external nonReentrant {... */\n    tag_28:\n        /* \"@openzeppelin/contracts/security/ReentrancyGuard.sol\":2261:2282   */\n      tag_104\n        /* \"@openzeppelin/contracts/security/ReentrancyGuard.sol\":2261:2280   */\n      tag_105\n        /* \"@openzeppelin/contracts/security/ReentrancyGuard.sol\":2261:2282   */\n      jump\t// in\n    tag_104:\n        /* \"StakingContract.sol\":3754:3764  msg.sender */\n      caller\n        /* \"StakingContract.sol\":3781:3782  0 */\n      0x00\n        /* \"StakingContract.sol\":3746:3765  stakers[msg.sender] */\n      swap1\n      dup2\n      mstore\n        /* \"StakingContract.sol\":3746:3753  stakers */\n      0x04\n        /* \"StakingContract.sol\":3746:3765  stakers[msg.sender] */\n      0x20\n      mstore\n      0x40\n      swap1\n      keccak256\n        /* \"StakingContract.sol\":3746:3778  stakers[msg.sender].amountStaked */\n      sload\n        /* \"StakingContract.sol\":3724:3835  require(... */\n      tag_107\n      jumpi\n      mload(0x40)\n      shl(0xe5, 0x461bcd)\n      dup2\n      mstore\n        /* \"#utility.yul\":3442:3444   */\n      0x20\n        /* \"StakingContract.sol\":3724:3835  require(... */\n      0x04\n      dup3\n      add\n        /* \"#utility.yul\":3424:3445   */\n      mstore\n        /* \"#utility.yul\":3481:3483   */\n      0x19\n        /* \"#utility.yul\":3461:3479   */\n      0x24\n      dup3\n      add\n        /* \"#utility.yul\":3454:3484   */\n      mstore\n        /* \"#utility.yul\":3520:3547   */\n      0x596f752068617665206e6f20746f6b656e73207374616b656400000000000000\n        /* \"#utility.yul\":3500:3518   */\n      0x44\n      dup3\n      add\n        /* \"#utility.yul\":3493:3548   */\n      mstore\n        /* \"#utility.yul\":3565:3583   */\n      0x64\n      add\n        /* \"StakingContract.sol\":3724:3835  require(... */\n      tag_101\n        /* \"#utility.yul\":3240:3589   */\n      jump\n        /* \"StakingContract.sol\":3724:3835  require(... */\n    tag_107:\n        /* \"StakingContract.sol\":3878:3888  msg.sender */\n      caller\n        /* \"StakingContract.sol\":3905:3906  0 */\n      0x00\n        /* \"StakingContract.sol\":3870:3889  stakers[msg.sender] */\n      swap1\n      dup2\n      mstore\n        /* \"StakingContract.sol\":3870:3877  stakers */\n      0x04\n        /* \"StakingContract.sol\":3870:3889  stakers[msg.sender] */\n      0x20\n      mstore\n      0x40\n      swap1\n      keccak256\n        /* \"StakingContract.sol\":3870:3902  stakers[msg.sender].amountStaked */\n      sload\n        /* \"StakingContract.sol\":3848:3959  require(... */\n      tag_110\n      jumpi\n      mload(0x40)\n      shl(0xe5, 0x461bcd)\n      dup2\n      mstore\n        /* \"#utility.yul\":3442:3444   */\n      0x20\n        /* \"StakingContract.sol\":3848:3959  require(... */\n      0x04\n      dup3\n      add\n        /* \"#utility.yul\":3424:3445   */\n      mstore\n        /* \"#utility.yul\":3481:3483   */\n      0x19\n        /* \"#utility.yul\":3461:3479   */\n      0x24\n      dup3\n      add\n        /* \"#utility.yul\":3454:3484   */\n      mstore\n        /* \"#utility.yul\":3520:3547   */\n      0x596f752068617665206e6f20746f6b656e73207374616b656400000000000000\n        /* \"#utility.yul\":3500:3518   */\n      0x44\n      dup3\n      add\n        /* \"#utility.yul\":3493:3548   */\n      mstore\n        /* \"#utility.yul\":3565:3583   */\n      0x64\n      add\n        /* \"StakingContract.sol\":3848:3959  require(... */\n      tag_101\n        /* \"#utility.yul\":3240:3589   */\n      jump\n        /* \"StakingContract.sol\":3848:3959  require(... */\n    tag_110:\n        /* \"StakingContract.sol\":4075:4090  uint256 rewards */\n      0x00\n        /* \"StakingContract.sol\":4093:4121  calculateRewards(msg.sender) */\n      tag_112\n        /* \"StakingContract.sol\":4110:4120  msg.sender */\n      caller\n        /* \"StakingContract.sol\":4093:4109  calculateRewards */\n      tag_113\n        /* \"StakingContract.sol\":4093:4121  calculateRewards(msg.sender) */\n      jump\t// in\n    tag_112:\n        /* \"StakingContract.sol\":4140:4150  msg.sender */\n      caller\n        /* \"StakingContract.sol\":4132:4151  stakers[msg.sender] */\n      0x00\n      swap1\n      dup2\n      mstore\n        /* \"StakingContract.sol\":4132:4139  stakers */\n      0x04\n        /* \"StakingContract.sol\":4132:4151  stakers[msg.sender] */\n      0x20\n      mstore\n      0x40\n      dup2\n      keccak256\n        /* \"StakingContract.sol\":4132:4168  stakers[msg.sender].unclaimedRewards */\n      0x03\n      add\n        /* \"StakingContract.sol\":4132:4179  stakers[msg.sender].unclaimedRewards += rewards */\n      dup1\n      sload\n        /* \"StakingContract.sol\":4075:4121  uint256 rewards = calculateRewards(msg.sender) */\n      swap3\n      swap4\n      pop\n      dup4\n      swap3\n        /* \"StakingContract.sol\":4132:4168  stakers[msg.sender].unclaimedRewards */\n      swap1\n      swap2\n        /* \"StakingContract.sol\":4132:4151  stakers[msg.sender] */\n      swap1\n        /* \"StakingContract.sol\":4132:4179  stakers[msg.sender].unclaimedRewards += rewards */\n      tag_114\n      swap1\n        /* \"StakingContract.sol\":4075:4121  uint256 rewards = calculateRewards(msg.sender) */\n      dup5\n      swap1\n        /* \"StakingContract.sol\":4132:4179  stakers[msg.sender].unclaimedRewards += rewards */\n      tag_115\n      jump\t// in\n    tag_114:\n      swap1\n      swap2\n      sstore\n      pop\n        /* \"StakingContract.sol\":4262:4275  uint256 index */\n      0x00\n      swap1\n      pop\n      dup1\n        /* \"StakingContract.sol\":4290:4624  for (uint256 i = 0; i < stakers[msg.sender].stakedTokens.length; i++) {... */\n    tag_116:\n        /* \"StakingContract.sol\":4322:4332  msg.sender */\n      caller\n        /* \"StakingContract.sol\":4314:4333  stakers[msg.sender] */\n      0x00\n      swap1\n      dup2\n      mstore\n        /* \"StakingContract.sol\":4314:4321  stakers */\n      0x04\n        /* \"StakingContract.sol\":4314:4333  stakers[msg.sender] */\n      0x20\n      mstore\n      0x40\n      swap1\n      keccak256\n        /* \"StakingContract.sol\":4314:4346  stakers[msg.sender].stakedTokens */\n      0x01\n      add\n        /* \"StakingContract.sol\":4314:4353  stakers[msg.sender].stakedTokens.length */\n      sload\n        /* \"StakingContract.sol\":4310:4353  i < stakers[msg.sender].stakedTokens.length */\n      dup2\n      lt\n        /* \"StakingContract.sol\":4290:4624  for (uint256 i = 0; i < stakers[msg.sender].stakedTokens.length; i++) {... */\n      iszero\n      tag_117\n      jumpi\n        /* \"StakingContract.sol\":4405:4415  msg.sender */\n      caller\n        /* \"StakingContract.sol\":4397:4416  stakers[msg.sender] */\n      0x00\n      swap1\n      dup2\n      mstore\n        /* \"StakingContract.sol\":4397:4404  stakers */\n      0x04\n        /* \"StakingContract.sol\":4397:4416  stakers[msg.sender] */\n      0x20\n      mstore\n      0x40\n      swap1\n      keccak256\n        /* \"StakingContract.sol\":4397:4429  stakers[msg.sender].stakedTokens */\n      0x01\n      add\n        /* \"StakingContract.sol\":4397:4432  stakers[msg.sender].stakedTokens[i] */\n      dup1\n      sload\n        /* \"StakingContract.sol\":4444:4452  _tokenId */\n      dup6\n      swap2\n        /* \"StakingContract.sol\":4397:4429  stakers[msg.sender].stakedTokens */\n      swap1\n        /* \"StakingContract.sol\":4430:4431  i */\n      dup4\n      swap1\n        /* \"StakingContract.sol\":4397:4432  stakers[msg.sender].stakedTokens[i] */\n      dup2\n      lt\n      tag_120\n      jumpi\n      tag_120\n      tag_121\n      jump\t// in\n    tag_120:\n      swap1\n      0x00\n      mstore\n      keccak256(0x00, 0x20)\n      swap1\n      0x02\n      mul\n      add\n        /* \"StakingContract.sol\":4397:4440  stakers[msg.sender].stakedTokens[i].tokenId */\n      0x01\n      add\n      sload\n        /* \"StakingContract.sol\":4397:4452  stakers[msg.sender].stakedTokens[i].tokenId == _tokenId */\n      eq\n        /* \"StakingContract.sol\":4397:4529  stakers[msg.sender].stakedTokens[i].tokenId == _tokenId &&... */\n      dup1\n      iszero\n      tag_123\n      jumpi\n      pop\n        /* \"StakingContract.sol\":4481:4491  msg.sender */\n      caller\n        /* \"StakingContract.sol\":4527:4528  0 */\n      0x00\n        /* \"StakingContract.sol\":4473:4492  stakers[msg.sender] */\n      swap1\n      dup2\n      mstore\n        /* \"StakingContract.sol\":4473:4480  stakers */\n      0x04\n        /* \"StakingContract.sol\":4473:4492  stakers[msg.sender] */\n      0x20\n      mstore\n      0x40\n      dup2\n      keccak256\n        /* \"StakingContract.sol\":4473:4505  stakers[msg.sender].stakedTokens */\n      0x01\n      add\n        /* \"StakingContract.sol\":4473:4508  stakers[msg.sender].stakedTokens[i] */\n      dup1\n      sload\n        /* \"StakingContract.sol\":4506:4507  i */\n      dup4\n      swap1\n        /* \"StakingContract.sol\":4473:4508  stakers[msg.sender].stakedTokens[i] */\n      dup2\n      lt\n      tag_125\n      jumpi\n      tag_125\n      tag_121\n      jump\t// in\n    tag_125:\n      0x00\n      swap2\n      dup3\n      mstore\n      0x20\n      swap1\n      swap2\n      keccak256\n      0x02\n      swap1\n      swap2\n      mul\n      add\n        /* \"StakingContract.sol\":4473:4515  stakers[msg.sender].stakedTokens[i].staker */\n      sload\n      sub(shl(0xa0, 0x01), 0x01)\n      and\n        /* \"StakingContract.sol\":4473:4529  stakers[msg.sender].stakedTokens[i].staker != address(0) */\n      eq\n      iszero\n        /* \"StakingContract.sol\":4397:4529  stakers[msg.sender].stakedTokens[i].tokenId == _tokenId &&... */\n    tag_123:\n        /* \"StakingContract.sol\":4375:4613  if (... */\n      iszero\n      tag_127\n      jumpi\n        /* \"StakingContract.sol\":4572:4573  i */\n      dup1\n        /* \"StakingContract.sol\":4564:4573  index = i */\n      swap2\n      pop\n        /* \"StakingContract.sol\":4592:4597  break */\n      jump(tag_117)\n        /* \"StakingContract.sol\":4375:4613  if (... */\n    tag_127:\n        /* \"StakingContract.sol\":4355:4358  i++ */\n      dup1\n      tag_128\n      dup2\n      tag_129\n      jump\t// in\n    tag_128:\n      swap2\n      pop\n      pop\n        /* \"StakingContract.sol\":4290:4624  for (uint256 i = 0; i < stakers[msg.sender].stakedTokens.length; i++) {... */\n      jump(tag_116)\n    tag_117:\n      pop\n        /* \"StakingContract.sol\":4728:4738  msg.sender */\n      caller\n        /* \"StakingContract.sol\":4777:4778  0 */\n      0x00\n        /* \"StakingContract.sol\":4720:4739  stakers[msg.sender] */\n      swap1\n      dup2\n      mstore\n        /* \"StakingContract.sol\":4720:4727  stakers */\n      0x04\n        /* \"StakingContract.sol\":4720:4739  stakers[msg.sender] */\n      0x20\n      mstore\n      0x40\n      dup2\n      keccak256\n        /* \"StakingContract.sol\":4720:4752  stakers[msg.sender].stakedTokens */\n      0x01\n      add\n        /* \"StakingContract.sol\":4720:4759  stakers[msg.sender].stakedTokens[index] */\n      dup1\n      sload\n        /* \"StakingContract.sol\":4753:4758  index */\n      dup4\n      swap1\n        /* \"StakingContract.sol\":4720:4759  stakers[msg.sender].stakedTokens[index] */\n      dup2\n      lt\n      tag_131\n      jumpi\n      tag_131\n      tag_121\n      jump\t// in\n    tag_131:\n      0x00\n      swap2\n      dup3\n      mstore\n      0x20\n      dup1\n      dup4\n      keccak256\n      0x02\n      swap3\n      swap1\n      swap3\n      mul\n      swap1\n      swap2\n      add\n        /* \"StakingContract.sol\":4720:4779  stakers[msg.sender].stakedTokens[index].staker = address(0) */\n      dup1\n      sload\n      not(sub(shl(0xa0, 0x01), 0x01))\n      and\n      sub(shl(0xa0, 0x01), 0x01)\n      swap5\n      swap1\n      swap5\n      and\n      swap4\n      swap1\n      swap4\n      or\n      swap1\n      swap3\n      sstore\n        /* \"StakingContract.sol\":4856:4866  msg.sender */\n      caller\n        /* \"StakingContract.sol\":4848:4867  stakers[msg.sender] */\n      dup2\n      mstore\n        /* \"StakingContract.sol\":4848:4855  stakers */\n      0x04\n        /* \"StakingContract.sol\":4848:4867  stakers[msg.sender] */\n      swap1\n      swap2\n      mstore\n      0x40\n      dup2\n      keccak256\n        /* \"StakingContract.sol\":4848:4882  stakers[msg.sender].amountStaked-- */\n      dup1\n      sload\n      swap2\n      tag_133\n      dup4\n      tag_134\n      jump\t// in\n    tag_133:\n      swap1\n      swap2\n      sstore\n      pop\n      pop\n        /* \"StakingContract.sol\":5043:5044  0 */\n      0x00\n        /* \"StakingContract.sol\":5009:5032  stakerAddress[_tokenId] */\n      dup4\n      dup2\n      mstore\n        /* \"StakingContract.sol\":5009:5022  stakerAddress */\n      0x05\n        /* \"StakingContract.sol\":5009:5032  stakerAddress[_tokenId] */\n      0x20\n      mstore\n      0x40\n      swap1\n      dup2\n      swap1\n      keccak256\n        /* \"StakingContract.sol\":5009:5045  stakerAddress[_tokenId] = address(0) */\n      dup1\n      sload\n      not(sub(shl(0xa0, 0x01), 0x01))\n      and\n      swap1\n      sstore\n        /* \"StakingContract.sol\":5112:5175  nftCollection.transferFrom(address(this), msg.sender, _tokenId) */\n      mload\n      shl(0xe0, 0x23b872dd)\n      dup2\n      mstore\n        /* \"StakingContract.sol\":5147:5151  this */\n      address\n        /* \"StakingContract.sol\":5112:5175  nftCollection.transferFrom(address(this), msg.sender, _tokenId) */\n      0x04\n      dup3\n      add\n        /* \"#utility.yul\":4532:4566   */\n      mstore\n        /* \"StakingContract.sol\":5154:5164  msg.sender */\n      caller\n        /* \"#utility.yul\":4582:4600   */\n      0x24\n      dup3\n      add\n        /* \"#utility.yul\":4575:4618   */\n      mstore\n        /* \"#utility.yul\":4634:4652   */\n      0x44\n      dup2\n      add\n        /* \"#utility.yul\":4627:4661   */\n      dup5\n      swap1\n      mstore\n      sub(shl(0xa0, 0x01), 0x01)\n        /* \"StakingContract.sol\":5112:5125  nftCollection */\n      immutable(\"0x731dc163f73d31d8c68f9917ce4ff967753939f70432973c04fd2c2a48148607\")\n        /* \"StakingContract.sol\":5112:5138  nftCollection.transferFrom */\n      and\n      swap1\n      0x23b872dd\n      swap1\n        /* \"#utility.yul\":4444:4462   */\n      0x64\n      add\n        /* \"StakingContract.sol\":5112:5175  nftCollection.transferFrom(address(this), msg.sender, _tokenId) */\n      0x00\n      mload(0x40)\n      dup1\n      dup4\n      sub\n      dup2\n      0x00\n      dup8\n      dup1\n      extcodesize\n      iszero\n      dup1\n      iszero\n      tag_137\n      jumpi\n      0x00\n      dup1\n      revert\n    tag_137:\n      pop\n      gas\n      call\n      iszero\n      dup1\n      iszero\n      tag_139\n      jumpi\n      returndatasize\n      0x00\n      dup1\n      returndatacopy\n      revert(0x00, returndatasize)\n    tag_139:\n      pop\n      pop\n        /* \"StakingContract.sol\":5255:5265  msg.sender */\n      caller\n        /* \"StakingContract.sol\":5247:5266  stakers[msg.sender] */\n      0x00\n      swap1\n      dup2\n      mstore\n        /* \"StakingContract.sol\":5247:5254  stakers */\n      0x04\n        /* \"StakingContract.sol\":5247:5266  stakers[msg.sender] */\n      0x20\n      mstore\n      0x40\n      swap1\n      keccak256\n        /* \"StakingContract.sol\":5286:5301  block.timestamp */\n      timestamp\n        /* \"StakingContract.sol\":5247:5283  stakers[msg.sender].timeOfLastUpdate */\n      0x02\n      swap1\n      swap2\n      add\n        /* \"StakingContract.sol\":5247:5301  stakers[msg.sender].timeOfLastUpdate = block.timestamp */\n      sstore\n      pop\n        /* \"@openzeppelin/contracts/security/ReentrancyGuard.sol\":2303:2323   */\n      tag_140\n      swap3\n      pop\n        /* \"@openzeppelin/contracts/security/ReentrancyGuard.sol\":2303:2321   */\n      tag_141\n      swap2\n      pop\n      pop\n        /* \"@openzeppelin/contracts/security/ReentrancyGuard.sol\":2303:2323   */\n      jump\t// in\n    tag_140:\n        /* \"StakingContract.sol\":3575:5309  function withdraw(uint256 _tokenId) external nonReentrant {... */\n      pop\n      jump\t// out\n        /* \"StakingContract.sol\":5492:5982  function claimRewards() external {... */\n    tag_31:\n        /* \"StakingContract.sol\":5608:5618  msg.sender */\n      caller\n        /* \"StakingContract.sol\":5538:5553  uint256 rewards */\n      0x00\n        /* \"StakingContract.sol\":5600:5619  stakers[msg.sender] */\n      dup2\n      dup2\n      mstore\n        /* \"StakingContract.sol\":5600:5607  stakers */\n      0x04\n        /* \"StakingContract.sol\":5600:5619  stakers[msg.sender] */\n      0x20\n      mstore\n      0x40\n      dup2\n      keccak256\n        /* \"StakingContract.sol\":5600:5636  stakers[msg.sender].unclaimedRewards */\n      0x03\n      add\n      sload\n        /* \"StakingContract.sol\":5538:5553  uint256 rewards */\n      swap1\n      swap2\n        /* \"StakingContract.sol\":5556:5584  calculateRewards(msg.sender) */\n      tag_143\n      swap1\n        /* \"StakingContract.sol\":5556:5572  calculateRewards */\n      tag_113\n        /* \"StakingContract.sol\":5556:5584  calculateRewards(msg.sender) */\n      jump\t// in\n    tag_143:\n        /* \"StakingContract.sol\":5556:5636  calculateRewards(msg.sender) +... */\n      tag_144\n      swap2\n      swap1\n      tag_115\n      jump\t// in\n    tag_144:\n        /* \"StakingContract.sol\":5538:5636  uint256 rewards = calculateRewards(msg.sender) +... */\n      swap1\n      pop\n        /* \"StakingContract.sol\":5665:5666  0 */\n      0x00\n        /* \"StakingContract.sol\":5655:5662  rewards */\n      dup2\n        /* \"StakingContract.sol\":5655:5666  rewards > 0 */\n      gt\n        /* \"StakingContract.sol\":5647:5699  require(rewards > 0, \"You have no rewards to claim\") */\n      tag_145\n      jumpi\n      mload(0x40)\n      shl(0xe5, 0x461bcd)\n      dup2\n      mstore\n        /* \"#utility.yul\":4874:4876   */\n      0x20\n        /* \"StakingContract.sol\":5647:5699  require(rewards > 0, \"You have no rewards to claim\") */\n      0x04\n      dup3\n      add\n        /* \"#utility.yul\":4856:4877   */\n      mstore\n        /* \"#utility.yul\":4913:4915   */\n      0x1c\n        /* \"#utility.yul\":4893:4911   */\n      0x24\n      dup3\n      add\n        /* \"#utility.yul\":4886:4916   */\n      mstore\n        /* \"#utility.yul\":4952:4982   */\n      0x596f752068617665206e6f207265776172647320746f20636c61696d00000000\n        /* \"#utility.yul\":4932:4950   */\n      0x44\n      dup3\n      add\n        /* \"#utility.yul\":4925:4983   */\n      mstore\n        /* \"#utility.yul\":5000:5018   */\n      0x64\n      add\n        /* \"StakingContract.sol\":5647:5699  require(rewards > 0, \"You have no rewards to claim\") */\n      tag_101\n        /* \"#utility.yul\":4672:5024   */\n      jump\n        /* \"StakingContract.sol\":5647:5699  require(rewards > 0, \"You have no rewards to claim\") */\n    tag_145:\n        /* \"StakingContract.sol\":5720:5730  msg.sender */\n      caller\n        /* \"StakingContract.sol\":5712:5731  stakers[msg.sender] */\n      0x00\n      dup2\n      dup2\n      mstore\n        /* \"StakingContract.sol\":5712:5719  stakers */\n      0x04\n        /* \"StakingContract.sol\":5712:5731  stakers[msg.sender] */\n      0x20\n      mstore\n      0x40\n      dup2\n      keccak256\n        /* \"StakingContract.sol\":5751:5766  block.timestamp */\n      timestamp\n        /* \"StakingContract.sol\":5712:5748  stakers[msg.sender].timeOfLastUpdate */\n      0x02\n      dup3\n      add\n        /* \"StakingContract.sol\":5712:5766  stakers[msg.sender].timeOfLastUpdate = block.timestamp */\n      sstore\n        /* \"StakingContract.sol\":5777:5813  stakers[msg.sender].unclaimedRewards */\n      0x03\n      add\n        /* \"StakingContract.sol\":5777:5817  stakers[msg.sender].unclaimedRewards = 0 */\n      sstore\n        /* \"StakingContract.sol\":5828:5874  rewardsToken.safeTransfer(msg.sender, rewards) */\n      tag_140\n      swap1\n        /* \"StakingContract.sol\":5828:5840  rewardsToken */\n      immutable(\"0x8e8fab5f003314da8d1873ea7720e8d9f47650136d916064d1edb8a11d682624\")\n      sub(shl(0xa0, 0x01), 0x01)\n        /* \"StakingContract.sol\":5828:5853  rewardsToken.safeTransfer */\n      and\n      swap1\n        /* \"StakingContract.sol\":5866:5873  rewards */\n      dup4\n        /* \"StakingContract.sol\":5828:5853  rewardsToken.safeTransfer */\n      tag_149\n        /* \"StakingContract.sol\":5828:5874  rewardsToken.safeTransfer(msg.sender, rewards) */\n      jump\t// in\n        /* \"StakingContract.sol\":6259:7186  function getStakedTokens(address _user)... */\n    tag_38:\n      sub(shl(0xa0, 0x01), 0x01)\n        /* \"StakingContract.sol\":6428:6442  stakers[_user] */\n      dup2\n      and\n        /* \"StakingContract.sol\":6458:6459  0 */\n      0x00\n        /* \"StakingContract.sol\":6428:6442  stakers[_user] */\n      swap1\n      dup2\n      mstore\n        /* \"StakingContract.sol\":6428:6435  stakers */\n      0x04\n        /* \"StakingContract.sol\":6428:6442  stakers[_user] */\n      0x20\n      mstore\n      0x40\n      swap1\n      keccak256\n        /* \"StakingContract.sol\":6428:6455  stakers[_user].amountStaked */\n      sload\n        /* \"StakingContract.sol\":6347:6367  StakedToken[] memory */\n      0x60\n      swap1\n        /* \"StakingContract.sol\":6428:6459  stakers[_user].amountStaked > 0 */\n      iszero\n        /* \"StakingContract.sol\":6424:7179  if (stakers[_user].amountStaked > 0) {... */\n      tag_152\n      jumpi\n      sub(shl(0xa0, 0x01), 0x01)\n        /* \"StakingContract.sol\":6642:6656  stakers[_user] */\n      dup3\n      and\n        /* \"StakingContract.sol\":6569:6603  StakedToken[] memory _stakedTokens */\n      0x00\n        /* \"StakingContract.sol\":6642:6656  stakers[_user] */\n      swap1\n      dup2\n      mstore\n        /* \"StakingContract.sol\":6642:6649  stakers */\n      0x04\n        /* \"StakingContract.sol\":6642:6656  stakers[_user] */\n      0x20\n      mstore\n      0x40\n      dup2\n      keccak256\n        /* \"StakingContract.sol\":6642:6669  stakers[_user].amountStaked */\n      sload\n        /* \"StakingContract.sol\":6606:6684  new StakedToken[](... */\n      0xffffffffffffffff\n      dup2\n      gt\n      iszero\n      tag_154\n      jumpi\n      tag_154\n      tag_155\n      jump\t// in\n    tag_154:\n      mload(0x40)\n      swap1\n      dup1\n      dup3\n      mstore\n      dup1\n      0x20\n      mul\n      0x20\n      add\n      dup3\n      add\n      0x40\n      mstore\n      dup1\n      iszero\n      tag_156\n      jumpi\n      dup2\n      0x20\n      add\n    tag_157:\n      0x40\n      dup1\n      mload\n      dup1\n      dup3\n      add\n      swap1\n      swap2\n      mstore\n      0x00\n      dup1\n      dup3\n      mstore\n      0x20\n      dup3\n      add\n      mstore\n      dup2\n      mstore\n      0x20\n      add\n      swap1\n      0x01\n      swap1\n      sub\n      swap1\n      dup2\n      tag_157\n      jumpi\n      swap1\n      pop\n    tag_156:\n      pop\n        /* \"StakingContract.sol\":6569:6684  StakedToken[] memory _stakedTokens = new StakedToken[](... */\n      swap1\n      pop\n        /* \"StakingContract.sol\":6699:6713  uint256 _index */\n      0x00\n        /* \"StakingContract.sol\":6739:6748  uint256 j */\n      dup1\n        /* \"StakingContract.sol\":6734:7020  for (uint256 j = 0; j < stakers[_user].stakedTokens.length; j++) {... */\n    tag_160:\n      sub(shl(0xa0, 0x01), 0x01)\n        /* \"StakingContract.sol\":6758:6772  stakers[_user] */\n      dup6\n      and\n      0x00\n      swap1\n      dup2\n      mstore\n        /* \"StakingContract.sol\":6758:6765  stakers */\n      0x04\n        /* \"StakingContract.sol\":6758:6772  stakers[_user] */\n      0x20\n      mstore\n      0x40\n      swap1\n      keccak256\n        /* \"StakingContract.sol\":6758:6785  stakers[_user].stakedTokens */\n      0x01\n      add\n        /* \"StakingContract.sol\":6758:6792  stakers[_user].stakedTokens.length */\n      sload\n        /* \"StakingContract.sol\":6754:6792  j < stakers[_user].stakedTokens.length */\n      dup2\n      lt\n        /* \"StakingContract.sol\":6734:7020  for (uint256 j = 0; j < stakers[_user].stakedTokens.length; j++) {... */\n      iszero\n      tag_161\n      jumpi\n      sub(shl(0xa0, 0x01), 0x01)\n        /* \"StakingContract.sol\":6822:6836  stakers[_user] */\n      dup6\n      and\n        /* \"StakingContract.sol\":6872:6873  0 */\n      0x00\n        /* \"StakingContract.sol\":6822:6836  stakers[_user] */\n      swap1\n      dup2\n      mstore\n        /* \"StakingContract.sol\":6822:6829  stakers */\n      0x04\n        /* \"StakingContract.sol\":6822:6836  stakers[_user] */\n      0x20\n      mstore\n      0x40\n      dup2\n      keccak256\n        /* \"StakingContract.sol\":6822:6849  stakers[_user].stakedTokens */\n      0x01\n      add\n        /* \"StakingContract.sol\":6822:6852  stakers[_user].stakedTokens[j] */\n      dup1\n      sload\n        /* \"StakingContract.sol\":6850:6851  j */\n      dup4\n      swap1\n        /* \"StakingContract.sol\":6822:6852  stakers[_user].stakedTokens[j] */\n      dup2\n      lt\n      tag_164\n      jumpi\n      tag_164\n      tag_121\n      jump\t// in\n    tag_164:\n      0x00\n      swap2\n      dup3\n      mstore\n      0x20\n      swap1\n      swap2\n      keccak256\n      0x02\n      swap1\n      swap2\n      mul\n      add\n        /* \"StakingContract.sol\":6822:6859  stakers[_user].stakedTokens[j].staker */\n      sload\n      sub(shl(0xa0, 0x01), 0x01)\n      and\n        /* \"StakingContract.sol\":6822:6875  stakers[_user].stakedTokens[j].staker != (address(0)) */\n      eq\n        /* \"StakingContract.sol\":6818:7005  if (stakers[_user].stakedTokens[j].staker != (address(0))) {... */\n      tag_166\n      jumpi\n      sub(shl(0xa0, 0x01), 0x01)\n        /* \"StakingContract.sol\":6924:6938  stakers[_user] */\n      dup6\n      and\n      0x00\n      swap1\n      dup2\n      mstore\n        /* \"StakingContract.sol\":6924:6931  stakers */\n      0x04\n        /* \"StakingContract.sol\":6924:6938  stakers[_user] */\n      0x20\n      mstore\n      0x40\n      swap1\n      keccak256\n        /* \"StakingContract.sol\":6924:6951  stakers[_user].stakedTokens */\n      0x01\n      add\n        /* \"StakingContract.sol\":6924:6954  stakers[_user].stakedTokens[j] */\n      dup1\n      sload\n        /* \"StakingContract.sol\":6952:6953  j */\n      dup3\n      swap1\n        /* \"StakingContract.sol\":6924:6954  stakers[_user].stakedTokens[j] */\n      dup2\n      lt\n      tag_168\n      jumpi\n      tag_168\n      tag_121\n      jump\t// in\n    tag_168:\n      0x00\n      swap2\n      dup3\n      mstore\n      0x20\n      swap2\n      dup3\n      swap1\n      keccak256\n        /* \"StakingContract.sol\":6900:6954  _stakedTokens[_index] = stakers[_user].stakedTokens[j] */\n      0x40\n      dup1\n      mload\n      dup1\n      dup3\n      add\n      swap1\n      swap2\n      mstore\n        /* \"StakingContract.sol\":6924:6954  stakers[_user].stakedTokens[j] */\n      0x02\n      swap1\n      swap3\n      mul\n      add\n        /* \"StakingContract.sol\":6900:6954  _stakedTokens[_index] = stakers[_user].stakedTokens[j] */\n      dup1\n      sload\n      sub(shl(0xa0, 0x01), 0x01)\n      and\n      dup3\n      mstore\n      0x01\n      add\n      sload\n      swap2\n      dup2\n      add\n      swap2\n      swap1\n      swap2\n      mstore\n        /* \"StakingContract.sol\":6900:6921  _stakedTokens[_index] */\n      dup4\n      mload\n        /* \"StakingContract.sol\":6900:6913  _stakedTokens */\n      dup5\n      swap1\n        /* \"StakingContract.sol\":6914:6920  _index */\n      dup5\n      swap1\n        /* \"StakingContract.sol\":6900:6921  _stakedTokens[_index] */\n      dup2\n      lt\n      tag_171\n      jumpi\n      tag_171\n      tag_121\n      jump\t// in\n    tag_171:\n      0x20\n      mul\n      0x20\n      add\n      add\n        /* \"StakingContract.sol\":6900:6954  _stakedTokens[_index] = stakers[_user].stakedTokens[j] */\n      dup2\n      swap1\n      mstore\n      pop\n        /* \"StakingContract.sol\":6977:6985  _index++ */\n      dup2\n      dup1\n      tag_172\n      swap1\n      tag_129\n      jump\t// in\n    tag_172:\n      swap3\n      pop\n      pop\n        /* \"StakingContract.sol\":6818:7005  if (stakers[_user].stakedTokens[j].staker != (address(0))) {... */\n    tag_166:\n        /* \"StakingContract.sol\":6794:6797  j++ */\n      dup1\n      tag_173\n      dup2\n      tag_129\n      jump\t// in\n    tag_173:\n      swap2\n      pop\n      pop\n        /* \"StakingContract.sol\":6734:7020  for (uint256 j = 0; j < stakers[_user].stakedTokens.length; j++) {... */\n      jump(tag_160)\n    tag_161:\n      pop\n        /* \"StakingContract.sol\":7043:7056  _stakedTokens */\n      swap1\n      swap4\n        /* \"StakingContract.sol\":6259:7186  function getStakedTokens(address _user)... */\n      swap3\n      pop\n      pop\n      pop\n      jump\t// out\n        /* \"StakingContract.sol\":6424:7179  if (stakers[_user].amountStaked > 0) {... */\n    tag_152:\n        /* \"StakingContract.sol\":7147:7167  new StakedToken[](0) */\n      0x40\n      dup1\n      mload\n        /* \"StakingContract.sol\":7165:7166  0 */\n      0x00\n        /* \"StakingContract.sol\":7147:7167  new StakedToken[](0) */\n      dup1\n      dup3\n      mstore\n      0x20\n      dup3\n      add\n      swap1\n      swap3\n      mstore\n      swap1\n      jump(tag_177)\n    tag_178:\n      0x40\n      dup1\n      mload\n      dup1\n      dup3\n      add\n      swap1\n      swap2\n      mstore\n      0x00\n      dup1\n      dup3\n      mstore\n      0x20\n      dup3\n      add\n      mstore\n      dup2\n      mstore\n      0x20\n      add\n      swap1\n      0x01\n      swap1\n      sub\n      swap1\n      dup2\n      tag_178\n      jumpi\n      swap1\n      pop\n    tag_177:\n      pop\n        /* \"StakingContract.sol\":7140:7167  return new StakedToken[](0) */\n      swap3\n        /* \"StakingContract.sol\":6259:7186  function getStakedTokens(address _user)... */\n      swap2\n      pop\n      pop\n      jump\t// out\n        /* \"@openzeppelin/contracts/access/Ownable.sol\":1831:1932   */\n    tag_48:\n        /* \"@openzeppelin/contracts/access/Ownable.sol\":1094:1107   */\n      tag_181\n        /* \"@openzeppelin/contracts/access/Ownable.sol\":1094:1105   */\n      tag_92\n        /* \"@openzeppelin/contracts/access/Ownable.sol\":1094:1107   */\n      jump\t// in\n    tag_181:\n        /* \"@openzeppelin/contracts/access/Ownable.sol\":1895:1925   */\n      tag_183\n        /* \"@openzeppelin/contracts/access/Ownable.sol\":1922:1923   */\n      0x00\n        /* \"@openzeppelin/contracts/access/Ownable.sol\":1895:1913   */\n      tag_184\n        /* \"@openzeppelin/contracts/access/Ownable.sol\":1895:1925   */\n      jump\t// in\n    tag_183:\n        /* \"@openzeppelin/contracts/access/Ownable.sol\":1831:1932   */\n      jump\t// out\n        /* \"StakingContract.sol\":2075:3326  function stake(uint256 _tokenId) external nonReentrant {... */\n    tag_68:\n        /* \"@openzeppelin/contracts/security/ReentrancyGuard.sol\":2261:2282   */\n      tag_187\n        /* \"@openzeppelin/contracts/security/ReentrancyGuard.sol\":2261:2280   */\n      tag_105\n        /* \"@openzeppelin/contracts/security/ReentrancyGuard.sol\":2261:2282   */\n      jump\t// in\n    tag_187:\n        /* \"StakingContract.sol\":2244:2254  msg.sender */\n      caller\n        /* \"StakingContract.sol\":2271:2272  0 */\n      0x00\n        /* \"StakingContract.sol\":2236:2255  stakers[msg.sender] */\n      swap1\n      dup2\n      mstore\n        /* \"StakingContract.sol\":2236:2243  stakers */\n      0x04\n        /* \"StakingContract.sol\":2236:2255  stakers[msg.sender] */\n      0x20\n      mstore\n      0x40\n      swap1\n      keccak256\n        /* \"StakingContract.sol\":2236:2268  stakers[msg.sender].amountStaked */\n      sload\n        /* \"StakingContract.sol\":2236:2272  stakers[msg.sender].amountStaked > 0 */\n      iszero\n        /* \"StakingContract.sol\":2232:2409  if (stakers[msg.sender].amountStaked > 0) {... */\n      tag_189\n      jumpi\n        /* \"StakingContract.sol\":2289:2304  uint256 rewards */\n      0x00\n        /* \"StakingContract.sol\":2307:2335  calculateRewards(msg.sender) */\n      tag_190\n        /* \"StakingContract.sol\":2324:2334  msg.sender */\n      caller\n        /* \"StakingContract.sol\":2307:2323  calculateRewards */\n      tag_113\n        /* \"StakingContract.sol\":2307:2335  calculateRewards(msg.sender) */\n      jump\t// in\n    tag_190:\n        /* \"StakingContract.sol\":2358:2368  msg.sender */\n      caller\n        /* \"StakingContract.sol\":2350:2369  stakers[msg.sender] */\n      0x00\n      swap1\n      dup2\n      mstore\n        /* \"StakingContract.sol\":2350:2357  stakers */\n      0x04\n        /* \"StakingContract.sol\":2350:2369  stakers[msg.sender] */\n      0x20\n      mstore\n      0x40\n      dup2\n      keccak256\n        /* \"StakingContract.sol\":2350:2386  stakers[msg.sender].unclaimedRewards */\n      0x03\n      add\n        /* \"StakingContract.sol\":2350:2397  stakers[msg.sender].unclaimedRewards += rewards */\n      dup1\n      sload\n        /* \"StakingContract.sol\":2289:2335  uint256 rewards = calculateRewards(msg.sender) */\n      swap3\n      swap4\n      pop\n      dup4\n      swap3\n        /* \"StakingContract.sol\":2350:2386  stakers[msg.sender].unclaimedRewards */\n      swap1\n      swap2\n        /* \"StakingContract.sol\":2350:2369  stakers[msg.sender] */\n      swap1\n        /* \"StakingContract.sol\":2350:2397  stakers[msg.sender].unclaimedRewards += rewards */\n      tag_191\n      swap1\n        /* \"StakingContract.sol\":2289:2335  uint256 rewards = calculateRewards(msg.sender) */\n      dup5\n      swap1\n        /* \"StakingContract.sol\":2350:2397  stakers[msg.sender].unclaimedRewards += rewards */\n      tag_115\n      jump\t// in\n    tag_191:\n      swap1\n      swap2\n      sstore\n      pop\n      pop\n      pop\n        /* \"StakingContract.sol\":2232:2409  if (stakers[msg.sender].amountStaked > 0) {... */\n    tag_189:\n        /* \"StakingContract.sol\":2506:2537  nftCollection.ownerOf(_tokenId) */\n      mload(0x40)\n      shl(0xe1, 0x31a9108f)\n      dup2\n      mstore\n      0x04\n      dup2\n      add\n        /* \"#utility.yul\":2649:2674   */\n      dup3\n      swap1\n      mstore\n        /* \"StakingContract.sol\":2541:2551  msg.sender */\n      caller\n      swap1\n      sub(shl(0xa0, 0x01), 0x01)\n        /* \"StakingContract.sol\":2506:2519  nftCollection */\n      immutable(\"0x731dc163f73d31d8c68f9917ce4ff967753939f70432973c04fd2c2a48148607\")\n        /* \"StakingContract.sol\":2506:2527  nftCollection.ownerOf */\n      and\n      swap1\n      0x6352211e\n      swap1\n        /* \"#utility.yul\":2622:2640   */\n      0x24\n      add\n        /* \"StakingContract.sol\":2506:2537  nftCollection.ownerOf(_tokenId) */\n      0x20\n      mload(0x40)\n      dup1\n      dup4\n      sub\n      dup2\n      dup7\n      gas\n      staticcall\n      iszero\n      dup1\n      iszero\n      tag_194\n      jumpi\n      returndatasize\n      0x00\n      dup1\n      returndatacopy\n      revert(0x00, returndatasize)\n    tag_194:\n      pop\n      pop\n      pop\n      pop\n      mload(0x40)\n      returndatasize\n      not(0x1f)\n      0x1f\n      dup3\n      add\n      and\n      dup3\n      add\n      dup1\n      0x40\n      mstore\n      pop\n      dup2\n      add\n      swap1\n      tag_195\n      swap2\n      swap1\n      tag_196\n      jump\t// in\n    tag_195:\n      sub(shl(0xa0, 0x01), 0x01)\n        /* \"StakingContract.sol\":2506:2551  nftCollection.ownerOf(_tokenId) == msg.sender */\n      and\n      eq\n        /* \"StakingContract.sol\":2484:2604  require(... */\n      tag_197\n      jumpi\n      mload(0x40)\n      shl(0xe5, 0x461bcd)\n      dup2\n      mstore\n        /* \"#utility.yul\":5619:5621   */\n      0x20\n        /* \"StakingContract.sol\":2484:2604  require(... */\n      0x04\n      dup3\n      add\n        /* \"#utility.yul\":5601:5622   */\n      mstore\n        /* \"#utility.yul\":5658:5660   */\n      0x19\n        /* \"#utility.yul\":5638:5656   */\n      0x24\n      dup3\n      add\n        /* \"#utility.yul\":5631:5661   */\n      mstore\n        /* \"#utility.yul\":5697:5724   */\n      0x596f7520646f6e2774206f776e207468697320746f6b656e2100000000000000\n        /* \"#utility.yul\":5677:5695   */\n      0x44\n      dup3\n      add\n        /* \"#utility.yul\":5670:5725   */\n      mstore\n        /* \"#utility.yul\":5742:5760   */\n      0x64\n      add\n        /* \"StakingContract.sol\":2484:2604  require(... */\n      tag_101\n        /* \"#utility.yul\":5417:5766   */\n      jump\n        /* \"StakingContract.sol\":2484:2604  require(... */\n    tag_197:\n        /* \"StakingContract.sol\":2686:2749  nftCollection.transferFrom(msg.sender, address(this), _tokenId) */\n      mload(0x40)\n      shl(0xe0, 0x23b872dd)\n      dup2\n      mstore\n        /* \"StakingContract.sol\":2713:2723  msg.sender */\n      caller\n        /* \"StakingContract.sol\":2686:2749  nftCollection.transferFrom(msg.sender, address(this), _tokenId) */\n      0x04\n      dup3\n      add\n        /* \"#utility.yul\":4532:4566   */\n      mstore\n        /* \"StakingContract.sol\":2733:2737  this */\n      address\n        /* \"#utility.yul\":4582:4600   */\n      0x24\n      dup3\n      add\n        /* \"#utility.yul\":4575:4618   */\n      mstore\n        /* \"#utility.yul\":4634:4652   */\n      0x44\n      dup2\n      add\n        /* \"#utility.yul\":4627:4661   */\n      dup3\n      swap1\n      mstore\n        /* \"StakingContract.sol\":2686:2699  nftCollection */\n      immutable(\"0x731dc163f73d31d8c68f9917ce4ff967753939f70432973c04fd2c2a48148607\")\n      sub(shl(0xa0, 0x01), 0x01)\n        /* \"StakingContract.sol\":2686:2712  nftCollection.transferFrom */\n      and\n      swap1\n      0x23b872dd\n      swap1\n        /* \"#utility.yul\":4444:4462   */\n      0x64\n      add\n        /* \"StakingContract.sol\":2686:2749  nftCollection.transferFrom(msg.sender, address(this), _tokenId) */\n      0x00\n      mload(0x40)\n      dup1\n      dup4\n      sub\n      dup2\n      0x00\n      dup8\n      dup1\n      extcodesize\n      iszero\n      dup1\n      iszero\n      tag_201\n      jumpi\n      0x00\n      dup1\n      revert\n    tag_201:\n      pop\n      gas\n      call\n      iszero\n      dup1\n      iszero\n      tag_203\n      jumpi\n      returndatasize\n      0x00\n      dup1\n      returndatacopy\n      revert(0x00, returndatasize)\n    tag_203:\n      pop\n      pop\n        /* \"StakingContract.sol\":2826:2859  StakedToken(msg.sender, _tokenId) */\n      0x40\n      dup1\n      mload\n      dup1\n      dup3\n      add\n      dup3\n      mstore\n        /* \"StakingContract.sol\":2838:2848  msg.sender */\n      caller\n        /* \"StakingContract.sol\":2826:2859  StakedToken(msg.sender, _tokenId) */\n      dup1\n      dup3\n      mstore\n      0x20\n      dup1\n      dup4\n      add\n      dup8\n      dup2\n      mstore\n      0x00\n        /* \"StakingContract.sol\":2924:2943  stakers[msg.sender] */\n      dup4\n      dup2\n      mstore\n        /* \"StakingContract.sol\":2924:2931  stakers */\n      0x04\n        /* \"StakingContract.sol\":2924:2943  stakers[msg.sender] */\n      dup4\n      mstore\n      swap5\n      dup6\n      keccak256\n        /* \"StakingContract.sol\":2924:2956  stakers[msg.sender].stakedTokens */\n      0x01\n      dup1\n      dup3\n      add\n        /* \"StakingContract.sol\":2924:2974  stakers[msg.sender].stakedTokens.push(stakedToken) */\n      dup1\n      sload\n      dup1\n      dup4\n      add\n      dup3\n      sstore\n      swap1\n      dup9\n      mstore\n      swap4\n      dup8\n      keccak256\n      dup7\n      mload\n      0x02\n      swap1\n      swap6\n      mul\n      add\n      dup1\n      sload\n      not(sub(shl(0xa0, 0x01), 0x01))\n      and\n      sub(shl(0xa0, 0x01), 0x01)\n      swap1\n      swap6\n      and\n      swap5\n      swap1\n      swap5\n      or\n      dup5\n      sstore\n      swap2\n      mload\n      swap3\n      swap1\n      swap2\n      add\n      swap2\n      swap1\n      swap2\n      sstore\n        /* \"StakingContract.sol\":3043:3062  stakers[msg.sender] */\n      swap1\n      dup4\n      mstore\n        /* \"StakingContract.sol\":3043:3077  stakers[msg.sender].amountStaked++ */\n      dup1\n      sload\n        /* \"StakingContract.sol\":2826:2859  StakedToken(msg.sender, _tokenId) */\n      swap2\n      swap5\n      pop\n        /* \"StakingContract.sol\":3043:3077  stakers[msg.sender].amountStaked++ */\n      swap1\n      swap3\n      pop\n        /* \"StakingContract.sol\":2924:2943  stakers[msg.sender] */\n      swap1\n        /* \"StakingContract.sol\":3043:3077  stakers[msg.sender].amountStaked++ */\n      tag_205\n      dup4\n      tag_129\n      jump\t// in\n    tag_205:\n      swap1\n      swap2\n      sstore\n      pop\n      pop\n      pop\n        /* \"StakingContract.sol\":3160:3183  stakerAddress[_tokenId] */\n      0x00\n      dup2\n      dup2\n      mstore\n        /* \"StakingContract.sol\":3160:3173  stakerAddress */\n      0x05\n        /* \"StakingContract.sol\":3160:3183  stakerAddress[_tokenId] */\n      0x20\n      swap1\n      dup2\n      mstore\n      0x40\n      dup1\n      dup4\n      keccak256\n        /* \"StakingContract.sol\":3160:3196  stakerAddress[_tokenId] = msg.sender */\n      dup1\n      sload\n      not(sub(shl(0xa0, 0x01), 0x01))\n      and\n        /* \"StakingContract.sol\":3186:3196  msg.sender */\n      caller\n        /* \"StakingContract.sol\":3160:3196  stakerAddress[_tokenId] = msg.sender */\n      swap1\n      dup2\n      or\n      swap1\n      swap2\n      sstore\n        /* \"StakingContract.sol\":3264:3283  stakers[msg.sender] */\n      dup4\n      mstore\n        /* \"StakingContract.sol\":3264:3271  stakers */\n      0x04\n        /* \"StakingContract.sol\":3264:3283  stakers[msg.sender] */\n      swap1\n      swap2\n      mstore\n      swap1\n      keccak256\n        /* \"StakingContract.sol\":3303:3318  block.timestamp */\n      timestamp\n        /* \"StakingContract.sol\":3264:3300  stakers[msg.sender].timeOfLastUpdate */\n      0x02\n      swap1\n      swap2\n      add\n        /* \"StakingContract.sol\":3264:3318  stakers[msg.sender].timeOfLastUpdate = block.timestamp */\n      sstore\n        /* \"@openzeppelin/contracts/security/ReentrancyGuard.sol\":2303:2323   */\n      tag_140\n        /* \"@openzeppelin/contracts/security/ReentrancyGuard.sol\":1716:1717   */\n      0x01\n        /* \"@openzeppelin/contracts/security/ReentrancyGuard.sol\":2809:2816   */\n      0x00\n        /* \"@openzeppelin/contracts/security/ReentrancyGuard.sol\":2809:2831   */\n      sstore\n        /* \"@openzeppelin/contracts/security/ReentrancyGuard.sol\":2629:2838   */\n      jump\n        /* \"StakingContract.sol\":8047:8156  function setrewardsPerHour(uint256 amount) public onlyOwner... */\n    tag_72:\n        /* \"@openzeppelin/contracts/access/Ownable.sol\":1094:1107   */\n      tag_208\n        /* \"@openzeppelin/contracts/access/Ownable.sol\":1094:1105   */\n      tag_92\n        /* \"@openzeppelin/contracts/access/Ownable.sol\":1094:1107   */\n      jump\t// in\n    tag_208:\n        /* \"StakingContract.sol\":8125:8139  rewardsPerHour */\n      0x03\n        /* \"StakingContract.sol\":8125:8148  rewardsPerHour = amount */\n      sstore\n        /* \"StakingContract.sol\":8047:8156  function setrewardsPerHour(uint256 amount) public onlyOwner... */\n      jump\t// out\n        /* \"StakingContract.sol\":8164:8363  function emergencyWithdrawAll() external payable onlyOwner {... */\n    tag_79:\n        /* \"@openzeppelin/contracts/access/Ownable.sol\":1094:1107   */\n      tag_211\n        /* \"@openzeppelin/contracts/access/Ownable.sol\":1094:1105   */\n      tag_92\n        /* \"@openzeppelin/contracts/access/Ownable.sol\":1094:1107   */\n      jump\t// in\n    tag_211:\n        /* \"StakingContract.sol\":8235:8247  bool success */\n      0x00\n        /* \"StakingContract.sol\":8261:8268  owner() */\n      tag_213\n        /* \"@openzeppelin/contracts/access/Ownable.sol\":1273:1279   */\n      and(sub(shl(0xa0, 0x01), 0x01), sload(0x01))\n      swap1\n        /* \"@openzeppelin/contracts/access/Ownable.sol\":1201:1286   */\n      jump\n        /* \"StakingContract.sol\":8261:8268  owner() */\n    tag_213:\n      sub(shl(0xa0, 0x01), 0x01)\n        /* \"StakingContract.sol\":8253:8274  payable(owner()).call */\n      and\n        /* \"StakingContract.sol\":8282:8303  address(this).balance */\n      selfbalance\n        /* \"StakingContract.sol\":8253:8308  payable(owner()).call{value: address(this).balance}(\"\") */\n      mload(0x40)\n      0x00\n      mload(0x40)\n      dup1\n      dup4\n      sub\n      dup2\n      dup6\n      dup8\n      gas\n      call\n      swap3\n      pop\n      pop\n      pop\n      returndatasize\n      dup1\n      0x00\n      dup2\n      eq\n      tag_217\n      jumpi\n      mload(0x40)\n      swap2\n      pop\n      and(add(returndatasize, 0x3f), not(0x1f))\n      dup3\n      add\n      0x40\n      mstore\n      returndatasize\n      dup3\n      mstore\n      returndatasize\n      0x00\n      0x20\n      dup5\n      add\n      returndatacopy\n      jump(tag_216)\n    tag_217:\n      0x60\n      swap2\n      pop\n    tag_216:\n      pop\n        /* \"StakingContract.sol\":8234:8308  (bool success, ) = payable(owner()).call{value: address(this).balance}(\"\") */\n      pop\n      swap1\n      pop\n        /* \"StakingContract.sol\":8327:8334  success */\n      dup1\n        /* \"StakingContract.sol\":8319:8355  require(success, \"Transfer failed!\") */\n      tag_140\n      jumpi\n      mload(0x40)\n      shl(0xe5, 0x461bcd)\n      dup2\n      mstore\n        /* \"#utility.yul\":3097:3099   */\n      0x20\n        /* \"StakingContract.sol\":8319:8355  require(success, \"Transfer failed!\") */\n      0x04\n      dup3\n      add\n        /* \"#utility.yul\":3079:3100   */\n      mstore\n        /* \"#utility.yul\":3136:3138   */\n      0x10\n        /* \"#utility.yul\":3116:3134   */\n      0x24\n      dup3\n      add\n        /* \"#utility.yul\":3109:3139   */\n      mstore\n      shl(0x80, 0x5472616e73666572206661696c656421)\n        /* \"#utility.yul\":3155:3173   */\n      0x44\n      dup3\n      add\n        /* \"#utility.yul\":3148:3194   */\n      mstore\n        /* \"#utility.yul\":3211:3229   */\n      0x64\n      add\n        /* \"StakingContract.sol\":8319:8355  require(success, \"Transfer failed!\") */\n      tag_101\n        /* \"#utility.yul\":2895:3235   */\n      jump\n        /* \"@openzeppelin/contracts/access/Ownable.sol\":2081:2279   */\n    tag_83:\n        /* \"@openzeppelin/contracts/access/Ownable.sol\":1094:1107   */\n      tag_221\n        /* \"@openzeppelin/contracts/access/Ownable.sol\":1094:1105   */\n      tag_92\n        /* \"@openzeppelin/contracts/access/Ownable.sol\":1094:1107   */\n      jump\t// in\n    tag_221:\n      sub(shl(0xa0, 0x01), 0x01)\n        /* \"@openzeppelin/contracts/access/Ownable.sol\":2169:2191   */\n      dup2\n      and\n        /* \"@openzeppelin/contracts/access/Ownable.sol\":2161:2234   */\n      tag_223\n      jumpi\n      mload(0x40)\n      shl(0xe5, 0x461bcd)\n      dup2\n      mstore\n        /* \"#utility.yul\":5973:5975   */\n      0x20\n        /* \"@openzeppelin/contracts/access/Ownable.sol\":2161:2234   */\n      0x04\n      dup3\n      add\n        /* \"#utility.yul\":5955:5976   */\n      mstore\n        /* \"#utility.yul\":6012:6014   */\n      0x26\n        /* \"#utility.yul\":5992:6010   */\n      0x24\n      dup3\n      add\n        /* \"#utility.yul\":5985:6015   */\n      mstore\n        /* \"#utility.yul\":6051:6085   */\n      0x4f776e61626c653a206e6577206f776e657220697320746865207a65726f2061\n        /* \"#utility.yul\":6031:6049   */\n      0x44\n      dup3\n      add\n        /* \"#utility.yul\":6024:6086   */\n      mstore\n        /* \"#utility.yul\":6122:6130   */\n      0x6464726573730000000000000000000000000000000000000000000000000000\n        /* \"#utility.yul\":6102:6120   */\n      0x64\n      dup3\n      add\n        /* \"#utility.yul\":6095:6131   */\n      mstore\n        /* \"#utility.yul\":6148:6167   */\n      0x84\n      add\n        /* \"@openzeppelin/contracts/access/Ownable.sol\":2161:2234   */\n      tag_101\n        /* \"#utility.yul\":5771:6173   */\n      jump\n        /* \"@openzeppelin/contracts/access/Ownable.sol\":2161:2234   */\n    tag_223:\n        /* \"@openzeppelin/contracts/access/Ownable.sol\":2244:2272   */\n      tag_140\n        /* \"@openzeppelin/contracts/access/Ownable.sol\":2263:2271   */\n      dup2\n        /* \"@openzeppelin/contracts/access/Ownable.sol\":2244:2262   */\n      tag_184\n        /* \"@openzeppelin/contracts/access/Ownable.sol\":2244:2272   */\n      jump\t// in\n        /* \"StakingContract.sol\":6042:6251  function availableRewards(address _staker) public view returns (uint256) {... */\n    tag_87:\n      sub(shl(0xa0, 0x01), 0x01)\n        /* \"StakingContract.sol\":6185:6201  stakers[_staker] */\n      dup2\n      and\n        /* \"StakingContract.sol\":6106:6113  uint256 */\n      0x00\n        /* \"StakingContract.sol\":6185:6201  stakers[_staker] */\n      swap1\n      dup2\n      mstore\n        /* \"StakingContract.sol\":6185:6192  stakers */\n      0x04\n        /* \"StakingContract.sol\":6185:6201  stakers[_staker] */\n      0x20\n      mstore\n      0x40\n      dup2\n      keccak256\n        /* \"StakingContract.sol\":6185:6218  stakers[_staker].unclaimedRewards */\n      0x03\n      add\n      sload\n        /* \"StakingContract.sol\":6106:6113  uint256 */\n      dup2\n      swap1\n        /* \"StakingContract.sol\":6144:6169  calculateRewards(_staker) */\n      tag_228\n        /* \"StakingContract.sol\":6193:6200  _staker */\n      dup5\n        /* \"StakingContract.sol\":6144:6160  calculateRewards */\n      tag_113\n        /* \"StakingContract.sol\":6144:6169  calculateRewards(_staker) */\n      jump\t// in\n    tag_228:\n        /* \"StakingContract.sol\":6144:6218  calculateRewards(_staker) +... */\n      tag_229\n      swap2\n      swap1\n      tag_115\n      jump\t// in\n    tag_229:\n        /* \"StakingContract.sol\":6126:6218  uint256 rewards = calculateRewards(_staker) +... */\n      swap4\n        /* \"StakingContract.sol\":6042:6251  function availableRewards(address _staker) public view returns (uint256) {... */\n      swap3\n      pop\n      pop\n      pop\n      jump\t// out\n        /* \"@openzeppelin/contracts/access/Ownable.sol\":1359:1489   */\n    tag_92:\n        /* \"@openzeppelin/contracts/access/Ownable.sol\":1273:1279   */\n      and(sub(shl(0xa0, 0x01), 0x01), sload(0x01))\n        /* \"@openzeppelin/contracts/utils/Context.sol\":719:729   */\n      caller\n        /* \"@openzeppelin/contracts/access/Ownable.sol\":1422:1445   */\n      eq\n        /* \"@openzeppelin/contracts/access/Ownable.sol\":1414:1482   */\n      tag_183\n      jumpi\n      mload(0x40)\n      shl(0xe5, 0x461bcd)\n      dup2\n      mstore\n        /* \"#utility.yul\":6380:6382   */\n      0x20\n        /* \"@openzeppelin/contracts/access/Ownable.sol\":1414:1482   */\n      0x04\n      dup3\n      add\n        /* \"#utility.yul\":6362:6383   */\n      dup2\n      swap1\n      mstore\n        /* \"#utility.yul\":6399:6417   */\n      0x24\n      dup3\n      add\n        /* \"#utility.yul\":6392:6422   */\n      mstore\n        /* \"#utility.yul\":6458:6492   */\n      0x4f776e61626c653a2063616c6c6572206973206e6f7420746865206f776e6572\n        /* \"#utility.yul\":6438:6456   */\n      0x44\n      dup3\n      add\n        /* \"#utility.yul\":6431:6493   */\n      mstore\n        /* \"#utility.yul\":6510:6528   */\n      0x64\n      add\n        /* \"@openzeppelin/contracts/access/Ownable.sol\":1414:1482   */\n      tag_101\n        /* \"#utility.yul\":6178:6534   */\n      jump\n        /* \"@openzeppelin/contracts/security/ReentrancyGuard.sol\":2336:2623   */\n    tag_105:\n        /* \"@openzeppelin/contracts/security/ReentrancyGuard.sol\":1759:1760   */\n      0x02\n        /* \"@openzeppelin/contracts/security/ReentrancyGuard.sol\":2468:2475   */\n      sload(0x00)\n        /* \"@openzeppelin/contracts/security/ReentrancyGuard.sol\":2468:2487   */\n      sub\n        /* \"@openzeppelin/contracts/security/ReentrancyGuard.sol\":2460:2523   */\n      tag_238\n      jumpi\n      mload(0x40)\n      shl(0xe5, 0x461bcd)\n      dup2\n      mstore\n        /* \"#utility.yul\":6741:6743   */\n      0x20\n        /* \"@openzeppelin/contracts/security/ReentrancyGuard.sol\":2460:2523   */\n      0x04\n      dup3\n      add\n        /* \"#utility.yul\":6723:6744   */\n      mstore\n        /* \"#utility.yul\":6780:6782   */\n      0x1f\n        /* \"#utility.yul\":6760:6778   */\n      0x24\n      dup3\n      add\n        /* \"#utility.yul\":6753:6783   */\n      mstore\n        /* \"#utility.yul\":6819:6852   */\n      0x5265656e7472616e637947756172643a207265656e7472616e742063616c6c00\n        /* \"#utility.yul\":6799:6817   */\n      0x44\n      dup3\n      add\n        /* \"#utility.yul\":6792:6853   */\n      mstore\n        /* \"#utility.yul\":6870:6888   */\n      0x64\n      add\n        /* \"@openzeppelin/contracts/security/ReentrancyGuard.sol\":2460:2523   */\n      tag_101\n        /* \"#utility.yul\":6539:6894   */\n      jump\n        /* \"@openzeppelin/contracts/security/ReentrancyGuard.sol\":2460:2523   */\n    tag_238:\n        /* \"@openzeppelin/contracts/security/ReentrancyGuard.sol\":1759:1760   */\n      0x02\n        /* \"@openzeppelin/contracts/security/ReentrancyGuard.sol\":2598:2605   */\n      0x00\n        /* \"@openzeppelin/contracts/security/ReentrancyGuard.sol\":2598:2616   */\n      sstore\n        /* \"@openzeppelin/contracts/security/ReentrancyGuard.sol\":2336:2623   */\n      jump\t// out\n        /* \"StakingContract.sol\":7434:7734  function calculateRewards(address _staker)... */\n    tag_113:\n        /* \"StakingContract.sol\":7703:7717  rewardsPerHour */\n      sload(0x03)\n      sub(shl(0xa0, 0x01), 0x01)\n        /* \"StakingContract.sol\":7659:7675  stakers[_staker] */\n      dup3\n      and\n        /* \"StakingContract.sol\":7527:7543  uint256 _rewards */\n      0x00\n        /* \"StakingContract.sol\":7659:7675  stakers[_staker] */\n      swap1\n      dup2\n      mstore\n        /* \"StakingContract.sol\":7659:7666  stakers */\n      0x04\n        /* \"StakingContract.sol\":7659:7675  stakers[_staker] */\n      0x20\n      mstore\n      0x40\n      dup2\n      keccak256\n        /* \"StakingContract.sol\":7659:7688  stakers[_staker].amountStaked */\n      dup1\n      sload\n        /* \"StakingContract.sol\":7605:7638  stakers[_staker].timeOfLastUpdate */\n      0x02\n      swap1\n      swap2\n      add\n      sload\n        /* \"StakingContract.sol\":7527:7543  uint256 _rewards */\n      swap2\n      swap3\n        /* \"StakingContract.sol\":7721:7725  3600 */\n      0x0e10\n      swap3\n        /* \"StakingContract.sol\":7703:7717  rewardsPerHour */\n      swap1\n      swap2\n        /* \"StakingContract.sol\":7659:7688  stakers[_staker].amountStaked */\n      swap1\n        /* \"StakingContract.sol\":7587:7638  block.timestamp - stakers[_staker].timeOfLastUpdate */\n      tag_242\n      swap1\n        /* \"StakingContract.sol\":7587:7602  block.timestamp */\n      timestamp\n        /* \"StakingContract.sol\":7587:7638  block.timestamp - stakers[_staker].timeOfLastUpdate */\n      tag_243\n      jump\t// in\n    tag_242:\n        /* \"StakingContract.sol\":7586:7688  (block.timestamp - stakers[_staker].timeOfLastUpdate) *... */\n      tag_244\n      swap2\n      swap1\n      tag_245\n      jump\t// in\n    tag_244:\n        /* \"StakingContract.sol\":7570:7717  (... */\n      tag_246\n      swap2\n      swap1\n      tag_245\n      jump\t// in\n    tag_246:\n        /* \"StakingContract.sol\":7569:7725  ((... */\n      tag_247\n      swap2\n      swap1\n      tag_248\n      jump\t// in\n    tag_247:\n        /* \"StakingContract.sol\":7561:7726  return (((... */\n      swap3\n        /* \"StakingContract.sol\":7434:7734  function calculateRewards(address _staker)... */\n      swap2\n      pop\n      pop\n      jump\t// out\n        /* \"@openzeppelin/contracts/security/ReentrancyGuard.sol\":2629:2838   */\n    tag_141:\n        /* \"@openzeppelin/contracts/security/ReentrancyGuard.sol\":1716:1717   */\n      0x01\n        /* \"@openzeppelin/contracts/security/ReentrancyGuard.sol\":2809:2816   */\n      0x00\n        /* \"@openzeppelin/contracts/security/ReentrancyGuard.sol\":2809:2831   */\n      sstore\n        /* \"@openzeppelin/contracts/security/ReentrancyGuard.sol\":2629:2838   */\n      jump\t// out\n        /* \"@openzeppelin/contracts/token/ERC20/utils/SafeERC20.sol\":763:968   */\n    tag_149:\n        /* \"@openzeppelin/contracts/token/ERC20/utils/SafeERC20.sol\":902:960   */\n      0x40\n      dup1\n      mload\n      sub(shl(0xa0, 0x01), 0x01)\n        /* \"#utility.yul\":7619:7674   */\n      dup5\n      and\n        /* \"@openzeppelin/contracts/token/ERC20/utils/SafeERC20.sol\":902:960   */\n      0x24\n      dup3\n      add\n        /* \"#utility.yul\":7601:7675   */\n      mstore\n        /* \"#utility.yul\":7691:7709   */\n      0x44\n      dup1\n      dup3\n      add\n        /* \"#utility.yul\":7684:7718   */\n      dup5\n      swap1\n      mstore\n        /* \"@openzeppelin/contracts/token/ERC20/utils/SafeERC20.sol\":902:960   */\n      dup3\n      mload\n      dup1\n      dup4\n      sub\n      swap1\n      swap2\n      add\n      dup2\n      mstore\n        /* \"#utility.yul\":7574:7592   */\n      0x64\n      swap1\n      swap2\n      add\n        /* \"@openzeppelin/contracts/token/ERC20/utils/SafeERC20.sol\":902:960   */\n      swap1\n      swap2\n      mstore\n      0x20\n      dup2\n      add\n      dup1\n      mload\n      0xffffffffffffffffffffffffffffffffffffffffffffffffffffffff\n      and\n      shl(0xe0, 0xa9059cbb)\n      or\n      swap1\n      mstore\n        /* \"@openzeppelin/contracts/token/ERC20/utils/SafeERC20.sol\":875:961   */\n      tag_251\n      swap1\n        /* \"@openzeppelin/contracts/token/ERC20/utils/SafeERC20.sol\":895:900   */\n      dup5\n      swap1\n        /* \"@openzeppelin/contracts/token/ERC20/utils/SafeERC20.sol\":875:894   */\n      tag_254\n        /* \"@openzeppelin/contracts/token/ERC20/utils/SafeERC20.sol\":875:961   */\n      jump\t// in\n    tag_251:\n        /* \"@openzeppelin/contracts/token/ERC20/utils/SafeERC20.sol\":763:968   */\n      pop\n      pop\n      pop\n      jump\t// out\n        /* \"@openzeppelin/contracts/access/Ownable.sol\":2433:2620   */\n    tag_184:\n        /* \"@openzeppelin/contracts/access/Ownable.sol\":2525:2531   */\n      0x01\n      dup1\n      sload\n      sub(shl(0xa0, 0x01), 0x01)\n        /* \"@openzeppelin/contracts/access/Ownable.sol\":2541:2558   */\n      dup4\n      dup2\n      and\n      not(sub(shl(0xa0, 0x01), 0x01))\n      dup4\n      and\n      dup2\n      or\n      swap1\n      swap4\n      sstore\n        /* \"@openzeppelin/contracts/access/Ownable.sol\":2573:2613   */\n      mload(0x40)\n        /* \"@openzeppelin/contracts/access/Ownable.sol\":2525:2531   */\n      swap2\n      and\n      swap2\n        /* \"@openzeppelin/contracts/access/Ownable.sol\":2541:2558   */\n      swap1\n        /* \"@openzeppelin/contracts/access/Ownable.sol\":2525:2531   */\n      dup3\n      swap1\n        /* \"@openzeppelin/contracts/access/Ownable.sol\":2573:2613   */\n      0x8be0079c531659141344cd1fd0a4f28419497f9722a3daafe3b4186f6b6457e0\n      swap1\n        /* \"@openzeppelin/contracts/access/Ownable.sol\":2506:2522   */\n      0x00\n      swap1\n        /* \"@openzeppelin/contracts/access/Ownable.sol\":2573:2613   */\n      log3\n        /* \"@openzeppelin/contracts/access/Ownable.sol\":2496:2620   */\n      pop\n        /* \"@openzeppelin/contracts/access/Ownable.sol\":2433:2620   */\n      pop\n      jump\t// out\n        /* \"@openzeppelin/contracts/token/ERC20/utils/SafeERC20.sol\":3747:4453   */\n    tag_254:\n        /* \"@openzeppelin/contracts/token/ERC20/utils/SafeERC20.sol\":4166:4189   */\n      0x00\n        /* \"@openzeppelin/contracts/token/ERC20/utils/SafeERC20.sol\":4192:4261   */\n      tag_258\n        /* \"@openzeppelin/contracts/token/ERC20/utils/SafeERC20.sol\":4220:4224   */\n      dup3\n        /* \"@openzeppelin/contracts/token/ERC20/utils/SafeERC20.sol\":4192:4261   */\n      mload(0x40)\n      dup1\n      0x40\n      add\n      0x40\n      mstore\n      dup1\n      0x20\n      dup2\n      mstore\n      0x20\n      add\n      0x5361666545524332303a206c6f772d6c6576656c2063616c6c206661696c6564\n      dup2\n      mstore\n      pop\n        /* \"@openzeppelin/contracts/token/ERC20/utils/SafeERC20.sol\":4200:4205   */\n      dup6\n      sub(shl(0xa0, 0x01), 0x01)\n        /* \"@openzeppelin/contracts/token/ERC20/utils/SafeERC20.sol\":4192:4219   */\n      and\n      tag_259\n      swap1\n        /* \"@openzeppelin/contracts/token/ERC20/utils/SafeERC20.sol\":4192:4261   */\n      swap3\n      swap2\n      swap1\n      0xffffffff\n      and\n      jump\t// in\n    tag_258:\n        /* \"@openzeppelin/contracts/token/ERC20/utils/SafeERC20.sol\":4275:4292   */\n      dup1\n      mload\n        /* \"@openzeppelin/contracts/token/ERC20/utils/SafeERC20.sol\":4166:4261   */\n      swap1\n      swap2\n      pop\n        /* \"@openzeppelin/contracts/token/ERC20/utils/SafeERC20.sol\":4275:4296   */\n      iszero\n        /* \"@openzeppelin/contracts/token/ERC20/utils/SafeERC20.sol\":4271:4447   */\n      tag_251\n      jumpi\n        /* \"@openzeppelin/contracts/token/ERC20/utils/SafeERC20.sol\":4370:4380   */\n      dup1\n        /* \"@openzeppelin/contracts/token/ERC20/utils/SafeERC20.sol\":4359:4389   */\n      dup1\n      0x20\n      add\n      swap1\n      mload\n      dup2\n      add\n      swap1\n      tag_261\n      swap2\n      swap1\n      tag_262\n      jump\t// in\n    tag_261:\n        /* \"@openzeppelin/contracts/token/ERC20/utils/SafeERC20.sol\":4351:4436   */\n      tag_251\n      jumpi\n      mload(0x40)\n      shl(0xe5, 0x461bcd)\n      dup2\n      mstore\n        /* \"#utility.yul\":8213:8215   */\n      0x20\n        /* \"@openzeppelin/contracts/token/ERC20/utils/SafeERC20.sol\":4351:4436   */\n      0x04\n      dup3\n      add\n        /* \"#utility.yul\":8195:8216   */\n      mstore\n        /* \"#utility.yul\":8252:8254   */\n      0x2a\n        /* \"#utility.yul\":8232:8250   */\n      0x24\n      dup3\n      add\n        /* \"#utility.yul\":8225:8255   */\n      mstore\n        /* \"#utility.yul\":8291:8325   */\n      0x5361666545524332303a204552433230206f7065726174696f6e20646964206e\n        /* \"#utility.yul\":8271:8289   */\n      0x44\n      dup3\n      add\n        /* \"#utility.yul\":8264:8326   */\n      mstore\n        /* \"#utility.yul\":8362:8374   */\n      0x6f74207375636365656400000000000000000000000000000000000000000000\n        /* \"#utility.yul\":8342:8360   */\n      0x64\n      dup3\n      add\n        /* \"#utility.yul\":8335:8375   */\n      mstore\n        /* \"#utility.yul\":8392:8411   */\n      0x84\n      add\n        /* \"@openzeppelin/contracts/token/ERC20/utils/SafeERC20.sol\":4351:4436   */\n      tag_101\n        /* \"#utility.yul\":8011:8417   */\n      jump\n        /* \"@openzeppelin/contracts/utils/Address.sol\":3873:4096   */\n    tag_259:\n        /* \"@openzeppelin/contracts/utils/Address.sol\":4006:4018   */\n      0x60\n        /* \"@openzeppelin/contracts/utils/Address.sol\":4037:4089   */\n      tag_267\n        /* \"@openzeppelin/contracts/utils/Address.sol\":4059:4065   */\n      dup5\n        /* \"@openzeppelin/contracts/utils/Address.sol\":4067:4071   */\n      dup5\n        /* \"@openzeppelin/contracts/utils/Address.sol\":4073:4074   */\n      0x00\n        /* \"@openzeppelin/contracts/utils/Address.sol\":4076:4088   */\n      dup6\n        /* \"@openzeppelin/contracts/utils/Address.sol\":4037:4058   */\n      tag_268\n        /* \"@openzeppelin/contracts/utils/Address.sol\":4037:4089   */\n      jump\t// in\n    tag_267:\n        /* \"@openzeppelin/contracts/utils/Address.sol\":4030:4089   */\n      swap5\n        /* \"@openzeppelin/contracts/utils/Address.sol\":3873:4096   */\n      swap4\n      pop\n      pop\n      pop\n      pop\n      jump\t// out\n        /* \"@openzeppelin/contracts/utils/Address.sol\":4960:5406   */\n    tag_268:\n        /* \"@openzeppelin/contracts/utils/Address.sol\":5125:5137   */\n      0x60\n        /* \"@openzeppelin/contracts/utils/Address.sol\":5182:5187   */\n      dup3\n        /* \"@openzeppelin/contracts/utils/Address.sol\":5157:5178   */\n      selfbalance\n        /* \"@openzeppelin/contracts/utils/Address.sol\":5157:5187   */\n      lt\n      iszero\n        /* \"@openzeppelin/contracts/utils/Address.sol\":5149:5230   */\n      tag_270\n      jumpi\n      mload(0x40)\n      shl(0xe5, 0x461bcd)\n      dup2\n      mstore\n        /* \"#utility.yul\":8624:8626   */\n      0x20\n        /* \"@openzeppelin/contracts/utils/Address.sol\":5149:5230   */\n      0x04\n      dup3\n      add\n        /* \"#utility.yul\":8606:8627   */\n      mstore\n        /* \"#utility.yul\":8663:8665   */\n      0x26\n        /* \"#utility.yul\":8643:8661   */\n      0x24\n      dup3\n      add\n        /* \"#utility.yul\":8636:8666   */\n      mstore\n        /* \"#utility.yul\":8702:8736   */\n      0x416464726573733a20696e73756666696369656e742062616c616e636520666f\n        /* \"#utility.yul\":8682:8700   */\n      0x44\n      dup3\n      add\n        /* \"#utility.yul\":8675:8737   */\n      mstore\n        /* \"#utility.yul\":8773:8781   */\n      0x722063616c6c0000000000000000000000000000000000000000000000000000\n        /* \"#utility.yul\":8753:8771   */\n      0x64\n      dup3\n      add\n        /* \"#utility.yul\":8746:8782   */\n      mstore\n        /* \"#utility.yul\":8799:8818   */\n      0x84\n      add\n        /* \"@openzeppelin/contracts/utils/Address.sol\":5149:5230   */\n      tag_101\n        /* \"#utility.yul\":8422:8824   */\n      jump\n        /* \"@openzeppelin/contracts/utils/Address.sol\":5149:5230   */\n    tag_270:\n        /* \"@openzeppelin/contracts/utils/Address.sol\":5241:5253   */\n      0x00\n        /* \"@openzeppelin/contracts/utils/Address.sol\":5255:5278   */\n      dup1\n        /* \"@openzeppelin/contracts/utils/Address.sol\":5282:5288   */\n      dup7\n      sub(shl(0xa0, 0x01), 0x01)\n        /* \"@openzeppelin/contracts/utils/Address.sol\":5282:5293   */\n      and\n        /* \"@openzeppelin/contracts/utils/Address.sol\":5301:5306   */\n      dup6\n        /* \"@openzeppelin/contracts/utils/Address.sol\":5308:5312   */\n      dup8\n        /* \"@openzeppelin/contracts/utils/Address.sol\":5282:5313   */\n      mload(0x40)\n      tag_273\n      swap2\n      swap1\n      tag_274\n      jump\t// in\n    tag_273:\n      0x00\n      mload(0x40)\n      dup1\n      dup4\n      sub\n      dup2\n      dup6\n      dup8\n      gas\n      call\n      swap3\n      pop\n      pop\n      pop\n      returndatasize\n      dup1\n      0x00\n      dup2\n      eq\n      tag_277\n      jumpi\n      mload(0x40)\n      swap2\n      pop\n      and(add(returndatasize, 0x3f), not(0x1f))\n      dup3\n      add\n      0x40\n      mstore\n      returndatasize\n      dup3\n      mstore\n      returndatasize\n      0x00\n      0x20\n      dup5\n      add\n      returndatacopy\n      jump(tag_276)\n    tag_277:\n      0x60\n      swap2\n      pop\n    tag_276:\n      pop\n        /* \"@openzeppelin/contracts/utils/Address.sol\":5240:5313   */\n      swap2\n      pop\n      swap2\n      pop\n        /* \"@openzeppelin/contracts/utils/Address.sol\":5330:5399   */\n      tag_278\n        /* \"@openzeppelin/contracts/utils/Address.sol\":5357:5363   */\n      dup8\n        /* \"@openzeppelin/contracts/utils/Address.sol\":5365:5372   */\n      dup4\n        /* \"@openzeppelin/contracts/utils/Address.sol\":5374:5384   */\n      dup4\n        /* \"@openzeppelin/contracts/utils/Address.sol\":5386:5398   */\n      dup8\n        /* \"@openzeppelin/contracts/utils/Address.sol\":5330:5356   */\n      tag_279\n        /* \"@openzeppelin/contracts/utils/Address.sol\":5330:5399   */\n      jump\t// in\n    tag_278:\n        /* \"@openzeppelin/contracts/utils/Address.sol\":5323:5399   */\n      swap8\n        /* \"@openzeppelin/contracts/utils/Address.sol\":4960:5406   */\n      swap7\n      pop\n      pop\n      pop\n      pop\n      pop\n      pop\n      pop\n      jump\t// out\n        /* \"@openzeppelin/contracts/utils/Address.sol\":7466:8094   */\n    tag_279:\n        /* \"@openzeppelin/contracts/utils/Address.sol\":7646:7658   */\n      0x60\n        /* \"@openzeppelin/contracts/utils/Address.sol\":7674:7681   */\n      dup4\n        /* \"@openzeppelin/contracts/utils/Address.sol\":7670:8088   */\n      iszero\n      tag_281\n      jumpi\n        /* \"@openzeppelin/contracts/utils/Address.sol\":7701:7711   */\n      dup3\n        /* \"@openzeppelin/contracts/utils/Address.sol\":7701:7718   */\n      mload\n        /* \"@openzeppelin/contracts/utils/Address.sol\":7722:7723   */\n      0x00\n        /* \"@openzeppelin/contracts/utils/Address.sol\":7701:7723   */\n      sub\n        /* \"@openzeppelin/contracts/utils/Address.sol\":7697:7983   */\n      tag_285\n      jumpi\n      sub(shl(0xa0, 0x01), 0x01)\n        /* \"@openzeppelin/contracts/utils/Address.sol\":1465:1484   */\n      dup6\n      and\n      extcodesize\n        /* \"@openzeppelin/contracts/utils/Address.sol\":7908:7968   */\n      tag_285\n      jumpi\n      mload(0x40)\n      shl(0xe5, 0x461bcd)\n      dup2\n      mstore\n        /* \"#utility.yul\":9578:9580   */\n      0x20\n        /* \"@openzeppelin/contracts/utils/Address.sol\":7908:7968   */\n      0x04\n      dup3\n      add\n        /* \"#utility.yul\":9560:9581   */\n      mstore\n        /* \"#utility.yul\":9617:9619   */\n      0x1d\n        /* \"#utility.yul\":9597:9615   */\n      0x24\n      dup3\n      add\n        /* \"#utility.yul\":9590:9620   */\n      mstore\n        /* \"#utility.yul\":9656:9687   */\n      0x416464726573733a2063616c6c20746f206e6f6e2d636f6e7472616374000000\n        /* \"#utility.yul\":9636:9654   */\n      0x44\n      dup3\n      add\n        /* \"#utility.yul\":9629:9688   */\n      mstore\n        /* \"#utility.yul\":9705:9723   */\n      0x64\n      add\n        /* \"@openzeppelin/contracts/utils/Address.sol\":7908:7968   */\n      tag_101\n        /* \"#utility.yul\":9376:9729   */\n      jump\n        /* \"@openzeppelin/contracts/utils/Address.sol\":7908:7968   */\n    tag_285:\n      pop\n        /* \"@openzeppelin/contracts/utils/Address.sol\":8003:8013   */\n      dup2\n        /* \"@openzeppelin/contracts/utils/Address.sol\":7996:8013   */\n      jump(tag_267)\n        /* \"@openzeppelin/contracts/utils/Address.sol\":7670:8088   */\n    tag_281:\n        /* \"@openzeppelin/contracts/utils/Address.sol\":8044:8077   */\n      tag_267\n        /* \"@openzeppelin/contracts/utils/Address.sol\":8052:8062   */\n      dup4\n        /* \"@openzeppelin/contracts/utils/Address.sol\":8064:8076   */\n      dup4\n        /* \"@openzeppelin/contracts/utils/Address.sol\":8775:8792   */\n      dup2\n      mload\n        /* \"@openzeppelin/contracts/utils/Address.sol\":8775:8796   */\n      iszero\n        /* \"@openzeppelin/contracts/utils/Address.sol\":8771:9150   */\n      tag_293\n      jumpi\n        /* \"@openzeppelin/contracts/utils/Address.sol\":9003:9013   */\n      dup2\n        /* \"@openzeppelin/contracts/utils/Address.sol\":8997:9014   */\n      mload\n        /* \"@openzeppelin/contracts/utils/Address.sol\":9059:9074   */\n      dup1\n        /* \"@openzeppelin/contracts/utils/Address.sol\":9046:9056   */\n      dup4\n        /* \"@openzeppelin/contracts/utils/Address.sol\":9042:9044   */\n      0x20\n        /* \"@openzeppelin/contracts/utils/Address.sol\":9038:9057   */\n      add\n        /* \"@openzeppelin/contracts/utils/Address.sol\":9031:9075   */\n      revert\n        /* \"@openzeppelin/contracts/utils/Address.sol\":8771:9150   */\n    tag_293:\n        /* \"@openzeppelin/contracts/utils/Address.sol\":9126:9138   */\n      dup1\n        /* \"@openzeppelin/contracts/utils/Address.sol\":9119:9139   */\n      mload(0x40)\n      shl(0xe5, 0x461bcd)\n      dup2\n      mstore\n      0x04\n      add\n      tag_101\n      swap2\n      swap1\n      tag_296\n      jump\t// in\n        /* \"#utility.yul\":14:194   */\n    tag_23:\n        /* \"#utility.yul\":73:79   */\n      0x00\n        /* \"#utility.yul\":126:128   */\n      0x20\n        /* \"#utility.yul\":114:123   */\n      dup3\n        /* \"#utility.yul\":105:112   */\n      dup5\n        /* \"#utility.yul\":101:124   */\n      sub\n        /* \"#utility.yul\":97:129   */\n      slt\n        /* \"#utility.yul\":94:146   */\n      iszero\n      tag_302\n      jumpi\n        /* \"#utility.yul\":142:143   */\n      0x00\n        /* \"#utility.yul\":139:140   */\n      dup1\n        /* \"#utility.yul\":132:144   */\n      revert\n        /* \"#utility.yul\":94:146   */\n    tag_302:\n      pop\n        /* \"#utility.yul\":165:188   */\n      calldataload\n      swap2\n        /* \"#utility.yul\":14:194   */\n      swap1\n      pop\n      jump\t// out\n        /* \"#utility.yul\":199:353   */\n    tag_297:\n      sub(shl(0xa0, 0x01), 0x01)\n        /* \"#utility.yul\":278:283   */\n      dup2\n        /* \"#utility.yul\":274:328   */\n      and\n        /* \"#utility.yul\":267:272   */\n      dup2\n        /* \"#utility.yul\":264:329   */\n      eq\n        /* \"#utility.yul\":254:347   */\n      tag_140\n      jumpi\n        /* \"#utility.yul\":343:344   */\n      0x00\n        /* \"#utility.yul\":340:341   */\n      dup1\n        /* \"#utility.yul\":333:345   */\n      revert\n        /* \"#utility.yul\":358:605   */\n    tag_37:\n        /* \"#utility.yul\":417:423   */\n      0x00\n        /* \"#utility.yul\":470:472   */\n      0x20\n        /* \"#utility.yul\":458:467   */\n      dup3\n        /* \"#utility.yul\":449:456   */\n      dup5\n        /* \"#utility.yul\":445:468   */\n      sub\n        /* \"#utility.yul\":441:473   */\n      slt\n        /* \"#utility.yul\":438:490   */\n      iszero\n      tag_306\n      jumpi\n        /* \"#utility.yul\":486:487   */\n      0x00\n        /* \"#utility.yul\":483:484   */\n      dup1\n        /* \"#utility.yul\":476:488   */\n      revert\n        /* \"#utility.yul\":438:490   */\n    tag_306:\n        /* \"#utility.yul\":525:534   */\n      dup2\n        /* \"#utility.yul\":512:535   */\n      calldataload\n        /* \"#utility.yul\":544:575   */\n      tag_229\n        /* \"#utility.yul\":569:574   */\n      dup2\n        /* \"#utility.yul\":544:575   */\n      tag_297\n      jump\t// in\n        /* \"#utility.yul\":610:1451   */\n    tag_40:\n        /* \"#utility.yul\":835:837   */\n      0x20\n        /* \"#utility.yul\":887:908   */\n      dup1\n      dup3\n      mstore\n        /* \"#utility.yul\":957:970   */\n      dup3\n      mload\n        /* \"#utility.yul\":860:878   */\n      dup3\n      dup3\n      add\n        /* \"#utility.yul\":979:1001   */\n      dup2\n      swap1\n      mstore\n        /* \"#utility.yul\":806:810   */\n      0x00\n      swap2\n        /* \"#utility.yul\":835:837   */\n      swap1\n        /* \"#utility.yul\":1020:1022   */\n      0x40\n      swap1\n        /* \"#utility.yul\":1038:1056   */\n      dup2\n      dup6\n      add\n      swap1\n        /* \"#utility.yul\":1079:1094   */\n      dup7\n      dup5\n      add\n        /* \"#utility.yul\":806:810   */\n      dup6\n        /* \"#utility.yul\":1122:1425   */\n    tag_309:\n        /* \"#utility.yul\":1136:1142   */\n      dup3\n        /* \"#utility.yul\":1133:1134   */\n      dup2\n        /* \"#utility.yul\":1130:1143   */\n      lt\n        /* \"#utility.yul\":1122:1425   */\n      iszero\n      tag_311\n      jumpi\n        /* \"#utility.yul\":1195:1208   */\n      dup2\n      mload\n        /* \"#utility.yul\":1237:1246   */\n      dup1\n      mload\n      sub(shl(0xa0, 0x01), 0x01)\n        /* \"#utility.yul\":1233:1291   */\n      and\n        /* \"#utility.yul\":1221:1292   */\n      dup6\n      mstore\n        /* \"#utility.yul\":1332:1343   */\n      dup7\n      add\n        /* \"#utility.yul\":1326:1344   */\n      mload\n        /* \"#utility.yul\":1312:1324   */\n      dup7\n      dup6\n      add\n        /* \"#utility.yul\":1305:1345   */\n      mstore\n        /* \"#utility.yul\":1365:1377   */\n      swap3\n      dup5\n      add\n      swap3\n        /* \"#utility.yul\":1400:1415   */\n      swap1\n      dup6\n      add\n      swap1\n        /* \"#utility.yul\":1158:1159   */\n      0x01\n        /* \"#utility.yul\":1151:1160   */\n      add\n        /* \"#utility.yul\":1122:1425   */\n      jump(tag_309)\n    tag_311:\n      pop\n        /* \"#utility.yul\":1442:1445   */\n      swap2\n      swap8\n        /* \"#utility.yul\":610:1451   */\n      swap7\n      pop\n      pop\n      pop\n      pop\n      pop\n      pop\n      pop\n      jump\t// out\n        /* \"#utility.yul\":3594:3721   */\n    tag_298:\n        /* \"#utility.yul\":3655:3665   */\n      0x4e487b71\n        /* \"#utility.yul\":3650:3653   */\n      0xe0\n        /* \"#utility.yul\":3646:3666   */\n      shl\n        /* \"#utility.yul\":3643:3644   */\n      0x00\n        /* \"#utility.yul\":3636:3667   */\n      mstore\n        /* \"#utility.yul\":3686:3690   */\n      0x11\n        /* \"#utility.yul\":3683:3684   */\n      0x04\n        /* \"#utility.yul\":3676:3691   */\n      mstore\n        /* \"#utility.yul\":3710:3714   */\n      0x24\n        /* \"#utility.yul\":3707:3708   */\n      0x00\n        /* \"#utility.yul\":3700:3715   */\n      revert\n        /* \"#utility.yul\":3726:3851   */\n    tag_115:\n        /* \"#utility.yul\":3791:3800   */\n      dup1\n      dup3\n      add\n        /* \"#utility.yul\":3812:3822   */\n      dup1\n      dup3\n      gt\n        /* \"#utility.yul\":3809:3845   */\n      iszero\n      tag_247\n      jumpi\n        /* \"#utility.yul\":3825:3843   */\n      tag_247\n      tag_298\n      jump\t// in\n        /* \"#utility.yul\":3856:3983   */\n    tag_121:\n        /* \"#utility.yul\":3917:3927   */\n      0x4e487b71\n        /* \"#utility.yul\":3912:3915   */\n      0xe0\n        /* \"#utility.yul\":3908:3928   */\n      shl\n        /* \"#utility.yul\":3905:3906   */\n      0x00\n        /* \"#utility.yul\":3898:3929   */\n      mstore\n        /* \"#utility.yul\":3948:3952   */\n      0x32\n        /* \"#utility.yul\":3945:3946   */\n      0x04\n        /* \"#utility.yul\":3938:3953   */\n      mstore\n        /* \"#utility.yul\":3972:3976   */\n      0x24\n        /* \"#utility.yul\":3969:3970   */\n      0x00\n        /* \"#utility.yul\":3962:3977   */\n      revert\n        /* \"#utility.yul\":3988:4123   */\n    tag_129:\n        /* \"#utility.yul\":4027:4030   */\n      0x00\n        /* \"#utility.yul\":4048:4065   */\n      0x01\n      dup3\n      add\n        /* \"#utility.yul\":4045:4088   */\n      tag_327\n      jumpi\n        /* \"#utility.yul\":4068:4086   */\n      tag_327\n      tag_298\n      jump\t// in\n    tag_327:\n      pop\n        /* \"#utility.yul\":4115:4116   */\n      0x01\n        /* \"#utility.yul\":4104:4117   */\n      add\n      swap1\n        /* \"#utility.yul\":3988:4123   */\n      jump\t// out\n        /* \"#utility.yul\":4128:4264   */\n    tag_134:\n        /* \"#utility.yul\":4167:4170   */\n      0x00\n        /* \"#utility.yul\":4195:4200   */\n      dup2\n        /* \"#utility.yul\":4185:4224   */\n      tag_330\n      jumpi\n        /* \"#utility.yul\":4204:4222   */\n      tag_330\n      tag_298\n      jump\t// in\n    tag_330:\n      pop\n      not(0x00)\n        /* \"#utility.yul\":4240:4258   */\n      add\n      swap1\n        /* \"#utility.yul\":4128:4264   */\n      jump\t// out\n        /* \"#utility.yul\":5029:5156   */\n    tag_155:\n        /* \"#utility.yul\":5090:5100   */\n      0x4e487b71\n        /* \"#utility.yul\":5085:5088   */\n      0xe0\n        /* \"#utility.yul\":5081:5101   */\n      shl\n        /* \"#utility.yul\":5078:5079   */\n      0x00\n        /* \"#utility.yul\":5071:5102   */\n      mstore\n        /* \"#utility.yul\":5121:5125   */\n      0x41\n        /* \"#utility.yul\":5118:5119   */\n      0x04\n        /* \"#utility.yul\":5111:5126   */\n      mstore\n        /* \"#utility.yul\":5145:5149   */\n      0x24\n        /* \"#utility.yul\":5142:5143   */\n      0x00\n        /* \"#utility.yul\":5135:5150   */\n      revert\n        /* \"#utility.yul\":5161:5412   */\n    tag_196:\n        /* \"#utility.yul\":5231:5237   */\n      0x00\n        /* \"#utility.yul\":5284:5286   */\n      0x20\n        /* \"#utility.yul\":5272:5281   */\n      dup3\n        /* \"#utility.yul\":5263:5270   */\n      dup5\n        /* \"#utility.yul\":5259:5282   */\n      sub\n        /* \"#utility.yul\":5255:5287   */\n      slt\n        /* \"#utility.yul\":5252:5304   */\n      iszero\n      tag_335\n      jumpi\n        /* \"#utility.yul\":5300:5301   */\n      0x00\n        /* \"#utility.yul\":5297:5298   */\n      dup1\n        /* \"#utility.yul\":5290:5302   */\n      revert\n        /* \"#utility.yul\":5252:5304   */\n    tag_335:\n        /* \"#utility.yul\":5332:5341   */\n      dup2\n        /* \"#utility.yul\":5326:5342   */\n      mload\n        /* \"#utility.yul\":5351:5382   */\n      tag_229\n        /* \"#utility.yul\":5376:5381   */\n      dup2\n        /* \"#utility.yul\":5351:5382   */\n      tag_297\n      jump\t// in\n        /* \"#utility.yul\":6899:7027   */\n    tag_243:\n        /* \"#utility.yul\":6966:6975   */\n      dup2\n      dup2\n      sub\n        /* \"#utility.yul\":6987:6998   */\n      dup2\n      dup2\n      gt\n        /* \"#utility.yul\":6984:7021   */\n      iszero\n      tag_247\n      jumpi\n        /* \"#utility.yul\":7001:7019   */\n      tag_247\n      tag_298\n      jump\t// in\n        /* \"#utility.yul\":7032:7200   */\n    tag_245:\n        /* \"#utility.yul\":7105:7114   */\n      dup1\n      dup3\n      mul\n        /* \"#utility.yul\":7136:7145   */\n      dup2\n      iszero\n        /* \"#utility.yul\":7153:7168   */\n      dup3\n      dup3\n      div\n        /* \"#utility.yul\":7147:7169   */\n      dup5\n      eq\n        /* \"#utility.yul\":7133:7170   */\n      or\n        /* \"#utility.yul\":7123:7194   */\n      tag_247\n      jumpi\n        /* \"#utility.yul\":7174:7192   */\n      tag_247\n      tag_298\n      jump\t// in\n        /* \"#utility.yul\":7205:7422   */\n    tag_248:\n        /* \"#utility.yul\":7245:7246   */\n      0x00\n        /* \"#utility.yul\":7271:7272   */\n      dup3\n        /* \"#utility.yul\":7261:7393   */\n      tag_348\n      jumpi\n        /* \"#utility.yul\":7315:7325   */\n      0x4e487b71\n        /* \"#utility.yul\":7310:7313   */\n      0xe0\n        /* \"#utility.yul\":7306:7326   */\n      shl\n        /* \"#utility.yul\":7303:7304   */\n      0x00\n        /* \"#utility.yul\":7296:7327   */\n      mstore\n        /* \"#utility.yul\":7350:7354   */\n      0x12\n        /* \"#utility.yul\":7347:7348   */\n      0x04\n        /* \"#utility.yul\":7340:7355   */\n      mstore\n        /* \"#utility.yul\":7378:7382   */\n      0x24\n        /* \"#utility.yul\":7375:7376   */\n      0x00\n        /* \"#utility.yul\":7368:7383   */\n      revert\n        /* \"#utility.yul\":7261:7393   */\n    tag_348:\n      pop\n        /* \"#utility.yul\":7407:7416   */\n      div\n      swap1\n        /* \"#utility.yul\":7205:7422   */\n      jump\t// out\n        /* \"#utility.yul\":7729:8006   */\n    tag_262:\n        /* \"#utility.yul\":7796:7802   */\n      0x00\n        /* \"#utility.yul\":7849:7851   */\n      0x20\n        /* \"#utility.yul\":7837:7846   */\n      dup3\n        /* \"#utility.yul\":7828:7835   */\n      dup5\n        /* \"#utility.yul\":7824:7847   */\n      sub\n        /* \"#utility.yul\":7820:7852   */\n      slt\n        /* \"#utility.yul\":7817:7869   */\n      iszero\n      tag_351\n      jumpi\n        /* \"#utility.yul\":7865:7866   */\n      0x00\n        /* \"#utility.yul\":7862:7863   */\n      dup1\n        /* \"#utility.yul\":7855:7867   */\n      revert\n        /* \"#utility.yul\":7817:7869   */\n    tag_351:\n        /* \"#utility.yul\":7897:7906   */\n      dup2\n        /* \"#utility.yul\":7891:7907   */\n      mload\n        /* \"#utility.yul\":7950:7955   */\n      dup1\n        /* \"#utility.yul\":7943:7956   */\n      iszero\n        /* \"#utility.yul\":7936:7957   */\n      iszero\n        /* \"#utility.yul\":7929:7934   */\n      dup2\n        /* \"#utility.yul\":7926:7958   */\n      eq\n        /* \"#utility.yul\":7916:7976   */\n      tag_229\n      jumpi\n        /* \"#utility.yul\":7972:7973   */\n      0x00\n        /* \"#utility.yul\":7969:7970   */\n      dup1\n        /* \"#utility.yul\":7962:7974   */\n      revert\n        /* \"#utility.yul\":8829:9079   */\n    tag_299:\n        /* \"#utility.yul\":8914:8915   */\n      0x00\n        /* \"#utility.yul\":8924:9037   */\n    tag_356:\n        /* \"#utility.yul\":8938:8944   */\n      dup4\n        /* \"#utility.yul\":8935:8936   */\n      dup2\n        /* \"#utility.yul\":8932:8945   */\n      lt\n        /* \"#utility.yul\":8924:9037   */\n      iszero\n      tag_358\n      jumpi\n        /* \"#utility.yul\":9014:9025   */\n      dup2\n      dup2\n      add\n        /* \"#utility.yul\":9008:9026   */\n      mload\n        /* \"#utility.yul\":8995:9006   */\n      dup4\n      dup3\n      add\n        /* \"#utility.yul\":8988:9027   */\n      mstore\n        /* \"#utility.yul\":8960:8962   */\n      0x20\n        /* \"#utility.yul\":8953:8963   */\n      add\n        /* \"#utility.yul\":8924:9037   */\n      jump(tag_356)\n    tag_358:\n      pop\n      pop\n        /* \"#utility.yul\":9071:9072   */\n      0x00\n        /* \"#utility.yul\":9053:9069   */\n      swap2\n      add\n        /* \"#utility.yul\":9046:9073   */\n      mstore\n        /* \"#utility.yul\":8829:9079   */\n      jump\t// out\n        /* \"#utility.yul\":9084:9371   */\n    tag_274:\n        /* \"#utility.yul\":9213:9216   */\n      0x00\n        /* \"#utility.yul\":9251:9257   */\n      dup3\n        /* \"#utility.yul\":9245:9258   */\n      mload\n        /* \"#utility.yul\":9267:9333   */\n      tag_360\n        /* \"#utility.yul\":9326:9332   */\n      dup2\n        /* \"#utility.yul\":9321:9324   */\n      dup5\n        /* \"#utility.yul\":9314:9318   */\n      0x20\n        /* \"#utility.yul\":9306:9312   */\n      dup8\n        /* \"#utility.yul\":9302:9319   */\n      add\n        /* \"#utility.yul\":9267:9333   */\n      tag_299\n      jump\t// in\n    tag_360:\n        /* \"#utility.yul\":9349:9365   */\n      swap2\n      swap1\n      swap2\n      add\n      swap3\n        /* \"#utility.yul\":9084:9371   */\n      swap2\n      pop\n      pop\n      jump\t// out\n        /* \"#utility.yul\":9734:10130   */\n    tag_296:\n        /* \"#utility.yul\":9883:9885   */\n      0x20\n        /* \"#utility.yul\":9872:9881   */\n      dup2\n        /* \"#utility.yul\":9865:9886   */\n      mstore\n        /* \"#utility.yul\":9846:9850   */\n      0x00\n        /* \"#utility.yul\":9915:9921   */\n      dup3\n        /* \"#utility.yul\":9909:9922   */\n      mload\n        /* \"#utility.yul\":9958:9964   */\n      dup1\n        /* \"#utility.yul\":9953:9955   */\n      0x20\n        /* \"#utility.yul\":9942:9951   */\n      dup5\n        /* \"#utility.yul\":9938:9956   */\n      add\n        /* \"#utility.yul\":9931:9965   */\n      mstore\n        /* \"#utility.yul\":9974:10053   */\n      tag_363\n        /* \"#utility.yul\":10046:10052   */\n      dup2\n        /* \"#utility.yul\":10041:10043   */\n      0x40\n        /* \"#utility.yul\":10030:10039   */\n      dup6\n        /* \"#utility.yul\":10026:10044   */\n      add\n        /* \"#utility.yul\":10021:10023   */\n      0x20\n        /* \"#utility.yul\":10013:10019   */\n      dup8\n        /* \"#utility.yul\":10009:10024   */\n      add\n        /* \"#utility.yul\":9974:10053   */\n      tag_299\n      jump\t// in\n    tag_363:\n        /* \"#utility.yul\":10114:10116   */\n      0x1f\n        /* \"#utility.yul\":10093:10108   */\n      add\n      not(0x1f)\n        /* \"#utility.yul\":10089:10118   */\n      and\n        /* \"#utility.yul\":10074:10119   */\n      swap2\n      swap1\n      swap2\n      add\n        /* \"#utility.yul\":10121:10123   */\n      0x40\n        /* \"#utility.yul\":10070:10124   */\n      add\n      swap3\n        /* \"#utility.yul\":9734:10130   */\n      swap2\n      pop\n      pop\n      jump\t// out\n\n    auxdata: 0xa2646970667358221220f53b28b50ddcff703547a341335ba4c63bb1bddedd341ad45c14db2cb21eac3864736f6c63430008110033\n}\n",
    "bytecode": {
      "linkReferences": {},
      "object": "60c0604052620186a06003553480156200001857600080fd5b50604051620015de380380620015de8339810160408190526200003b91620000d4565b60016000556200004b3362000069565b6001600160a01b0391821660a052166080526103e860025562000113565b600180546001600160a01b038381166001600160a01b0319831681179093556040519116919082907f8be0079c531659141344cd1fd0a4f28419497f9722a3daafe3b4186f6b6457e090600090a35050565b6001600160a01b0381168114620000d157600080fd5b50565b60008060408385031215620000e857600080fd5b8251620000f581620000bb565b60208401519092506200010881620000bb565b809150509250929050565b60805160a05161148962000155600039600081816101940152818161068101528181610a4e0152610b310152600081816102e0015261079b01526114896000f3fe6080604052600436106100f35760003560e01c80639168ae721161008a578063d1af0c7d11610059578063d1af0c7d146102ce578063dd19171914610302578063f2fde38b1461030a578063f854a27f1461032a57600080fd5b80639168ae72146102015780639406704514610258578063a694fc3a1461028e578063b768d7f5146102ae57600080fd5b806363c28db1116100c657806363c28db11461014c5780636588103b14610182578063715018a6146101ce5780638da5cb5b146101e357600080fd5b80631829b46c146100f85780632e1a7d4d1461010d578063372500ab1461012d5780635036e63b14610142575b600080fd5b61010b61010636600461122d565b610358565b005b34801561011957600080fd5b5061010b61012836600461122d565b610410565b34801561013957600080fd5b5061010b610702565b61010b6064600255565b34801561015857600080fd5b5061016c61016736600461125b565b6107ca565b6040516101799190611278565b60405180910390f35b34801561018e57600080fd5b506101b67f000000000000000000000000000000000000000000000000000000000000000081565b6040516001600160a01b039091168152602001610179565b3480156101da57600080fd5b5061010b6109c4565b3480156101ef57600080fd5b506001546001600160a01b03166101b6565b34801561020d57600080fd5b5061023d61021c36600461125b565b60046020526000908152604090208054600282015460039092015490919083565b60408051938452602084019290925290820152606001610179565b34801561026457600080fd5b506101b661027336600461122d565b6005602052600090815260409020546001600160a01b031681565b34801561029a57600080fd5b5061010b6102a936600461122d565b6109d8565b3480156102ba57600080fd5b5061010b6102c936600461122d565b610c4e565b3480156102da57600080fd5b506101b67f000000000000000000000000000000000000000000000000000000000000000081565b61010b610c5b565b34801561031657600080fd5b5061010b61032536600461125b565b610d0a565b34801561033657600080fd5b5061034a61034536600461125b565b610d97565b604051908152602001610179565b610360610dcf565b60006103746001546001600160a01b031690565b6001600160a01b03168260405160006040518083038185875af1925050503d80600081146103be576040519150601f19603f3d011682016040523d82523d6000602084013e6103c3565b606091505b505090508061040c5760405162461bcd60e51b815260206004820152601060248201526f5472616e73666572206661696c65642160801b60448201526064015b60405180910390fd5b5050565b610418610e29565b336000908152600460205260409020546104745760405162461bcd60e51b815260206004820152601960248201527f596f752068617665206e6f20746f6b656e73207374616b6564000000000000006044820152606401610403565b336000908152600460205260409020546104d05760405162461bcd60e51b815260206004820152601960248201527f596f752068617665206e6f20746f6b656e73207374616b6564000000000000006044820152606401610403565b60006104db33610e82565b336000908152600460205260408120600301805492935083929091906105029084906112e6565b9091555060009050805b336000908152600460205260409020600101548110156105c75733600090815260046020526040902060010180548591908390811061054d5761054d6112f9565b9060005260206000209060020201600101541480156105a8575033600090815260046020526040812060010180548390811061058b5761058b6112f9565b60009182526020909120600290910201546001600160a01b031614155b156105b5578091506105c7565b806105bf8161130f565b91505061050c565b503360009081526004602052604081206001018054839081106105ec576105ec6112f9565b6000918252602080832060029290920290910180546001600160a01b0319166001600160a01b03949094169390931790925533815260049091526040812080549161063683611328565b90915550506000838152600560205260409081902080546001600160a01b0319169055516323b872dd60e01b8152306004820152336024820152604481018490526001600160a01b037f000000000000000000000000000000000000000000000000000000000000000016906323b872dd90606401600060405180830381600087803b1580156106c557600080fd5b505af11580156106d9573d6000803e3d6000fd5b505033600090815260046020526040902042600290910155506106ff9250610edc915050565b50565b33600081815260046020526040812060030154909161072090610e82565b61072a91906112e6565b90506000811161077c5760405162461bcd60e51b815260206004820152601c60248201527f596f752068617665206e6f207265776172647320746f20636c61696d000000006044820152606401610403565b336000818152600460205260408120426002820155600301556106ff907f00000000000000000000000000000000000000000000000000000000000000006001600160a01b03169083610ee3565b6001600160a01b03811660009081526004602052604090205460609015610980576001600160a01b03821660009081526004602052604081205467ffffffffffffffff81111561081c5761081c61133f565b60405190808252806020026020018201604052801561086157816020015b604080518082019091526000808252602082015281526020019060019003908161083a5790505b5090506000805b6001600160a01b038516600090815260046020526040902060010154811015610977576001600160a01b03851660009081526004602052604081206001018054839081106108b8576108b86112f9565b60009182526020909120600290910201546001600160a01b031614610965576001600160a01b0385166000908152600460205260409020600101805482908110610904576109046112f9565b60009182526020918290206040805180820190915260029092020180546001600160a01b031682526001015491810191909152835184908490811061094b5761094b6112f9565b602002602001018190525081806109619061130f565b9250505b8061096f8161130f565b915050610868565b50909392505050565b60408051600080825260208201909252906109bd565b60408051808201909152600080825260208201528152602001906001900390816109965790505b5092915050565b6109cc610dcf565b6109d66000610f4f565b565b6109e0610e29565b3360009081526004602052604090205415610a2e576000610a0033610e82565b33600090815260046020526040812060030180549293508392909190610a279084906112e6565b9091555050505b6040516331a9108f60e11b81526004810182905233906001600160a01b037f00000000000000000000000000000000000000000000000000000000000000001690636352211e90602401602060405180830381865afa158015610a95573d6000803e3d6000fd5b505050506040513d601f19601f82011682018060405250810190610ab99190611355565b6001600160a01b031614610b0f5760405162461bcd60e51b815260206004820152601960248201527f596f7520646f6e2774206f776e207468697320746f6b656e21000000000000006044820152606401610403565b6040516323b872dd60e01b8152336004820152306024820152604481018290527f00000000000000000000000000000000000000000000000000000000000000006001600160a01b0316906323b872dd90606401600060405180830381600087803b158015610b7d57600080fd5b505af1158015610b91573d6000803e3d6000fd5b5050604080518082018252338082526020808301878152600083815260048352948520600180820180548083018255908852938720865160029095020180546001600160a01b0319166001600160a01b0390951694909417845591519290910191909155908352805491945090925090610c0a8361130f565b909155505050600081815260056020908152604080832080546001600160a01b03191633908117909155835260049091529020426002909101556106ff6001600055565b610c56610dcf565b600355565b610c63610dcf565b6000610c776001546001600160a01b031690565b6001600160a01b03164760405160006040518083038185875af1925050503d8060008114610cc1576040519150601f19603f3d011682016040523d82523d6000602084013e610cc6565b606091505b50509050806106ff5760405162461bcd60e51b815260206004820152601060248201526f5472616e73666572206661696c65642160801b6044820152606401610403565b610d12610dcf565b6001600160a01b038116610d8e5760405162461bcd60e51b815260206004820152602660248201527f4f776e61626c653a206e6577206f776e657220697320746865207a65726f206160448201527f64647265737300000000000000000000000000000000000000000000000000006064820152608401610403565b6106ff81610f4f565b6001600160a01b0381166000908152600460205260408120600301548190610dbe84610e82565b610dc891906112e6565b9392505050565b6001546001600160a01b031633146109d65760405162461bcd60e51b815260206004820181905260248201527f4f776e61626c653a2063616c6c6572206973206e6f7420746865206f776e65726044820152606401610403565b600260005403610e7b5760405162461bcd60e51b815260206004820152601f60248201527f5265656e7472616e637947756172643a207265656e7472616e742063616c6c006044820152606401610403565b6002600055565b6003546001600160a01b038216600090815260046020526040812080546002909101549192610e1092909190610eb89042611372565b610ec29190611385565b610ecc9190611385565b610ed6919061139c565b92915050565b6001600055565b604080516001600160a01b038416602482015260448082018490528251808303909101815260649091019091526020810180517bffffffffffffffffffffffffffffffffffffffffffffffffffffffff1663a9059cbb60e01b179052610f4a908490610fa1565b505050565b600180546001600160a01b038381166001600160a01b0319831681179093556040519116919082907f8be0079c531659141344cd1fd0a4f28419497f9722a3daafe3b4186f6b6457e090600090a35050565b6000610ff6826040518060400160405280602081526020017f5361666545524332303a206c6f772d6c6576656c2063616c6c206661696c6564815250856001600160a01b03166110869092919063ffffffff16565b805190915015610f4a578080602001905181019061101491906113be565b610f4a5760405162461bcd60e51b815260206004820152602a60248201527f5361666545524332303a204552433230206f7065726174696f6e20646964206e60448201527f6f742073756363656564000000000000000000000000000000000000000000006064820152608401610403565b6060611095848460008561109d565b949350505050565b6060824710156111155760405162461bcd60e51b815260206004820152602660248201527f416464726573733a20696e73756666696369656e742062616c616e636520666f60448201527f722063616c6c00000000000000000000000000000000000000000000000000006064820152608401610403565b600080866001600160a01b031685876040516111319190611404565b60006040518083038185875af1925050503d806000811461116e576040519150601f19603f3d011682016040523d82523d6000602084013e611173565b606091505b50915091506111848783838761118f565b979650505050505050565b606083156111fe5782516000036111f7576001600160a01b0385163b6111f75760405162461bcd60e51b815260206004820152601d60248201527f416464726573733a2063616c6c20746f206e6f6e2d636f6e74726163740000006044820152606401610403565b5081611095565b61109583838151156112135781518083602001fd5b8060405162461bcd60e51b81526004016104039190611420565b60006020828403121561123f57600080fd5b5035919050565b6001600160a01b03811681146106ff57600080fd5b60006020828403121561126d57600080fd5b8135610dc881611246565b602080825282518282018190526000919060409081850190868401855b828110156112c357815180516001600160a01b03168552860151868501529284019290850190600101611295565b5091979650505050505050565b634e487b7160e01b600052601160045260246000fd5b80820180821115610ed657610ed66112d0565b634e487b7160e01b600052603260045260246000fd5b600060018201611321576113216112d0565b5060010190565b600081611337576113376112d0565b506000190190565b634e487b7160e01b600052604160045260246000fd5b60006020828403121561136757600080fd5b8151610dc881611246565b81810381811115610ed657610ed66112d0565b8082028115828204841417610ed657610ed66112d0565b6000826113b957634e487b7160e01b600052601260045260246000fd5b500490565b6000602082840312156113d057600080fd5b81518015158114610dc857600080fd5b60005b838110156113fb5781810151838201526020016113e3565b50506000910152565b600082516114168184602087016113e0565b9190910192915050565b602081526000825180602084015261143f8160408501602087016113e0565b601f01601f1916919091016040019291505056fea2646970667358221220f53b28b50ddcff703547a341335ba4c63bb1bddedd341ad45c14db2cb21eac3864736f6c63430008110033",
      "opcodes": "PUSH1 0xC0 PUSH1 0x40 MSTORE PUSH3 0x186A0 PUSH1 0x3 SSTORE CALLVALUE DUP1 ISZERO PUSH3 0x18 JUMPI PUSH1 0x0 DUP1 REVERT JUMPDEST POP PUSH1 0x40 MLOAD PUSH3 0x15DE CODESIZE SUB DUP1 PUSH3 0x15DE DUP4 CODECOPY DUP2 ADD PUSH1 0x40 DUP2 SWAP1 MSTORE PUSH3 0x3B SWAP2 PUSH3 0xD4 JUMP JUMPDEST PUSH1 0x1 PUSH1 0x0 SSTORE PUSH3 0x4B CALLER PUSH3 0x69 JUMP JUMPDEST PUSH1 0x1 PUSH1 0x1 PUSH1 0xA0 SHL SUB SWAP2 DUP3 AND PUSH1 0xA0 MSTORE AND PUSH1 0x80 MSTORE PUSH2 0x3E8 PUSH1 0x2 SSTORE PUSH3 0x113 JUMP JUMPDEST PUSH1 0x1 DUP1 SLOAD PUSH1 0x1 PUSH1 0x1 PUSH1 0xA0 SHL SUB DUP4 DUP2 AND PUSH1 0x1 PUSH1 0x1 PUSH1 0xA0 SHL SUB NOT DUP4 AND DUP2 OR SWAP1 SWAP4 SSTORE PUSH1 0x40 MLOAD SWAP2 AND SWAP2 SWAP1 DUP3 SWAP1 PUSH32 0x8BE0079C531659141344CD1FD0A4F28419497F9722A3DAAFE3B4186F6B6457E0 SWAP1 PUSH1 0x0 SWAP1 LOG3 POP POP JUMP JUMPDEST PUSH1 0x1 PUSH1 0x1 PUSH1 0xA0 SHL SUB DUP2 AND DUP2 EQ PUSH3 0xD1 JUMPI PUSH1 0x0 DUP1 REVERT JUMPDEST POP JUMP JUMPDEST PUSH1 0x0 DUP1 PUSH1 0x40 DUP4 DUP6 SUB SLT ISZERO PUSH3 0xE8 JUMPI PUSH1 0x0 DUP1 REVERT JUMPDEST DUP3 MLOAD PUSH3 0xF5 DUP2 PUSH3 0xBB JUMP JUMPDEST PUSH1 0x20 DUP5 ADD MLOAD SWAP1 SWAP3 POP PUSH3 0x108 DUP2 PUSH3 0xBB JUMP JUMPDEST DUP1 SWAP2 POP POP SWAP3 POP SWAP3 SWAP1 POP JUMP JUMPDEST PUSH1 0x80 MLOAD PUSH1 0xA0 MLOAD PUSH2 0x1489 PUSH3 0x155 PUSH1 0x0 CODECOPY PUSH1 0x0 DUP2 DUP2 PUSH2 0x194 ADD MSTORE DUP2 DUP2 PUSH2 0x681 ADD MSTORE DUP2 DUP2 PUSH2 0xA4E ADD MSTORE PUSH2 0xB31 ADD MSTORE PUSH1 0x0 DUP2 DUP2 PUSH2 0x2E0 ADD MSTORE PUSH2 0x79B ADD MSTORE PUSH2 0x1489 PUSH1 0x0 RETURN INVALID PUSH1 0x80 PUSH1 0x40 MSTORE PUSH1 0x4 CALLDATASIZE LT PUSH2 0xF3 JUMPI PUSH1 0x0 CALLDATALOAD PUSH1 0xE0 SHR DUP1 PUSH4 0x9168AE72 GT PUSH2 0x8A JUMPI DUP1 PUSH4 0xD1AF0C7D GT PUSH2 0x59 JUMPI DUP1 PUSH4 0xD1AF0C7D EQ PUSH2 0x2CE JUMPI DUP1 PUSH4 0xDD191719 EQ PUSH2 0x302 JUMPI DUP1 PUSH4 0xF2FDE38B EQ PUSH2 0x30A JUMPI DUP1 PUSH4 0xF854A27F EQ PUSH2 0x32A JUMPI PUSH1 0x0 DUP1 REVERT JUMPDEST DUP1 PUSH4 0x9168AE72 EQ PUSH2 0x201 JUMPI DUP1 PUSH4 0x94067045 EQ PUSH2 0x258 JUMPI DUP1 PUSH4 0xA694FC3A EQ PUSH2 0x28E JUMPI DUP1 PUSH4 0xB768D7F5 EQ PUSH2 0x2AE JUMPI PUSH1 0x0 DUP1 REVERT JUMPDEST DUP1 PUSH4 0x63C28DB1 GT PUSH2 0xC6 JUMPI DUP1 PUSH4 0x63C28DB1 EQ PUSH2 0x14C JUMPI DUP1 PUSH4 0x6588103B EQ PUSH2 0x182 JUMPI DUP1 PUSH4 0x715018A6 EQ PUSH2 0x1CE JUMPI DUP1 PUSH4 0x8DA5CB5B EQ PUSH2 0x1E3 JUMPI PUSH1 0x0 DUP1 REVERT JUMPDEST DUP1 PUSH4 0x1829B46C EQ PUSH2 0xF8 JUMPI DUP1 PUSH4 0x2E1A7D4D EQ PUSH2 0x10D JUMPI DUP1 PUSH4 0x372500AB EQ PUSH2 0x12D JUMPI DUP1 PUSH4 0x5036E63B EQ PUSH2 0x142 JUMPI JUMPDEST PUSH1 0x0 DUP1 REVERT JUMPDEST PUSH2 0x10B PUSH2 0x106 CALLDATASIZE PUSH1 0x4 PUSH2 0x122D JUMP JUMPDEST PUSH2 0x358 JUMP JUMPDEST STOP JUMPDEST CALLVALUE DUP1 ISZERO PUSH2 0x119 JUMPI PUSH1 0x0 DUP1 REVERT JUMPDEST POP PUSH2 0x10B PUSH2 0x128 CALLDATASIZE PUSH1 0x4 PUSH2 0x122D JUMP JUMPDEST PUSH2 0x410 JUMP JUMPDEST CALLVALUE DUP1 ISZERO PUSH2 0x139 JUMPI PUSH1 0x0 DUP1 REVERT JUMPDEST POP PUSH2 0x10B PUSH2 0x702 JUMP JUMPDEST PUSH2 0x10B PUSH1 0x64 PUSH1 0x2 SSTORE JUMP JUMPDEST CALLVALUE DUP1 ISZERO PUSH2 0x158 JUMPI PUSH1 0x0 DUP1 REVERT JUMPDEST POP PUSH2 0x16C PUSH2 0x167 CALLDATASIZE PUSH1 0x4 PUSH2 0x125B JUMP JUMPDEST PUSH2 0x7CA JUMP JUMPDEST PUSH1 0x40 MLOAD PUSH2 0x179 SWAP2 SWAP1 PUSH2 0x1278 JUMP JUMPDEST PUSH1 0x40 MLOAD DUP1 SWAP2 SUB SWAP1 RETURN JUMPDEST CALLVALUE DUP1 ISZERO PUSH2 0x18E JUMPI PUSH1 0x0 DUP1 REVERT JUMPDEST POP PUSH2 0x1B6 PUSH32 0x0 DUP2 JUMP JUMPDEST PUSH1 0x40 MLOAD PUSH1 0x1 PUSH1 0x1 PUSH1 0xA0 SHL SUB SWAP1 SWAP2 AND DUP2 MSTORE PUSH1 0x20 ADD PUSH2 0x179 JUMP JUMPDEST CALLVALUE DUP1 ISZERO PUSH2 0x1DA JUMPI PUSH1 0x0 DUP1 REVERT JUMPDEST POP PUSH2 0x10B PUSH2 0x9C4 JUMP JUMPDEST CALLVALUE DUP1 ISZERO PUSH2 0x1EF JUMPI PUSH1 0x0 DUP1 REVERT JUMPDEST POP PUSH1 0x1 SLOAD PUSH1 0x1 PUSH1 0x1 PUSH1 0xA0 SHL SUB AND PUSH2 0x1B6 JUMP JUMPDEST CALLVALUE DUP1 ISZERO PUSH2 0x20D JUMPI PUSH1 0x0 DUP1 REVERT JUMPDEST POP PUSH2 0x23D PUSH2 0x21C CALLDATASIZE PUSH1 0x4 PUSH2 0x125B JUMP JUMPDEST PUSH1 0x4 PUSH1 0x20 MSTORE PUSH1 0x0 SWAP1 DUP2 MSTORE PUSH1 0x40 SWAP1 KECCAK256 DUP1 SLOAD PUSH1 0x2 DUP3 ADD SLOAD PUSH1 0x3 SWAP1 SWAP3 ADD SLOAD SWAP1 SWAP2 SWAP1 DUP4 JUMP JUMPDEST PUSH1 0x40 DUP1 MLOAD SWAP4 DUP5 MSTORE PUSH1 0x20 DUP5 ADD SWAP3 SWAP1 SWAP3 MSTORE SWAP1 DUP3 ADD MSTORE PUSH1 0x60 ADD PUSH2 0x179 JUMP JUMPDEST CALLVALUE DUP1 ISZERO PUSH2 0x264 JUMPI PUSH1 0x0 DUP1 REVERT JUMPDEST POP PUSH2 0x1B6 PUSH2 0x273 CALLDATASIZE PUSH1 0x4 PUSH2 0x122D JUMP JUMPDEST PUSH1 0x5 PUSH1 0x20 MSTORE PUSH1 0x0 SWAP1 DUP2 MSTORE PUSH1 0x40 SWAP1 KECCAK256 SLOAD PUSH1 0x1 PUSH1 0x1 PUSH1 0xA0 SHL SUB AND DUP2 JUMP JUMPDEST CALLVALUE DUP1 ISZERO PUSH2 0x29A JUMPI PUSH1 0x0 DUP1 REVERT JUMPDEST POP PUSH2 0x10B PUSH2 0x2A9 CALLDATASIZE PUSH1 0x4 PUSH2 0x122D JUMP JUMPDEST PUSH2 0x9D8 JUMP JUMPDEST CALLVALUE DUP1 ISZERO PUSH2 0x2BA JUMPI PUSH1 0x0 DUP1 REVERT JUMPDEST POP PUSH2 0x10B PUSH2 0x2C9 CALLDATASIZE PUSH1 0x4 PUSH2 0x122D JUMP JUMPDEST PUSH2 0xC4E JUMP JUMPDEST CALLVALUE DUP1 ISZERO PUSH2 0x2DA JUMPI PUSH1 0x0 DUP1 REVERT JUMPDEST POP PUSH2 0x1B6 PUSH32 0x0 DUP2 JUMP JUMPDEST PUSH2 0x10B PUSH2 0xC5B JUMP JUMPDEST CALLVALUE DUP1 ISZERO PUSH2 0x316 JUMPI PUSH1 0x0 DUP1 REVERT JUMPDEST POP PUSH2 0x10B PUSH2 0x325 CALLDATASIZE PUSH1 0x4 PUSH2 0x125B JUMP JUMPDEST PUSH2 0xD0A JUMP JUMPDEST CALLVALUE DUP1 ISZERO PUSH2 0x336 JUMPI PUSH1 0x0 DUP1 REVERT JUMPDEST POP PUSH2 0x34A PUSH2 0x345 CALLDATASIZE PUSH1 0x4 PUSH2 0x125B JUMP JUMPDEST PUSH2 0xD97 JUMP JUMPDEST PUSH1 0x40 MLOAD SWAP1 DUP2 MSTORE PUSH1 0x20 ADD PUSH2 0x179 JUMP JUMPDEST PUSH2 0x360 PUSH2 0xDCF JUMP JUMPDEST PUSH1 0x0 PUSH2 0x374 PUSH1 0x1 SLOAD PUSH1 0x1 PUSH1 0x1 PUSH1 0xA0 SHL SUB AND SWAP1 JUMP JUMPDEST PUSH1 0x1 PUSH1 0x1 PUSH1 0xA0 SHL SUB AND DUP3 PUSH1 0x40 MLOAD PUSH1 0x0 PUSH1 0x40 MLOAD DUP1 DUP4 SUB DUP2 DUP6 DUP8 GAS CALL SWAP3 POP POP POP RETURNDATASIZE DUP1 PUSH1 0x0 DUP2 EQ PUSH2 0x3BE JUMPI PUSH1 0x40 MLOAD SWAP2 POP PUSH1 0x1F NOT PUSH1 0x3F RETURNDATASIZE ADD AND DUP3 ADD PUSH1 0x40 MSTORE RETURNDATASIZE DUP3 MSTORE RETURNDATASIZE PUSH1 0x0 PUSH1 0x20 DUP5 ADD RETURNDATACOPY PUSH2 0x3C3 JUMP JUMPDEST PUSH1 0x60 SWAP2 POP JUMPDEST POP POP SWAP1 POP DUP1 PUSH2 0x40C JUMPI PUSH1 0x40 MLOAD PUSH3 0x461BCD PUSH1 0xE5 SHL DUP2 MSTORE PUSH1 0x20 PUSH1 0x4 DUP3 ADD MSTORE PUSH1 0x10 PUSH1 0x24 DUP3 ADD MSTORE PUSH16 0x5472616E73666572206661696C656421 PUSH1 0x80 SHL PUSH1 0x44 DUP3 ADD MSTORE PUSH1 0x64 ADD JUMPDEST PUSH1 0x40 MLOAD DUP1 SWAP2 SUB SWAP1 REVERT JUMPDEST POP POP JUMP JUMPDEST PUSH2 0x418 PUSH2 0xE29 JUMP JUMPDEST CALLER PUSH1 0x0 SWAP1 DUP2 MSTORE PUSH1 0x4 PUSH1 0x20 MSTORE PUSH1 0x40 SWAP1 KECCAK256 SLOAD PUSH2 0x474 JUMPI PUSH1 0x40 MLOAD PUSH3 0x461BCD PUSH1 0xE5 SHL DUP2 MSTORE PUSH1 0x20 PUSH1 0x4 DUP3 ADD MSTORE PUSH1 0x19 PUSH1 0x24 DUP3 ADD MSTORE PUSH32 0x596F752068617665206E6F20746F6B656E73207374616B656400000000000000 PUSH1 0x44 DUP3 ADD MSTORE PUSH1 0x64 ADD PUSH2 0x403 JUMP JUMPDEST CALLER PUSH1 0x0 SWAP1 DUP2 MSTORE PUSH1 0x4 PUSH1 0x20 MSTORE PUSH1 0x40 SWAP1 KECCAK256 SLOAD PUSH2 0x4D0 JUMPI PUSH1 0x40 MLOAD PUSH3 0x461BCD PUSH1 0xE5 SHL DUP2 MSTORE PUSH1 0x20 PUSH1 0x4 DUP3 ADD MSTORE PUSH1 0x19 PUSH1 0x24 DUP3 ADD MSTORE PUSH32 0x596F752068617665206E6F20746F6B656E73207374616B656400000000000000 PUSH1 0x44 DUP3 ADD MSTORE PUSH1 0x64 ADD PUSH2 0x403 JUMP JUMPDEST PUSH1 0x0 PUSH2 0x4DB CALLER PUSH2 0xE82 JUMP JUMPDEST CALLER PUSH1 0x0 SWAP1 DUP2 MSTORE PUSH1 0x4 PUSH1 0x20 MSTORE PUSH1 0x40 DUP2 KECCAK256 PUSH1 0x3 ADD DUP1 SLOAD SWAP3 SWAP4 POP DUP4 SWAP3 SWAP1 SWAP2 SWAP1 PUSH2 0x502 SWAP1 DUP5 SWAP1 PUSH2 0x12E6 JUMP JUMPDEST SWAP1 SWAP2 SSTORE POP PUSH1 0x0 SWAP1 POP DUP1 JUMPDEST CALLER PUSH1 0x0 SWAP1 DUP2 MSTORE PUSH1 0x4 PUSH1 0x20 MSTORE PUSH1 0x40 SWAP1 KECCAK256 PUSH1 0x1 ADD SLOAD DUP2 LT ISZERO PUSH2 0x5C7 JUMPI CALLER PUSH1 0x0 SWAP1 DUP2 MSTORE PUSH1 0x4 PUSH1 0x20 MSTORE PUSH1 0x40 SWAP1 KECCAK256 PUSH1 0x1 ADD DUP1 SLOAD DUP6 SWAP2 SWAP1 DUP4 SWAP1 DUP2 LT PUSH2 0x54D JUMPI PUSH2 0x54D PUSH2 0x12F9 JUMP JUMPDEST SWAP1 PUSH1 0x0 MSTORE PUSH1 0x20 PUSH1 0x0 KECCAK256 SWAP1 PUSH1 0x2 MUL ADD PUSH1 0x1 ADD SLOAD EQ DUP1 ISZERO PUSH2 0x5A8 JUMPI POP CALLER PUSH1 0x0 SWAP1 DUP2 MSTORE PUSH1 0x4 PUSH1 0x20 MSTORE PUSH1 0x40 DUP2 KECCAK256 PUSH1 0x1 ADD DUP1 SLOAD DUP4 SWAP1 DUP2 LT PUSH2 0x58B JUMPI PUSH2 0x58B PUSH2 0x12F9 JUMP JUMPDEST PUSH1 0x0 SWAP2 DUP3 MSTORE PUSH1 0x20 SWAP1 SWAP2 KECCAK256 PUSH1 0x2 SWAP1 SWAP2 MUL ADD SLOAD PUSH1 0x1 PUSH1 0x1 PUSH1 0xA0 SHL SUB AND EQ ISZERO JUMPDEST ISZERO PUSH2 0x5B5 JUMPI DUP1 SWAP2 POP PUSH2 0x5C7 JUMP JUMPDEST DUP1 PUSH2 0x5BF DUP2 PUSH2 0x130F JUMP JUMPDEST SWAP2 POP POP PUSH2 0x50C JUMP JUMPDEST POP CALLER PUSH1 0x0 SWAP1 DUP2 MSTORE PUSH1 0x4 PUSH1 0x20 MSTORE PUSH1 0x40 DUP2 KECCAK256 PUSH1 0x1 ADD DUP1 SLOAD DUP4 SWAP1 DUP2 LT PUSH2 0x5EC JUMPI PUSH2 0x5EC PUSH2 0x12F9 JUMP JUMPDEST PUSH1 0x0 SWAP2 DUP3 MSTORE PUSH1 0x20 DUP1 DUP4 KECCAK256 PUSH1 0x2 SWAP3 SWAP1 SWAP3 MUL SWAP1 SWAP2 ADD DUP1 SLOAD PUSH1 0x1 PUSH1 0x1 PUSH1 0xA0 SHL SUB NOT AND PUSH1 0x1 PUSH1 0x1 PUSH1 0xA0 SHL SUB SWAP5 SWAP1 SWAP5 AND SWAP4 SWAP1 SWAP4 OR SWAP1 SWAP3 SSTORE CALLER DUP2 MSTORE PUSH1 0x4 SWAP1 SWAP2 MSTORE PUSH1 0x40 DUP2 KECCAK256 DUP1 SLOAD SWAP2 PUSH2 0x636 DUP4 PUSH2 0x1328 JUMP JUMPDEST SWAP1 SWAP2 SSTORE POP POP PUSH1 0x0 DUP4 DUP2 MSTORE PUSH1 0x5 PUSH1 0x20 MSTORE PUSH1 0x40 SWAP1 DUP2 SWAP1 KECCAK256 DUP1 SLOAD PUSH1 0x1 PUSH1 0x1 PUSH1 0xA0 SHL SUB NOT AND SWAP1 SSTORE MLOAD PUSH4 0x23B872DD PUSH1 0xE0 SHL DUP2 MSTORE ADDRESS PUSH1 0x4 DUP3 ADD MSTORE CALLER PUSH1 0x24 DUP3 ADD MSTORE PUSH1 0x44 DUP2 ADD DUP5 SWAP1 MSTORE PUSH1 0x1 PUSH1 0x1 PUSH1 0xA0 SHL SUB PUSH32 0x0 AND SWAP1 PUSH4 0x23B872DD SWAP1 PUSH1 0x64 ADD PUSH1 0x0 PUSH1 0x40 MLOAD DUP1 DUP4 SUB DUP2 PUSH1 0x0 DUP8 DUP1 EXTCODESIZE ISZERO DUP1 ISZERO PUSH2 0x6C5 JUMPI PUSH1 0x0 DUP1 REVERT JUMPDEST POP GAS CALL ISZERO DUP1 ISZERO PUSH2 0x6D9 JUMPI RETURNDATASIZE PUSH1 0x0 DUP1 RETURNDATACOPY RETURNDATASIZE PUSH1 0x0 REVERT JUMPDEST POP POP CALLER PUSH1 0x0 SWAP1 DUP2 MSTORE PUSH1 0x4 PUSH1 0x20 MSTORE PUSH1 0x40 SWAP1 KECCAK256 TIMESTAMP PUSH1 0x2 SWAP1 SWAP2 ADD SSTORE POP PUSH2 0x6FF SWAP3 POP PUSH2 0xEDC SWAP2 POP POP JUMP JUMPDEST POP JUMP JUMPDEST CALLER PUSH1 0x0 DUP2 DUP2 MSTORE PUSH1 0x4 PUSH1 0x20 MSTORE PUSH1 0x40 DUP2 KECCAK256 PUSH1 0x3 ADD SLOAD SWAP1 SWAP2 PUSH2 0x720 SWAP1 PUSH2 0xE82 JUMP JUMPDEST PUSH2 0x72A SWAP2 SWAP1 PUSH2 0x12E6 JUMP JUMPDEST SWAP1 POP PUSH1 0x0 DUP2 GT PUSH2 0x77C JUMPI PUSH1 0x40 MLOAD PUSH3 0x461BCD PUSH1 0xE5 SHL DUP2 MSTORE PUSH1 0x20 PUSH1 0x4 DUP3 ADD MSTORE PUSH1 0x1C PUSH1 0x24 DUP3 ADD MSTORE PUSH32 0x596F752068617665206E6F207265776172647320746F20636C61696D00000000 PUSH1 0x44 DUP3 ADD MSTORE PUSH1 0x64 ADD PUSH2 0x403 JUMP JUMPDEST CALLER PUSH1 0x0 DUP2 DUP2 MSTORE PUSH1 0x4 PUSH1 0x20 MSTORE PUSH1 0x40 DUP2 KECCAK256 TIMESTAMP PUSH1 0x2 DUP3 ADD SSTORE PUSH1 0x3 ADD SSTORE PUSH2 0x6FF SWAP1 PUSH32 0x0 PUSH1 0x1 PUSH1 0x1 PUSH1 0xA0 SHL SUB AND SWAP1 DUP4 PUSH2 0xEE3 JUMP JUMPDEST PUSH1 0x1 PUSH1 0x1 PUSH1 0xA0 SHL SUB DUP2 AND PUSH1 0x0 SWAP1 DUP2 MSTORE PUSH1 0x4 PUSH1 0x20 MSTORE PUSH1 0x40 SWAP1 KECCAK256 SLOAD PUSH1 0x60 SWAP1 ISZERO PUSH2 0x980 JUMPI PUSH1 0x1 PUSH1 0x1 PUSH1 0xA0 SHL SUB DUP3 AND PUSH1 0x0 SWAP1 DUP2 MSTORE PUSH1 0x4 PUSH1 0x20 MSTORE PUSH1 0x40 DUP2 KECCAK256 SLOAD PUSH8 0xFFFFFFFFFFFFFFFF DUP2 GT ISZERO PUSH2 0x81C JUMPI PUSH2 0x81C PUSH2 0x133F JUMP JUMPDEST PUSH1 0x40 MLOAD SWAP1 DUP1 DUP3 MSTORE DUP1 PUSH1 0x20 MUL PUSH1 0x20 ADD DUP3 ADD PUSH1 0x40 MSTORE DUP1 ISZERO PUSH2 0x861 JUMPI DUP2 PUSH1 0x20 ADD JUMPDEST PUSH1 0x40 DUP1 MLOAD DUP1 DUP3 ADD SWAP1 SWAP2 MSTORE PUSH1 0x0 DUP1 DUP3 MSTORE PUSH1 0x20 DUP3 ADD MSTORE DUP2 MSTORE PUSH1 0x20 ADD SWAP1 PUSH1 0x1 SWAP1 SUB SWAP1 DUP2 PUSH2 0x83A JUMPI SWAP1 POP JUMPDEST POP SWAP1 POP PUSH1 0x0 DUP1 JUMPDEST PUSH1 0x1 PUSH1 0x1 PUSH1 0xA0 SHL SUB DUP6 AND PUSH1 0x0 SWAP1 DUP2 MSTORE PUSH1 0x4 PUSH1 0x20 MSTORE PUSH1 0x40 SWAP1 KECCAK256 PUSH1 0x1 ADD SLOAD DUP2 LT ISZERO PUSH2 0x977 JUMPI PUSH1 0x1 PUSH1 0x1 PUSH1 0xA0 SHL SUB DUP6 AND PUSH1 0x0 SWAP1 DUP2 MSTORE PUSH1 0x4 PUSH1 0x20 MSTORE PUSH1 0x40 DUP2 KECCAK256 PUSH1 0x1 ADD DUP1 SLOAD DUP4 SWAP1 DUP2 LT PUSH2 0x8B8 JUMPI PUSH2 0x8B8 PUSH2 0x12F9 JUMP JUMPDEST PUSH1 0x0 SWAP2 DUP3 MSTORE PUSH1 0x20 SWAP1 SWAP2 KECCAK256 PUSH1 0x2 SWAP1 SWAP2 MUL ADD SLOAD PUSH1 0x1 PUSH1 0x1 PUSH1 0xA0 SHL SUB AND EQ PUSH2 0x965 JUMPI PUSH1 0x1 PUSH1 0x1 PUSH1 0xA0 SHL SUB DUP6 AND PUSH1 0x0 SWAP1 DUP2 MSTORE PUSH1 0x4 PUSH1 0x20 MSTORE PUSH1 0x40 SWAP1 KECCAK256 PUSH1 0x1 ADD DUP1 SLOAD DUP3 SWAP1 DUP2 LT PUSH2 0x904 JUMPI PUSH2 0x904 PUSH2 0x12F9 JUMP JUMPDEST PUSH1 0x0 SWAP2 DUP3 MSTORE PUSH1 0x20 SWAP2 DUP3 SWAP1 KECCAK256 PUSH1 0x40 DUP1 MLOAD DUP1 DUP3 ADD SWAP1 SWAP2 MSTORE PUSH1 0x2 SWAP1 SWAP3 MUL ADD DUP1 SLOAD PUSH1 0x1 PUSH1 0x1 PUSH1 0xA0 SHL SUB AND DUP3 MSTORE PUSH1 0x1 ADD SLOAD SWAP2 DUP2 ADD SWAP2 SWAP1 SWAP2 MSTORE DUP4 MLOAD DUP5 SWAP1 DUP5 SWAP1 DUP2 LT PUSH2 0x94B JUMPI PUSH2 0x94B PUSH2 0x12F9 JUMP JUMPDEST PUSH1 0x20 MUL PUSH1 0x20 ADD ADD DUP2 SWAP1 MSTORE POP DUP2 DUP1 PUSH2 0x961 SWAP1 PUSH2 0x130F JUMP JUMPDEST SWAP3 POP POP JUMPDEST DUP1 PUSH2 0x96F DUP2 PUSH2 0x130F JUMP JUMPDEST SWAP2 POP POP PUSH2 0x868 JUMP JUMPDEST POP SWAP1 SWAP4 SWAP3 POP POP POP JUMP JUMPDEST PUSH1 0x40 DUP1 MLOAD PUSH1 0x0 DUP1 DUP3 MSTORE PUSH1 0x20 DUP3 ADD SWAP1 SWAP3 MSTORE SWAP1 PUSH2 0x9BD JUMP JUMPDEST PUSH1 0x40 DUP1 MLOAD DUP1 DUP3 ADD SWAP1 SWAP2 MSTORE PUSH1 0x0 DUP1 DUP3 MSTORE PUSH1 0x20 DUP3 ADD MSTORE DUP2 MSTORE PUSH1 0x20 ADD SWAP1 PUSH1 0x1 SWAP1 SUB SWAP1 DUP2 PUSH2 0x996 JUMPI SWAP1 POP JUMPDEST POP SWAP3 SWAP2 POP POP JUMP JUMPDEST PUSH2 0x9CC PUSH2 0xDCF JUMP JUMPDEST PUSH2 0x9D6 PUSH1 0x0 PUSH2 0xF4F JUMP JUMPDEST JUMP JUMPDEST PUSH2 0x9E0 PUSH2 0xE29 JUMP JUMPDEST CALLER PUSH1 0x0 SWAP1 DUP2 MSTORE PUSH1 0x4 PUSH1 0x20 MSTORE PUSH1 0x40 SWAP1 KECCAK256 SLOAD ISZERO PUSH2 0xA2E JUMPI PUSH1 0x0 PUSH2 0xA00 CALLER PUSH2 0xE82 JUMP JUMPDEST CALLER PUSH1 0x0 SWAP1 DUP2 MSTORE PUSH1 0x4 PUSH1 0x20 MSTORE PUSH1 0x40 DUP2 KECCAK256 PUSH1 0x3 ADD DUP1 SLOAD SWAP3 SWAP4 POP DUP4 SWAP3 SWAP1 SWAP2 SWAP1 PUSH2 0xA27 SWAP1 DUP5 SWAP1 PUSH2 0x12E6 JUMP JUMPDEST SWAP1 SWAP2 SSTORE POP POP POP JUMPDEST PUSH1 0x40 MLOAD PUSH4 0x31A9108F PUSH1 0xE1 SHL DUP2 MSTORE PUSH1 0x4 DUP2 ADD DUP3 SWAP1 MSTORE CALLER SWAP1 PUSH1 0x1 PUSH1 0x1 PUSH1 0xA0 SHL SUB PUSH32 0x0 AND SWAP1 PUSH4 0x6352211E SWAP1 PUSH1 0x24 ADD PUSH1 0x20 PUSH1 0x40 MLOAD DUP1 DUP4 SUB DUP2 DUP7 GAS STATICCALL ISZERO DUP1 ISZERO PUSH2 0xA95 JUMPI RETURNDATASIZE PUSH1 0x0 DUP1 RETURNDATACOPY RETURNDATASIZE PUSH1 0x0 REVERT JUMPDEST POP POP POP POP PUSH1 0x40 MLOAD RETURNDATASIZE PUSH1 0x1F NOT PUSH1 0x1F DUP3 ADD AND DUP3 ADD DUP1 PUSH1 0x40 MSTORE POP DUP2 ADD SWAP1 PUSH2 0xAB9 SWAP2 SWAP1 PUSH2 0x1355 JUMP JUMPDEST PUSH1 0x1 PUSH1 0x1 PUSH1 0xA0 SHL SUB AND EQ PUSH2 0xB0F JUMPI PUSH1 0x40 MLOAD PUSH3 0x461BCD PUSH1 0xE5 SHL DUP2 MSTORE PUSH1 0x20 PUSH1 0x4 DUP3 ADD MSTORE PUSH1 0x19 PUSH1 0x24 DUP3 ADD MSTORE PUSH32 0x596F7520646F6E2774206F776E207468697320746F6B656E2100000000000000 PUSH1 0x44 DUP3 ADD MSTORE PUSH1 0x64 ADD PUSH2 0x403 JUMP JUMPDEST PUSH1 0x40 MLOAD PUSH4 0x23B872DD PUSH1 0xE0 SHL DUP2 MSTORE CALLER PUSH1 0x4 DUP3 ADD MSTORE ADDRESS PUSH1 0x24 DUP3 ADD MSTORE PUSH1 0x44 DUP2 ADD DUP3 SWAP1 MSTORE PUSH32 0x0 PUSH1 0x1 PUSH1 0x1 PUSH1 0xA0 SHL SUB AND SWAP1 PUSH4 0x23B872DD SWAP1 PUSH1 0x64 ADD PUSH1 0x0 PUSH1 0x40 MLOAD DUP1 DUP4 SUB DUP2 PUSH1 0x0 DUP8 DUP1 EXTCODESIZE ISZERO DUP1 ISZERO PUSH2 0xB7D JUMPI PUSH1 0x0 DUP1 REVERT JUMPDEST POP GAS CALL ISZERO DUP1 ISZERO PUSH2 0xB91 JUMPI RETURNDATASIZE PUSH1 0x0 DUP1 RETURNDATACOPY RETURNDATASIZE PUSH1 0x0 REVERT JUMPDEST POP POP PUSH1 0x40 DUP1 MLOAD DUP1 DUP3 ADD DUP3 MSTORE CALLER DUP1 DUP3 MSTORE PUSH1 0x20 DUP1 DUP4 ADD DUP8 DUP2 MSTORE PUSH1 0x0 DUP4 DUP2 MSTORE PUSH1 0x4 DUP4 MSTORE SWAP5 DUP6 KECCAK256 PUSH1 0x1 DUP1 DUP3 ADD DUP1 SLOAD DUP1 DUP4 ADD DUP3 SSTORE SWAP1 DUP9 MSTORE SWAP4 DUP8 KECCAK256 DUP7 MLOAD PUSH1 0x2 SWAP1 SWAP6 MUL ADD DUP1 SLOAD PUSH1 0x1 PUSH1 0x1 PUSH1 0xA0 SHL SUB NOT AND PUSH1 0x1 PUSH1 0x1 PUSH1 0xA0 SHL SUB SWAP1 SWAP6 AND SWAP5 SWAP1 SWAP5 OR DUP5 SSTORE SWAP2 MLOAD SWAP3 SWAP1 SWAP2 ADD SWAP2 SWAP1 SWAP2 SSTORE SWAP1 DUP4 MSTORE DUP1 SLOAD SWAP2 SWAP5 POP SWAP1 SWAP3 POP SWAP1 PUSH2 0xC0A DUP4 PUSH2 0x130F JUMP JUMPDEST SWAP1 SWAP2 SSTORE POP POP POP PUSH1 0x0 DUP2 DUP2 MSTORE PUSH1 0x5 PUSH1 0x20 SWAP1 DUP2 MSTORE PUSH1 0x40 DUP1 DUP4 KECCAK256 DUP1 SLOAD PUSH1 0x1 PUSH1 0x1 PUSH1 0xA0 SHL SUB NOT AND CALLER SWAP1 DUP2 OR SWAP1 SWAP2 SSTORE DUP4 MSTORE PUSH1 0x4 SWAP1 SWAP2 MSTORE SWAP1 KECCAK256 TIMESTAMP PUSH1 0x2 SWAP1 SWAP2 ADD SSTORE PUSH2 0x6FF PUSH1 0x1 PUSH1 0x0 SSTORE JUMP JUMPDEST PUSH2 0xC56 PUSH2 0xDCF JUMP JUMPDEST PUSH1 0x3 SSTORE JUMP JUMPDEST PUSH2 0xC63 PUSH2 0xDCF JUMP JUMPDEST PUSH1 0x0 PUSH2 0xC77 PUSH1 0x1 SLOAD PUSH1 0x1 PUSH1 0x1 PUSH1 0xA0 SHL SUB AND SWAP1 JUMP JUMPDEST PUSH1 0x1 PUSH1 0x1 PUSH1 0xA0 SHL SUB AND SELFBALANCE PUSH1 0x40 MLOAD PUSH1 0x0 PUSH1 0x40 MLOAD DUP1 DUP4 SUB DUP2 DUP6 DUP8 GAS CALL SWAP3 POP POP POP RETURNDATASIZE DUP1 PUSH1 0x0 DUP2 EQ PUSH2 0xCC1 JUMPI PUSH1 0x40 MLOAD SWAP2 POP PUSH1 0x1F NOT PUSH1 0x3F RETURNDATASIZE ADD AND DUP3 ADD PUSH1 0x40 MSTORE RETURNDATASIZE DUP3 MSTORE RETURNDATASIZE PUSH1 0x0 PUSH1 0x20 DUP5 ADD RETURNDATACOPY PUSH2 0xCC6 JUMP JUMPDEST PUSH1 0x60 SWAP2 POP JUMPDEST POP POP SWAP1 POP DUP1 PUSH2 0x6FF JUMPI PUSH1 0x40 MLOAD PUSH3 0x461BCD PUSH1 0xE5 SHL DUP2 MSTORE PUSH1 0x20 PUSH1 0x4 DUP3 ADD MSTORE PUSH1 0x10 PUSH1 0x24 DUP3 ADD MSTORE PUSH16 0x5472616E73666572206661696C656421 PUSH1 0x80 SHL PUSH1 0x44 DUP3 ADD MSTORE PUSH1 0x64 ADD PUSH2 0x403 JUMP JUMPDEST PUSH2 0xD12 PUSH2 0xDCF JUMP JUMPDEST PUSH1 0x1 PUSH1 0x1 PUSH1 0xA0 SHL SUB DUP2 AND PUSH2 0xD8E JUMPI PUSH1 0x40 MLOAD PUSH3 0x461BCD PUSH1 0xE5 SHL DUP2 MSTORE PUSH1 0x20 PUSH1 0x4 DUP3 ADD MSTORE PUSH1 0x26 PUSH1 0x24 DUP3 ADD MSTORE PUSH32 0x4F776E61626C653A206E6577206F776E657220697320746865207A65726F2061 PUSH1 0x44 DUP3 ADD MSTORE PUSH32 0x6464726573730000000000000000000000000000000000000000000000000000 PUSH1 0x64 DUP3 ADD MSTORE PUSH1 0x84 ADD PUSH2 0x403 JUMP JUMPDEST PUSH2 0x6FF DUP2 PUSH2 0xF4F JUMP JUMPDEST PUSH1 0x1 PUSH1 0x1 PUSH1 0xA0 SHL SUB DUP2 AND PUSH1 0x0 SWAP1 DUP2 MSTORE PUSH1 0x4 PUSH1 0x20 MSTORE PUSH1 0x40 DUP2 KECCAK256 PUSH1 0x3 ADD SLOAD DUP2 SWAP1 PUSH2 0xDBE DUP5 PUSH2 0xE82 JUMP JUMPDEST PUSH2 0xDC8 SWAP2 SWAP1 PUSH2 0x12E6 JUMP JUMPDEST SWAP4 SWAP3 POP POP POP JUMP JUMPDEST PUSH1 0x1 SLOAD PUSH1 0x1 PUSH1 0x1 PUSH1 0xA0 SHL SUB AND CALLER EQ PUSH2 0x9D6 JUMPI PUSH1 0x40 MLOAD PUSH3 0x461BCD PUSH1 0xE5 SHL DUP2 MSTORE PUSH1 0x20 PUSH1 0x4 DUP3 ADD DUP2 SWAP1 MSTORE PUSH1 0x24 DUP3 ADD MSTORE PUSH32 0x4F776E61626C653A2063616C6C6572206973206E6F7420746865206F776E6572 PUSH1 0x44 DUP3 ADD MSTORE PUSH1 0x64 ADD PUSH2 0x403 JUMP JUMPDEST PUSH1 0x2 PUSH1 0x0 SLOAD SUB PUSH2 0xE7B JUMPI PUSH1 0x40 MLOAD PUSH3 0x461BCD PUSH1 0xE5 SHL DUP2 MSTORE PUSH1 0x20 PUSH1 0x4 DUP3 ADD MSTORE PUSH1 0x1F PUSH1 0x24 DUP3 ADD MSTORE PUSH32 0x5265656E7472616E637947756172643A207265656E7472616E742063616C6C00 PUSH1 0x44 DUP3 ADD MSTORE PUSH1 0x64 ADD PUSH2 0x403 JUMP JUMPDEST PUSH1 0x2 PUSH1 0x0 SSTORE JUMP JUMPDEST PUSH1 0x3 SLOAD PUSH1 0x1 PUSH1 0x1 PUSH1 0xA0 SHL SUB DUP3 AND PUSH1 0x0 SWAP1 DUP2 MSTORE PUSH1 0x4 PUSH1 0x20 MSTORE PUSH1 0x40 DUP2 KECCAK256 DUP1 SLOAD PUSH1 0x2 SWAP1 SWAP2 ADD SLOAD SWAP2 SWAP3 PUSH2 0xE10 SWAP3 SWAP1 SWAP2 SWAP1 PUSH2 0xEB8 SWAP1 TIMESTAMP PUSH2 0x1372 JUMP JUMPDEST PUSH2 0xEC2 SWAP2 SWAP1 PUSH2 0x1385 JUMP JUMPDEST PUSH2 0xECC SWAP2 SWAP1 PUSH2 0x1385 JUMP JUMPDEST PUSH2 0xED6 SWAP2 SWAP1 PUSH2 0x139C JUMP JUMPDEST SWAP3 SWAP2 POP POP JUMP JUMPDEST PUSH1 0x1 PUSH1 0x0 SSTORE JUMP JUMPDEST PUSH1 0x40 DUP1 MLOAD PUSH1 0x1 PUSH1 0x1 PUSH1 0xA0 SHL SUB DUP5 AND PUSH1 0x24 DUP3 ADD MSTORE PUSH1 0x44 DUP1 DUP3 ADD DUP5 SWAP1 MSTORE DUP3 MLOAD DUP1 DUP4 SUB SWAP1 SWAP2 ADD DUP2 MSTORE PUSH1 0x64 SWAP1 SWAP2 ADD SWAP1 SWAP2 MSTORE PUSH1 0x20 DUP2 ADD DUP1 MLOAD PUSH28 0xFFFFFFFFFFFFFFFFFFFFFFFFFFFFFFFFFFFFFFFFFFFFFFFFFFFFFFFF AND PUSH4 0xA9059CBB PUSH1 0xE0 SHL OR SWAP1 MSTORE PUSH2 0xF4A SWAP1 DUP5 SWAP1 PUSH2 0xFA1 JUMP JUMPDEST POP POP POP JUMP JUMPDEST PUSH1 0x1 DUP1 SLOAD PUSH1 0x1 PUSH1 0x1 PUSH1 0xA0 SHL SUB DUP4 DUP2 AND PUSH1 0x1 PUSH1 0x1 PUSH1 0xA0 SHL SUB NOT DUP4 AND DUP2 OR SWAP1 SWAP4 SSTORE PUSH1 0x40 MLOAD SWAP2 AND SWAP2 SWAP1 DUP3 SWAP1 PUSH32 0x8BE0079C531659141344CD1FD0A4F28419497F9722A3DAAFE3B4186F6B6457E0 SWAP1 PUSH1 0x0 SWAP1 LOG3 POP POP JUMP JUMPDEST PUSH1 0x0 PUSH2 0xFF6 DUP3 PUSH1 0x40 MLOAD DUP1 PUSH1 0x40 ADD PUSH1 0x40 MSTORE DUP1 PUSH1 0x20 DUP2 MSTORE PUSH1 0x20 ADD PUSH32 0x5361666545524332303A206C6F772D6C6576656C2063616C6C206661696C6564 DUP2 MSTORE POP DUP6 PUSH1 0x1 PUSH1 0x1 PUSH1 0xA0 SHL SUB AND PUSH2 0x1086 SWAP1 SWAP3 SWAP2 SWAP1 PUSH4 0xFFFFFFFF AND JUMP JUMPDEST DUP1 MLOAD SWAP1 SWAP2 POP ISZERO PUSH2 0xF4A JUMPI DUP1 DUP1 PUSH1 0x20 ADD SWAP1 MLOAD DUP2 ADD SWAP1 PUSH2 0x1014 SWAP2 SWAP1 PUSH2 0x13BE JUMP JUMPDEST PUSH2 0xF4A JUMPI PUSH1 0x40 MLOAD PUSH3 0x461BCD PUSH1 0xE5 SHL DUP2 MSTORE PUSH1 0x20 PUSH1 0x4 DUP3 ADD MSTORE PUSH1 0x2A PUSH1 0x24 DUP3 ADD MSTORE PUSH32 0x5361666545524332303A204552433230206F7065726174696F6E20646964206E PUSH1 0x44 DUP3 ADD MSTORE PUSH32 0x6F74207375636365656400000000000000000000000000000000000000000000 PUSH1 0x64 DUP3 ADD MSTORE PUSH1 0x84 ADD PUSH2 0x403 JUMP JUMPDEST PUSH1 0x60 PUSH2 0x1095 DUP5 DUP5 PUSH1 0x0 DUP6 PUSH2 0x109D JUMP JUMPDEST SWAP5 SWAP4 POP POP POP POP JUMP JUMPDEST PUSH1 0x60 DUP3 SELFBALANCE LT ISZERO PUSH2 0x1115 JUMPI PUSH1 0x40 MLOAD PUSH3 0x461BCD PUSH1 0xE5 SHL DUP2 MSTORE PUSH1 0x20 PUSH1 0x4 DUP3 ADD MSTORE PUSH1 0x26 PUSH1 0x24 DUP3 ADD MSTORE PUSH32 0x416464726573733A20696E73756666696369656E742062616C616E636520666F PUSH1 0x44 DUP3 ADD MSTORE PUSH32 0x722063616C6C0000000000000000000000000000000000000000000000000000 PUSH1 0x64 DUP3 ADD MSTORE PUSH1 0x84 ADD PUSH2 0x403 JUMP JUMPDEST PUSH1 0x0 DUP1 DUP7 PUSH1 0x1 PUSH1 0x1 PUSH1 0xA0 SHL SUB AND DUP6 DUP8 PUSH1 0x40 MLOAD PUSH2 0x1131 SWAP2 SWAP1 PUSH2 0x1404 JUMP JUMPDEST PUSH1 0x0 PUSH1 0x40 MLOAD DUP1 DUP4 SUB DUP2 DUP6 DUP8 GAS CALL SWAP3 POP POP POP RETURNDATASIZE DUP1 PUSH1 0x0 DUP2 EQ PUSH2 0x116E JUMPI PUSH1 0x40 MLOAD SWAP2 POP PUSH1 0x1F NOT PUSH1 0x3F RETURNDATASIZE ADD AND DUP3 ADD PUSH1 0x40 MSTORE RETURNDATASIZE DUP3 MSTORE RETURNDATASIZE PUSH1 0x0 PUSH1 0x20 DUP5 ADD RETURNDATACOPY PUSH2 0x1173 JUMP JUMPDEST PUSH1 0x60 SWAP2 POP JUMPDEST POP SWAP2 POP SWAP2 POP PUSH2 0x1184 DUP8 DUP4 DUP4 DUP8 PUSH2 0x118F JUMP JUMPDEST SWAP8 SWAP7 POP POP POP POP POP POP POP JUMP JUMPDEST PUSH1 0x60 DUP4 ISZERO PUSH2 0x11FE JUMPI DUP3 MLOAD PUSH1 0x0 SUB PUSH2 0x11F7 JUMPI PUSH1 0x1 PUSH1 0x1 PUSH1 0xA0 SHL SUB DUP6 AND EXTCODESIZE PUSH2 0x11F7 JUMPI PUSH1 0x40 MLOAD PUSH3 0x461BCD PUSH1 0xE5 SHL DUP2 MSTORE PUSH1 0x20 PUSH1 0x4 DUP3 ADD MSTORE PUSH1 0x1D PUSH1 0x24 DUP3 ADD MSTORE PUSH32 0x416464726573733A2063616C6C20746F206E6F6E2D636F6E7472616374000000 PUSH1 0x44 DUP3 ADD MSTORE PUSH1 0x64 ADD PUSH2 0x403 JUMP JUMPDEST POP DUP2 PUSH2 0x1095 JUMP JUMPDEST PUSH2 0x1095 DUP4 DUP4 DUP2 MLOAD ISZERO PUSH2 0x1213 JUMPI DUP2 MLOAD DUP1 DUP4 PUSH1 0x20 ADD REVERT JUMPDEST DUP1 PUSH1 0x40 MLOAD PUSH3 0x461BCD PUSH1 0xE5 SHL DUP2 MSTORE PUSH1 0x4 ADD PUSH2 0x403 SWAP2 SWAP1 PUSH2 0x1420 JUMP JUMPDEST PUSH1 0x0 PUSH1 0x20 DUP3 DUP5 SUB SLT ISZERO PUSH2 0x123F JUMPI PUSH1 0x0 DUP1 REVERT JUMPDEST POP CALLDATALOAD SWAP2 SWAP1 POP JUMP JUMPDEST PUSH1 0x1 PUSH1 0x1 PUSH1 0xA0 SHL SUB DUP2 AND DUP2 EQ PUSH2 0x6FF JUMPI PUSH1 0x0 DUP1 REVERT JUMPDEST PUSH1 0x0 PUSH1 0x20 DUP3 DUP5 SUB SLT ISZERO PUSH2 0x126D JUMPI PUSH1 0x0 DUP1 REVERT JUMPDEST DUP2 CALLDATALOAD PUSH2 0xDC8 DUP2 PUSH2 0x1246 JUMP JUMPDEST PUSH1 0x20 DUP1 DUP3 MSTORE DUP3 MLOAD DUP3 DUP3 ADD DUP2 SWAP1 MSTORE PUSH1 0x0 SWAP2 SWAP1 PUSH1 0x40 SWAP1 DUP2 DUP6 ADD SWAP1 DUP7 DUP5 ADD DUP6 JUMPDEST DUP3 DUP2 LT ISZERO PUSH2 0x12C3 JUMPI DUP2 MLOAD DUP1 MLOAD PUSH1 0x1 PUSH1 0x1 PUSH1 0xA0 SHL SUB AND DUP6 MSTORE DUP7 ADD MLOAD DUP7 DUP6 ADD MSTORE SWAP3 DUP5 ADD SWAP3 SWAP1 DUP6 ADD SWAP1 PUSH1 0x1 ADD PUSH2 0x1295 JUMP JUMPDEST POP SWAP2 SWAP8 SWAP7 POP POP POP POP POP POP POP JUMP JUMPDEST PUSH4 0x4E487B71 PUSH1 0xE0 SHL PUSH1 0x0 MSTORE PUSH1 0x11 PUSH1 0x4 MSTORE PUSH1 0x24 PUSH1 0x0 REVERT JUMPDEST DUP1 DUP3 ADD DUP1 DUP3 GT ISZERO PUSH2 0xED6 JUMPI PUSH2 0xED6 PUSH2 0x12D0 JUMP JUMPDEST PUSH4 0x4E487B71 PUSH1 0xE0 SHL PUSH1 0x0 MSTORE PUSH1 0x32 PUSH1 0x4 MSTORE PUSH1 0x24 PUSH1 0x0 REVERT JUMPDEST PUSH1 0x0 PUSH1 0x1 DUP3 ADD PUSH2 0x1321 JUMPI PUSH2 0x1321 PUSH2 0x12D0 JUMP JUMPDEST POP PUSH1 0x1 ADD SWAP1 JUMP JUMPDEST PUSH1 0x0 DUP2 PUSH2 0x1337 JUMPI PUSH2 0x1337 PUSH2 0x12D0 JUMP JUMPDEST POP PUSH1 0x0 NOT ADD SWAP1 JUMP JUMPDEST PUSH4 0x4E487B71 PUSH1 0xE0 SHL PUSH1 0x0 MSTORE PUSH1 0x41 PUSH1 0x4 MSTORE PUSH1 0x24 PUSH1 0x0 REVERT JUMPDEST PUSH1 0x0 PUSH1 0x20 DUP3 DUP5 SUB SLT ISZERO PUSH2 0x1367 JUMPI PUSH1 0x0 DUP1 REVERT JUMPDEST DUP2 MLOAD PUSH2 0xDC8 DUP2 PUSH2 0x1246 JUMP JUMPDEST DUP2 DUP2 SUB DUP2 DUP2 GT ISZERO PUSH2 0xED6 JUMPI PUSH2 0xED6 PUSH2 0x12D0 JUMP JUMPDEST DUP1 DUP3 MUL DUP2 ISZERO DUP3 DUP3 DIV DUP5 EQ OR PUSH2 0xED6 JUMPI PUSH2 0xED6 PUSH2 0x12D0 JUMP JUMPDEST PUSH1 0x0 DUP3 PUSH2 0x13B9 JUMPI PUSH4 0x4E487B71 PUSH1 0xE0 SHL PUSH1 0x0 MSTORE PUSH1 0x12 PUSH1 0x4 MSTORE PUSH1 0x24 PUSH1 0x0 REVERT JUMPDEST POP DIV SWAP1 JUMP JUMPDEST PUSH1 0x0 PUSH1 0x20 DUP3 DUP5 SUB SLT ISZERO PUSH2 0x13D0 JUMPI PUSH1 0x0 DUP1 REVERT JUMPDEST DUP2 MLOAD DUP1 ISZERO ISZERO DUP2 EQ PUSH2 0xDC8 JUMPI PUSH1 0x0 DUP1 REVERT JUMPDEST PUSH1 0x0 JUMPDEST DUP4 DUP2 LT ISZERO PUSH2 0x13FB JUMPI DUP2 DUP2 ADD MLOAD DUP4 DUP3 ADD MSTORE PUSH1 0x20 ADD PUSH2 0x13E3 JUMP JUMPDEST POP POP PUSH1 0x0 SWAP2 ADD MSTORE JUMP JUMPDEST PUSH1 0x0 DUP3 MLOAD PUSH2 0x1416 DUP2 DUP5 PUSH1 0x20 DUP8 ADD PUSH2 0x13E0 JUMP JUMPDEST SWAP2 SWAP1 SWAP2 ADD SWAP3 SWAP2 POP POP JUMP JUMPDEST PUSH1 0x20 DUP2 MSTORE PUSH1 0x0 DUP3 MLOAD DUP1 PUSH1 0x20 DUP5 ADD MSTORE PUSH2 0x143F DUP2 PUSH1 0x40 DUP6 ADD PUSH1 0x20 DUP8 ADD PUSH2 0x13E0 JUMP JUMPDEST PUSH1 0x1F ADD PUSH1 0x1F NOT AND SWAP2 SWAP1 SWAP2 ADD PUSH1 0x40 ADD SWAP3 SWAP2 POP POP JUMP INVALID LOG2 PUSH5 0x6970667358 0x22 SLT KECCAK256 CREATE2 EXTCODESIZE 0x28 0xB5 0xD 0xDC SELFDESTRUCT PUSH17 0x3547A341335BA4C63BB1BDDEDD341AD45C EQ 0xDB 0x2C 0xB2 0x1E 0xAC CODESIZE PUSH5 0x736F6C6343 STOP ADDMOD GT STOP CALLER "
    },
    "gasEstimates": {
      "creation": {
        "codeDepositCost": "1051400",
        "executionCost": "infinite",
        "totalCost": "infinite"
      },
      "external": {
        "availableRewards(address)": "infinite",
        "claimRewards()": "infinite",
        "emergencyWithdrawAll()": "infinite",
        "getStakedTokens(address)": "infinite",
        "nftCollection()": "infinite",
        "owner()": "2420",
        "renounceOwnership()": "infinite",
        "rewardsToken()": "infinite",
        "setrewardsPerHour(uint256)": "24577",
        "stake(uint256)": "infinite",
        "stakerAddress(uint256)": "2522",
        "stakers(address)": "6811",
        "storenative()": "22304",
        "transferOwnership(address)": "infinite",
        "withdraw(uint256)": "infinite",
        "withdrawadmin(uint256)": "infinite"
      },
      "internal": {
        "calculateRewards(address)": "infinite"
      }
    },
    "methodIdentifiers": {
      "availableRewards(address)": "f854a27f",
      "claimRewards()": "372500ab",
      "emergencyWithdrawAll()": "dd191719",
      "getStakedTokens(address)": "63c28db1",
      "nftCollection()": "6588103b",
      "owner()": "8da5cb5b",
      "renounceOwnership()": "715018a6",
      "rewardsToken()": "d1af0c7d",
      "setrewardsPerHour(uint256)": "b768d7f5",
      "stake(uint256)": "a694fc3a",
      "stakerAddress(uint256)": "94067045",
      "stakers(address)": "9168ae72",
      "storenative()": "5036e63b",
      "transferOwnership(address)": "f2fde38b",
      "withdraw(uint256)": "2e1a7d4d",
      "withdrawadmin(uint256)": "1829b46c"
    }
  },
  "storageLayout": {
    "storage": [
      {
        "astId": 707,
        "contract": "StakingContract.sol:ERC721Staking",
        "label": "_status",
        "offset": 0,
        "slot": "0",
        "type": "t_uint256"
      },
      {
        "astId": 591,
        "contract": "StakingContract.sol:ERC721Staking",
        "label": "_owner",
        "offset": 0,
        "slot": "1",
        "type": "t_address"
      },
      {
        "astId": 22,
        "contract": "StakingContract.sol:ERC721Staking",
        "label": "imna",
        "offset": 0,
        "slot": "2",
        "type": "t_uint256"
      },
      {
        "astId": 63,
        "contract": "StakingContract.sol:ERC721Staking",
        "label": "rewardsPerHour",
        "offset": 0,
        "slot": "3",
        "type": "t_uint256"
      },
      {
        "astId": 68,
        "contract": "StakingContract.sol:ERC721Staking",
        "label": "stakers",
        "offset": 0,
        "slot": "4",
        "type": "t_mapping(t_address,t_struct(Staker)60_storage)"
      },
      {
        "astId": 72,
        "contract": "StakingContract.sol:ERC721Staking",
        "label": "stakerAddress",
        "offset": 0,
        "slot": "5",
        "type": "t_mapping(t_uint256,t_address)"
      }
    ],
    "types": {
      "t_address": {
        "encoding": "inplace",
        "label": "address",
        "numberOfBytes": "20"
      },
      "t_array(t_struct(StakedToken)49_storage)dyn_storage": {
        "base": "t_struct(StakedToken)49_storage",
        "encoding": "dynamic_array",
        "label": "struct ERC721Staking.StakedToken[]",
        "numberOfBytes": "32"
      },
      "t_mapping(t_address,t_struct(Staker)60_storage)": {
        "encoding": "mapping",
        "key": "t_address",
        "label": "mapping(address => struct ERC721Staking.Staker)",
        "numberOfBytes": "32",
        "value": "t_struct(Staker)60_storage"
      },
      "t_mapping(t_uint256,t_address)": {
        "encoding": "mapping",
        "key": "t_uint256",
        "label": "mapping(uint256 => address)",
        "numberOfBytes": "32",
        "value": "t_address"
      },
      "t_struct(StakedToken)49_storage": {
        "encoding": "inplace",
        "label": "struct ERC721Staking.StakedToken",
        "members": [
          {
            "astId": 46,
            "contract": "StakingContract.sol:ERC721Staking",
            "label": "staker",
            "offset": 0,
            "slot": "0",
            "type": "t_address"
          },
          {
            "astId": 48,
            "contract": "StakingContract.sol:ERC721Staking",
            "label": "tokenId",
            "offset": 0,
            "slot": "1",
            "type": "t_uint256"
          }
        ],
        "numberOfBytes": "64"
      },
      "t_struct(Staker)60_storage": {
        "encoding": "inplace",
        "label": "struct ERC721Staking.Staker",
        "members": [
          {
            "astId": 51,
            "contract": "StakingContract.sol:ERC721Staking",
            "label": "amountStaked",
            "offset": 0,
            "slot": "0",
            "type": "t_uint256"
          },
          {
            "astId": 55,
            "contract": "StakingContract.sol:ERC721Staking",
            "label": "stakedTokens",
            "offset": 0,
            "slot": "1",
            "type": "t_array(t_struct(StakedToken)49_storage)dyn_storage"
          },
          {
            "astId": 57,
            "contract": "StakingContract.sol:ERC721Staking",
            "label": "timeOfLastUpdate",
            "offset": 0,
            "slot": "2",
            "type": "t_uint256"
          },
          {
            "astId": 59,
            "contract": "StakingContract.sol:ERC721Staking",
            "label": "unclaimedRewards",
            "offset": 0,
            "slot": "3",
            "type": "t_uint256"
          }
        ],
        "numberOfBytes": "128"
      },
      "t_uint256": {
        "encoding": "inplace",
        "label": "uint256",
        "numberOfBytes": "32"
      }
    }
  },
  "userdoc": {
    "kind": "user",
    "methods": {},
    "version": 1
  }
}